{
  "contractName": "ERC165",
  "abi": [
    {
      "inputs": [],
      "stateMutability": "nonpayable",
      "type": "constructor"
    },
    {
      "inputs": [
        {
          "internalType": "bytes4",
          "name": "interfaceID",
          "type": "bytes4"
        }
      ],
      "name": "supportsInterface",
      "outputs": [
        {
          "internalType": "bool",
          "name": "",
          "type": "bool"
        }
      ],
      "stateMutability": "view",
      "type": "function"
    },
    {
      "inputs": [
        {
          "internalType": "bytes4",
          "name": "interfaceID",
          "type": "bytes4"
        }
      ],
      "name": "_registerInterface",
      "outputs": [],
      "stateMutability": "nonpayable",
      "type": "function"
    }
  ],
  "bytecode": "0x6080604052348015600f57600080fd5b5060377f01ffc9a7a5cef8baa21ed3c5c0d7e23accb804b619e9333b597f47a0d84076e2603b565b60d5565b6001600160e01b0319808216900360b05760405162461bcd60e51b815260206004820152602f60248201527f4552433136353a20616464496e746572666163653a207468697320696e74657260448201526e199858d9481a5cc81a5b9d985b1a59608a1b606482015260840160405180910390fd5b6001600160e01b0319166000908152602081905260409020805460ff19166001179055565b610193806100e46000396000f3fe608060405234801561001057600080fd5b50600436106100365760003560e01c806301ffc9a71461003b578063068417d91461007c575b600080fd5b61006861004936600461012c565b6001600160e01b03191660009081526020819052604090205460ff1690565b604051901515815260200160405180910390f35b61008f61008a36600461012c565b610091565b005b6001600160e01b031980821690036101075760405162461bcd60e51b815260206004820152602f60248201527f4552433136353a20616464496e746572666163653a207468697320696e74657260448201526e199858d9481a5cc81a5b9d985b1a59608a1b606482015260840160405180910390fd5b6001600160e01b0319166000908152602081905260409020805460ff19166001179055565b60006020828403121561013e57600080fd5b81356001600160e01b03198116811461015657600080fd5b939250505056fea2646970667358221220f84ddc308c5c1eb7ed6aa01ffe272c68bcc7a2a8b11b8a857f0781dc518421c564736f6c634300081c0033",
  "immutableReferences": {},
  "source": "// SPDX-License-Identifier: MIT\r\npragma solidity ^0.8.0;\r\n\r\nimport \"./interfaces/IERC165.sol\";\r\n\r\ncontract ERC165 is IERC165 {\r\n    // Mapping to store supported interface IDs\r\n    mapping(bytes4 => bool) private _supportedInterfaces;\r\n\r\n    /**\r\n     * @dev Constructor registers the ERC165 interface itself.\r\n     */\r\n    constructor() {\r\n        _registerInterface(bytes4(keccak256('supportsInterface(bytes4)')));\r\n    }\r\n\r\n    /**\r\n     * @dev Checks if a given interface is supported.\r\n     * @param interfaceID The interface ID to check for support.\r\n     * @return bool Whether the interface is supported.\r\n     */\r\n    function supportsInterface(bytes4 interfaceID) external view override returns (bool) {\r\n        return _supportedInterfaces[interfaceID];\r\n    }\r\n\r\n    /**\r\n     * @dev Registers an interface to be supported by the contract.\r\n     * @param interfaceID The interface ID to register.\r\n     */\r\n    function _registerInterface(bytes4 interfaceID) public {\r\n        require(interfaceID != 0xffffffff, \"ERC165: addInterface: this interface is invalid\");\r\n        _supportedInterfaces[interfaceID] = true;\r\n    }\r\n}\r\n",
  "sourcePath": "C:\\Users\\pavan\\OneDrive\\Desktop\\codes\\Projects\\BrainStorm_NITSilchar_FlipkartGrid4.0\\NFT\\src\\contracts\\ERC165.sol",
  "compiler": {
    "name": "solc",
    "version": "0.8.28+commit.7893614a.Emscripten.clang"
  },
  "schemaVersion": "3.4.16",
  "updatedAt": "2024-12-15T07:25:47.400Z",
  "devdoc": {
    "kind": "dev",
    "methods": {
      "_registerInterface(bytes4)": {
        "details": "Registers an interface to be supported by the contract.",
        "params": {
          "interfaceID": "The interface ID to register."
        }
      },
      "constructor": {
        "details": "Constructor registers the ERC165 interface itself."
      },
      "supportsInterface(bytes4)": {
        "details": "Checks if a given interface is supported.",
        "params": {
          "interfaceID": "The interface ID to check for support."
        },
        "returns": {
          "_0": "bool Whether the interface is supported."
        }
      }
    },
    "version": 1
  },
  "userdoc": {
    "kind": "user",
    "methods": {},
    "version": 1
  }
}