{
  "contractName": "ERC721",
  "abi": [
    {
      "inputs": [],
      "stateMutability": "nonpayable",
      "type": "constructor"
    },
    {
      "anonymous": false,
      "inputs": [
        {
          "indexed": true,
          "internalType": "address",
          "name": "_owner",
          "type": "address"
        },
        {
          "indexed": true,
          "internalType": "address",
          "name": "_approved",
          "type": "address"
        },
        {
          "indexed": true,
          "internalType": "uint256",
          "name": "_tokenId",
          "type": "uint256"
        }
      ],
      "name": "Approval",
      "type": "event"
    },
    {
      "anonymous": false,
      "inputs": [
        {
          "indexed": true,
          "internalType": "address",
          "name": "_from",
          "type": "address"
        },
        {
          "indexed": true,
          "internalType": "address",
          "name": "_to",
          "type": "address"
        },
        {
          "indexed": true,
          "internalType": "uint256",
          "name": "_tokenId",
          "type": "uint256"
        }
      ],
      "name": "Transfer",
      "type": "event"
    },
    {
      "inputs": [
        {
          "internalType": "bytes4",
          "name": "interfaceID",
          "type": "bytes4"
        }
      ],
      "name": "_registerInterface",
      "outputs": [],
      "stateMutability": "nonpayable",
      "type": "function"
    },
    {
      "inputs": [
        {
          "internalType": "bytes4",
          "name": "interfaceID",
          "type": "bytes4"
        }
      ],
      "name": "supportsInterface",
      "outputs": [
        {
          "internalType": "bool",
          "name": "",
          "type": "bool"
        }
      ],
      "stateMutability": "view",
      "type": "function"
    },
    {
      "inputs": [
        {
          "internalType": "address",
          "name": "_owner",
          "type": "address"
        }
      ],
      "name": "balanceOf",
      "outputs": [
        {
          "internalType": "uint256",
          "name": "",
          "type": "uint256"
        }
      ],
      "stateMutability": "view",
      "type": "function"
    },
    {
      "inputs": [
        {
          "internalType": "uint256",
          "name": "_tokenId",
          "type": "uint256"
        }
      ],
      "name": "ownerOf",
      "outputs": [
        {
          "internalType": "address",
          "name": "",
          "type": "address"
        }
      ],
      "stateMutability": "view",
      "type": "function"
    },
    {
      "inputs": [
        {
          "internalType": "address",
          "name": "from",
          "type": "address"
        },
        {
          "internalType": "address",
          "name": "to",
          "type": "address"
        },
        {
          "internalType": "uint256",
          "name": "tokenId",
          "type": "uint256"
        }
      ],
      "name": "transferFrom",
      "outputs": [],
      "stateMutability": "nonpayable",
      "type": "function"
    },
    {
      "inputs": [
        {
          "internalType": "address",
          "name": "to",
          "type": "address"
        },
        {
          "internalType": "uint256",
          "name": "tokenId",
          "type": "uint256"
        }
      ],
      "name": "approve",
      "outputs": [],
      "stateMutability": "nonpayable",
      "type": "function"
    },
    {
      "inputs": [
        {
          "internalType": "uint256",
          "name": "tokenId",
          "type": "uint256"
        }
      ],
      "name": "getApproved",
      "outputs": [
        {
          "internalType": "address",
          "name": "",
          "type": "address"
        }
      ],
      "stateMutability": "view",
      "type": "function"
    }
  ],
  "bytecode": "0x608060405234801561001057600080fd5b5061003a7f01ffc9a7a5cef8baa21ed3c5c0d7e23accb804b619e9333b597f47a0d84076e2610068565b6100637f304ad1f2afea4ffb313492ce5bd338832dfd9845798d2faba4c0462e1ca9a2a9610068565b610103565b6001600160e01b031980821690036100de5760405162461bcd60e51b815260206004820152602f60248201527f4552433136353a20616464496e746572666163653a207468697320696e74657260448201526e199858d9481a5cc81a5b9d985b1a59608a1b606482015260840160405180910390fd5b6001600160e01b0319166000908152602081905260409020805460ff19166001179055565b6108bf806101126000396000f3fe608060405234801561001057600080fd5b506004361061007d5760003560e01c8063095ea7b31161005b578063095ea7b31461010457806323b872dd146101175780636352211e1461012a57806370a082311461013d57600080fd5b806301ffc9a714610082578063068417d9146100c4578063081812fc146100d9575b600080fd5b6100af61009036600461075b565b6001600160e01b03191660009081526020819052604090205460ff1690565b60405190151581526020015b60405180910390f35b6100d76100d236600461075b565b61015e565b005b6100ec6100e736600461078c565b6101fa565b6040516001600160a01b0390911681526020016100bb565b6100d76101123660046107c1565b61028c565b6100d76101253660046107eb565b6103d0565b6100ec61013836600461078c565b610659565b61015061014b366004610828565b6106d2565b6040519081526020016100bb565b6001600160e01b031980821690036101d55760405162461bcd60e51b815260206004820152602f60248201527f4552433136353a20616464496e746572666163653a207468697320696e74657260448201526e199858d9481a5cc81a5b9d985b1a59608a1b60648201526084015b60405180910390fd5b6001600160e01b0319166000908152602081905260409020805460ff19166001179055565b6000818152600160205260408120546001600160a01b03166102705760405162461bcd60e51b815260206004820152602960248201527f4552433732313a20676574417070726f7665643a20746f6b656e20646f6573206044820152681b9bdd08195e1a5cdd60ba1b60648201526084016101cc565b506000908152600360205260409020546001600160a01b031690565b600061029782610659565b9050806001600160a01b0316836001600160a01b03160361030a5760405162461bcd60e51b815260206004820152602760248201527f4552433732313a20617070726f766520746f206f776e6572206973206e6f7420604482015266185b1b1bddd95960ca1b60648201526084016101cc565b336001600160a01b038216146103745760405162461bcd60e51b815260206004820152602960248201527f4552433732313a20617070726f76652063616c6c6572206973206e6f7420746f60448201526835b2b71037bbb732b960b91b60648201526084016101cc565b60008281526003602052604080822080546001600160a01b0319166001600160a01b0387811691821790925591518593918516917f8c5be1e5ebec7d5bd14f71427d1e84f3dd0314c0f7b2291e5b200ac8c7c3b92591a4505050565b6001600160a01b0383166104395760405162461bcd60e51b815260206004820152602a60248201527f4552433732313a207472616e7366657246726f6d3a20696e76616c69642066726044820152696f6d206164647265737360b01b60648201526084016101cc565b6001600160a01b0382166104a05760405162461bcd60e51b815260206004820152602860248201527f4552433732313a207472616e7366657246726f6d3a20696e76616c696420746f604482015267206164647265737360c01b60648201526084016101cc565b6000818152600160205260409020546001600160a01b03166105175760405162461bcd60e51b815260206004820152602a60248201527f4552433732313a207472616e7366657246726f6d3a20746f6b656e20646f6573604482015269081b9bdd08195e1a5cdd60b21b60648201526084016101cc565b826001600160a01b031661052a82610659565b6001600160a01b03161461059f5760405162461bcd60e51b815260206004820152603660248201527f4552433732313a207472616e7366657246726f6d3a2063616c6c6572206973206044820152753737ba1037bbb732b91037b3103a3432903a37b5b2b760511b60648201526084016101cc565b600081815260016020908152604080832080546001600160a01b0319166001600160a01b038781169190911790915586168352600290915281208054916105e583610859565b90915550506001600160a01b038216600090815260026020526040812080549161060e83610870565b919050555080826001600160a01b0316846001600160a01b03167fddf252ad1be2c89b69c2b068fc378daa952ba7f163c4a11628f55a4df523b3ef60405160405180910390a4505050565b6000818152600160205260408120546001600160a01b0316806106cc5760405162461bcd60e51b815260206004820152602560248201527f4552433732313a206f776e65724f663a20746f6b656e20646f6573206e6f7420604482015264195e1a5cdd60da1b60648201526084016101cc565b92915050565b60006001600160a01b03821661073f5760405162461bcd60e51b815260206004820152602c60248201527f4552433732313a2062616c616e63654f663a2061646472657373207a65726f2060448201526b1a5cc81b9bdd081d985b1a5960a21b60648201526084016101cc565b506001600160a01b031660009081526002602052604090205490565b60006020828403121561076d57600080fd5b81356001600160e01b03198116811461078557600080fd5b9392505050565b60006020828403121561079e57600080fd5b5035919050565b80356001600160a01b03811681146107bc57600080fd5b919050565b600080604083850312156107d457600080fd5b6107dd836107a5565b946020939093013593505050565b60008060006060848603121561080057600080fd5b610809846107a5565b9250610817602085016107a5565b929592945050506040919091013590565b60006020828403121561083a57600080fd5b610785826107a5565b634e487b7160e01b600052601160045260246000fd5b60008161086857610868610843565b506000190190565b60006001820161088257610882610843565b506001019056fea2646970667358221220e100b3075dd24e5dd24041a8912a4252df7fb9214103cb8706639516840c731b64736f6c634300081c0033",
  "immutableReferences": {},
  "source": "// SPDX-License-Identifier: MIT\r\npragma solidity ^0.8.0;\r\n\r\nimport './ERC165.sol';\r\nimport './interfaces/IERC721.sol';\r\n\r\ncontract ERC721 is ERC165, IERC721 {\r\n\r\n    // Mapping from token ID to owner address\r\n    mapping(uint256 => address) private _tokenOwner;\r\n\r\n    // Mapping from owner address to number of owned tokens\r\n    mapping(address => uint256) private _ownedTokenCount;\r\n\r\n    // Mapping from token ID to approved address\r\n    mapping(uint256 => address) private _tokenApprovals;\r\n\r\n    // Constructor to register the ERC721 interface\r\n    constructor() {\r\n        _registerInterface(bytes4(keccak256('balanceOf(address)') ^\r\n                                  keccak256('ownerOf(uint256)') ^\r\n                                  keccak256('transferFrom(address,address,uint256)')));\r\n    }\r\n\r\n    /**\r\n     * @dev Returns the number of tokens owned by the given address.\r\n     * @param _owner The address to query the balance of.\r\n     * @return uint256 The number of tokens owned by `_owner`.\r\n     */\r\n    function balanceOf(address _owner) public view override returns (uint256) {\r\n        require(_owner != address(0), \"ERC721: balanceOf: address zero is not valid\");\r\n        return _ownedTokenCount[_owner];\r\n    }\r\n\r\n    /**\r\n     * @dev Returns the owner of the given token ID.\r\n     * @param _tokenId The token ID to query the owner of.\r\n     * @return address The address that owns the token.\r\n     */\r\n    function ownerOf(uint256 _tokenId) public view override returns (address) {\r\n        address owner = _tokenOwner[_tokenId];\r\n        require(owner != address(0), \"ERC721: ownerOf: token does not exist\");\r\n        return owner;\r\n    }\r\n\r\n    /**\r\n     * @dev Checks if a token exists by checking if it is owned by a non-zero address.\r\n     * @param tokenId The token ID to check.\r\n     * @return bool `true` if the token exists, otherwise `false`.\r\n     */\r\n    function _exists(uint256 tokenId) internal view returns (bool) {\r\n        return _tokenOwner[tokenId] != address(0);\r\n    }\r\n\r\n    /**\r\n     * @dev Mints a new token with a given ID and assigns it to an address.\r\n     * @param to The address to mint the token to.\r\n     * @param tokenId The token ID to mint.\r\n     */\r\n    function _mint(address to, uint256 tokenId) internal virtual {\r\n        require(to != address(0), \"ERC721: mint to address zero is not valid\");\r\n        require(!_exists(tokenId), \"ERC721: token already minted\");\r\n        _tokenOwner[tokenId] = to;\r\n        _ownedTokenCount[to]++;\r\n        emit Transfer(address(0), to, tokenId);\r\n    }\r\n\r\n    /**\r\n     * @dev Transfers a token from one address to another.\r\n     * @param from The current owner of the token.\r\n     * @param to The new owner of the token.\r\n     * @param tokenId The token ID to transfer.\r\n     */\r\n    function transferFrom(address from, address to, uint256 tokenId) public virtual override {\r\n        require(from != address(0), \"ERC721: transferFrom: invalid from address\");\r\n        require(to != address(0), \"ERC721: transferFrom: invalid to address\");\r\n        require(_exists(tokenId), \"ERC721: transferFrom: token does not exist\");\r\n        require(ownerOf(tokenId) == from, \"ERC721: transferFrom: caller is not owner of the token\");\r\n\r\n        _tokenOwner[tokenId] = to;\r\n        _ownedTokenCount[from]--;\r\n        _ownedTokenCount[to]++;\r\n        emit Transfer(from, to, tokenId);\r\n    }\r\n\r\n    // Add the approve function to allow an address to approve another address to transfer a token\r\n\r\n    /**\r\n     * @dev Approves another address to transfer a specific token on behalf of the owner.\r\n     * @param to The address to be approved.\r\n     * @param tokenId The token ID to approve.\r\n     */\r\n    function approve(address to, uint256 tokenId) public virtual {\r\n        address owner = ownerOf(tokenId);\r\n        require(to != owner, \"ERC721: approve to owner is not allowed\");\r\n        require(msg.sender == owner, \"ERC721: approve caller is not token owner\");\r\n\r\n        _tokenApprovals[tokenId] = to;\r\n        emit Approval(owner, to, tokenId);\r\n    }\r\n\r\n    /**\r\n     * @dev Returns the address approved to transfer a specific token.\r\n     * @param tokenId The token ID to query the approval of.\r\n     * @return address The approved address, or zero if no address is approved.\r\n     */\r\n    function getApproved(uint256 tokenId) public view virtual returns (address) {\r\n        require(_exists(tokenId), \"ERC721: getApproved: token does not exist\");\r\n        return _tokenApprovals[tokenId];\r\n    }\r\n}\r\n",
  "sourcePath": "C:\\Users\\pavan\\OneDrive\\Desktop\\codes\\Projects\\BrainStorm_NITSilchar_FlipkartGrid4.0\\NFT\\src\\contracts\\ERC721.sol",
  "compiler": {
    "name": "solc",
    "version": "0.8.28+commit.7893614a.Emscripten.clang"
  },
  "schemaVersion": "3.4.16",
  "updatedAt": "2024-12-15T07:25:47.404Z",
  "devdoc": {
    "events": {
      "Approval(address,address,uint256)": {
        "details": "The zero address indicates there is no approved address.",
        "params": {
          "_approved": "The address that is approved",
          "_owner": "The owner of the token",
          "_tokenId": "The identifier of the token approved"
        }
      },
      "Transfer(address,address,uint256)": {
        "details": "This event emits when NFTs are transferred, including zero value transfers.",
        "params": {
          "_from": "The address of the previous owner of the token",
          "_to": "The address of the new owner of the token",
          "_tokenId": "The identifier of the token transferred"
        }
      }
    },
    "kind": "dev",
    "methods": {
      "_registerInterface(bytes4)": {
        "details": "Registers an interface to be supported by the contract.",
        "params": {
          "interfaceID": "The interface ID to register."
        }
      },
      "approve(address,uint256)": {
        "details": "Approves another address to transfer a specific token on behalf of the owner.",
        "params": {
          "to": "The address to be approved.",
          "tokenId": "The token ID to approve."
        }
      },
      "balanceOf(address)": {
        "details": "Returns the number of tokens owned by the given address.",
        "params": {
          "_owner": "The address to query the balance of."
        },
        "returns": {
          "_0": "uint256 The number of tokens owned by `_owner`."
        }
      },
      "getApproved(uint256)": {
        "details": "Returns the address approved to transfer a specific token.",
        "params": {
          "tokenId": "The token ID to query the approval of."
        },
        "returns": {
          "_0": "address The approved address, or zero if no address is approved."
        }
      },
      "ownerOf(uint256)": {
        "details": "Returns the owner of the given token ID.",
        "params": {
          "_tokenId": "The token ID to query the owner of."
        },
        "returns": {
          "_0": "address The address that owns the token."
        }
      },
      "supportsInterface(bytes4)": {
        "details": "Checks if a given interface is supported.",
        "params": {
          "interfaceID": "The interface ID to check for support."
        },
        "returns": {
          "_0": "bool Whether the interface is supported."
        }
      },
      "transferFrom(address,address,uint256)": {
        "details": "Transfers a token from one address to another.",
        "params": {
          "from": "The current owner of the token.",
          "to": "The new owner of the token.",
          "tokenId": "The token ID to transfer."
        }
      }
    },
    "version": 1
  },
  "userdoc": {
    "events": {
      "Approval(address,address,uint256)": {
        "notice": "This emits when the approved address for an NFT is changed or reaffirmed."
      },
      "Transfer(address,address,uint256)": {
        "notice": "This emits when ownership of any NFT changes by any mechanism."
      }
    },
    "kind": "user",
    "methods": {},
    "version": 1
  }
}