{
  "contractName": "ERC721Connector",
  "abi": [
    {
      "inputs": [
        {
          "internalType": "string",
          "name": "name",
          "type": "string"
        },
        {
          "internalType": "string",
          "name": "symbol",
          "type": "string"
        }
      ],
      "stateMutability": "nonpayable",
      "type": "constructor"
    },
    {
      "anonymous": false,
      "inputs": [
        {
          "indexed": true,
          "internalType": "address",
          "name": "_owner",
          "type": "address"
        },
        {
          "indexed": true,
          "internalType": "address",
          "name": "_approved",
          "type": "address"
        },
        {
          "indexed": true,
          "internalType": "uint256",
          "name": "_tokenId",
          "type": "uint256"
        }
      ],
      "name": "Approval",
      "type": "event"
    },
    {
      "anonymous": false,
      "inputs": [
        {
          "indexed": true,
          "internalType": "address",
          "name": "_from",
          "type": "address"
        },
        {
          "indexed": true,
          "internalType": "address",
          "name": "_to",
          "type": "address"
        },
        {
          "indexed": true,
          "internalType": "uint256",
          "name": "_tokenId",
          "type": "uint256"
        }
      ],
      "name": "Transfer",
      "type": "event"
    },
    {
      "inputs": [
        {
          "internalType": "bytes4",
          "name": "interfaceID",
          "type": "bytes4"
        }
      ],
      "name": "_registerInterface",
      "outputs": [],
      "stateMutability": "nonpayable",
      "type": "function"
    },
    {
      "inputs": [
        {
          "internalType": "address",
          "name": "_owner",
          "type": "address"
        }
      ],
      "name": "allTokensOfOwner",
      "outputs": [
        {
          "internalType": "uint256[]",
          "name": "",
          "type": "uint256[]"
        }
      ],
      "stateMutability": "view",
      "type": "function"
    },
    {
      "inputs": [
        {
          "internalType": "address",
          "name": "to",
          "type": "address"
        },
        {
          "internalType": "uint256",
          "name": "tokenId",
          "type": "uint256"
        }
      ],
      "name": "approve",
      "outputs": [],
      "stateMutability": "nonpayable",
      "type": "function"
    },
    {
      "inputs": [
        {
          "internalType": "address",
          "name": "_owner",
          "type": "address"
        }
      ],
      "name": "balanceOf",
      "outputs": [
        {
          "internalType": "uint256",
          "name": "",
          "type": "uint256"
        }
      ],
      "stateMutability": "view",
      "type": "function"
    },
    {
      "inputs": [
        {
          "internalType": "uint256",
          "name": "tokenId",
          "type": "uint256"
        }
      ],
      "name": "getApproved",
      "outputs": [
        {
          "internalType": "address",
          "name": "",
          "type": "address"
        }
      ],
      "stateMutability": "view",
      "type": "function"
    },
    {
      "inputs": [],
      "name": "name",
      "outputs": [
        {
          "internalType": "string",
          "name": "",
          "type": "string"
        }
      ],
      "stateMutability": "view",
      "type": "function"
    },
    {
      "inputs": [
        {
          "internalType": "uint256",
          "name": "_tokenId",
          "type": "uint256"
        }
      ],
      "name": "ownerOf",
      "outputs": [
        {
          "internalType": "address",
          "name": "",
          "type": "address"
        }
      ],
      "stateMutability": "view",
      "type": "function"
    },
    {
      "inputs": [
        {
          "internalType": "bytes4",
          "name": "interfaceID",
          "type": "bytes4"
        }
      ],
      "name": "supportsInterface",
      "outputs": [
        {
          "internalType": "bool",
          "name": "",
          "type": "bool"
        }
      ],
      "stateMutability": "view",
      "type": "function"
    },
    {
      "inputs": [],
      "name": "symbol",
      "outputs": [
        {
          "internalType": "string",
          "name": "",
          "type": "string"
        }
      ],
      "stateMutability": "view",
      "type": "function"
    },
    {
      "inputs": [
        {
          "internalType": "uint256",
          "name": "index",
          "type": "uint256"
        }
      ],
      "name": "tokenByIndex",
      "outputs": [
        {
          "internalType": "uint256",
          "name": "",
          "type": "uint256"
        }
      ],
      "stateMutability": "view",
      "type": "function"
    },
    {
      "inputs": [
        {
          "internalType": "address",
          "name": "owner",
          "type": "address"
        },
        {
          "internalType": "uint256",
          "name": "index",
          "type": "uint256"
        }
      ],
      "name": "tokenOfOwnerByIndex",
      "outputs": [
        {
          "internalType": "uint256",
          "name": "",
          "type": "uint256"
        }
      ],
      "stateMutability": "view",
      "type": "function"
    },
    {
      "inputs": [],
      "name": "totalSupply",
      "outputs": [
        {
          "internalType": "uint256",
          "name": "",
          "type": "uint256"
        }
      ],
      "stateMutability": "view",
      "type": "function"
    },
    {
      "inputs": [
        {
          "internalType": "address",
          "name": "from",
          "type": "address"
        },
        {
          "internalType": "address",
          "name": "to",
          "type": "address"
        },
        {
          "internalType": "uint256",
          "name": "tokenId",
          "type": "uint256"
        }
      ],
      "name": "transferFrom",
      "outputs": [],
      "stateMutability": "nonpayable",
      "type": "function"
    }
  ],
  "bytecode": "0x608060405234801561001057600080fd5b506040516112e33803806112e383398101604081905261002f9161024e565b818161005a7f01ffc9a7a5cef8baa21ed3c5c0d7e23accb804b619e9333b597f47a0d84076e26100fa565b6100837f932545426104aec98a84b11f89010e409615d4e118552c694c4a726f29caf77a6100fa565b600161008f8382610340565b50600261009c8282610340565b506100ca91507f304ad1f2afea4ffb313492ce5bd338832dfd9845798d2faba4c0462e1ca9a2a990506100fa565b6100f37f780e9d631e748bd3b2cb04616c092832f76c29bf76677dc18f4bcbbd18ccb9bf6100fa565b50506103fe565b6001600160e01b031980821690036101705760405162461bcd60e51b815260206004820152602f60248201527f4552433136353a20616464496e746572666163653a207468697320696e74657260448201526e199858d9481a5cc81a5b9d985b1a59608a1b606482015260840160405180910390fd5b6001600160e01b0319166000908152602081905260409020805460ff19166001179055565b634e487b7160e01b600052604160045260246000fd5b600082601f8301126101bc57600080fd5b81516001600160401b038111156101d5576101d5610195565b604051601f8201601f19908116603f011681016001600160401b038111828210171561020357610203610195565b60405281815283820160200185101561021b57600080fd5b60005b8281101561023a5760208186018101518383018201520161021e565b506000918101602001919091529392505050565b6000806040838503121561026157600080fd5b82516001600160401b0381111561027757600080fd5b610283858286016101ab565b602085015190935090506001600160401b038111156102a157600080fd5b6102ad858286016101ab565b9150509250929050565b600181811c908216806102cb57607f821691505b6020821081036102eb57634e487b7160e01b600052602260045260246000fd5b50919050565b601f82111561033b57806000526020600020601f840160051c810160208510156103185750805b601f840160051c820191505b818110156103385760008155600101610324565b50505b505050565b81516001600160401b0381111561035957610359610195565b61036d8161036784546102b7565b846102f1565b6020601f8211600181146103a157600083156103895750848201515b600019600385901b1c1916600184901b178455610338565b600084815260208120601f198516915b828110156103d157878501518255602094850194600190920191016103b1565b50848210156103ef5786840151600019600387901b60f8161c191681555b50505050600190811b01905550565b610ed68061040d6000396000f3fe608060405234801561001057600080fd5b50600436106100cf5760003560e01c806323b872dd1161008c5780634f6ccce7116100665780634f6ccce7146101d65780636352211e146101e957806370a08231146101fc57806395d89b411461020f57600080fd5b806323b872dd146101905780632f745c59146101a35780633c99e2e9146101b657600080fd5b806301ffc9a7146100d4578063068417d91461011657806306fdde031461012b578063081812fc14610140578063095ea7b31461016b57806318160ddd1461017e575b600080fd5b6101016100e2366004610c68565b6001600160e01b03191660009081526020819052604090205460ff1690565b60405190151581526020015b60405180910390f35b610129610124366004610c68565b610217565b005b6101336102b3565b60405161010d9190610c99565b61015361014e366004610ce7565b610345565b6040516001600160a01b03909116815260200161010d565b610129610179366004610d1c565b6103d7565b6006545b60405190815260200161010d565b61012961019e366004610d46565b61051b565b6101826101b1366004610d1c565b61053f565b6101c96101c4366004610d83565b610669565b60405161010d9190610d9e565b6101826101e4366004610ce7565b6106d5565b6101536101f7366004610ce7565b610764565b61018261020a366004610d83565b6107d7565b610133610860565b6001600160e01b0319808216900361028e5760405162461bcd60e51b815260206004820152602f60248201527f4552433136353a20616464496e746572666163653a207468697320696e74657260448201526e199858d9481a5cc81a5b9d985b1a59608a1b60648201526084015b60405180910390fd5b6001600160e01b0319166000908152602081905260409020805460ff19166001179055565b6060600180546102c290610de1565b80601f01602080910402602001604051908101604052809291908181526020018280546102ee90610de1565b801561033b5780601f106103105761010080835404028352916020019161033b565b820191906000526020600020905b81548152906001019060200180831161031e57829003601f168201915b5050505050905090565b6000818152600360205260408120546001600160a01b03166103bb5760405162461bcd60e51b815260206004820152602960248201527f4552433732313a20676574417070726f7665643a20746f6b656e20646f6573206044820152681b9bdd08195e1a5cdd60ba1b6064820152608401610285565b506000908152600560205260409020546001600160a01b031690565b60006103e282610764565b9050806001600160a01b0316836001600160a01b0316036104555760405162461bcd60e51b815260206004820152602760248201527f4552433732313a20617070726f766520746f206f776e6572206973206e6f7420604482015266185b1b1bddd95960ca1b6064820152608401610285565b336001600160a01b038216146104bf5760405162461bcd60e51b815260206004820152602960248201527f4552433732313a20617070726f76652063616c6c6572206973206e6f7420746f60448201526835b2b71037bbb732b960b91b6064820152608401610285565b60008281526005602052604080822080546001600160a01b0319166001600160a01b0387811691821790925591518593918516917f8c5be1e5ebec7d5bd14f71427d1e84f3dd0314c0f7b2291e5b200ac8c7c3b92591a4505050565b61052683838361086f565b6105308382610af8565b61053a8282610c18565b505050565b60006001600160a01b0383166105ac5760405162461bcd60e51b815260206004820152602c60248201527f4552433732313a20746f6b656e4f664f776e65724279496e6465783a20696e7660448201526b616c6964206164647265737360a01b6064820152608401610285565b6001600160a01b038316600090815260086020526040902054821061062b5760405162461bcd60e51b815260206004820152602f60248201527f4552433732313a20746f6b656e4f664f776e65724279496e6465783a20696e6460448201526e6578206f7574206f662072616e676560881b6064820152608401610285565b6001600160a01b038316600090815260086020526040902080548390811061065557610655610e1b565b906000526020600020015490505b92915050565b6001600160a01b0381166000908152600860209081526040918290208054835181840281018401909452808452606093928301828280156106c957602002820191906000526020600020905b8154815260200190600101908083116106b5575b50505050509050919050565b60006106e060065490565b821061073f5760405162461bcd60e51b815260206004820152602860248201527f4552433732313a20746f6b656e4279496e6465783a20696e646578206f7574206044820152676f662072616e676560c01b6064820152608401610285565b6006828154811061075257610752610e1b565b90600052602060002001549050919050565b6000818152600360205260408120546001600160a01b0316806106635760405162461bcd60e51b815260206004820152602560248201527f4552433732313a206f776e65724f663a20746f6b656e20646f6573206e6f7420604482015264195e1a5cdd60da1b6064820152608401610285565b60006001600160a01b0382166108445760405162461bcd60e51b815260206004820152602c60248201527f4552433732313a2062616c616e63654f663a2061646472657373207a65726f2060448201526b1a5cc81b9bdd081d985b1a5960a21b6064820152608401610285565b506001600160a01b031660009081526004602052604090205490565b6060600280546102c290610de1565b6001600160a01b0383166108d85760405162461bcd60e51b815260206004820152602a60248201527f4552433732313a207472616e7366657246726f6d3a20696e76616c69642066726044820152696f6d206164647265737360b01b6064820152608401610285565b6001600160a01b03821661093f5760405162461bcd60e51b815260206004820152602860248201527f4552433732313a207472616e7366657246726f6d3a20696e76616c696420746f604482015267206164647265737360c01b6064820152608401610285565b6000818152600360205260409020546001600160a01b03166109b65760405162461bcd60e51b815260206004820152602a60248201527f4552433732313a207472616e7366657246726f6d3a20746f6b656e20646f6573604482015269081b9bdd08195e1a5cdd60b21b6064820152608401610285565b826001600160a01b03166109c982610764565b6001600160a01b031614610a3e5760405162461bcd60e51b815260206004820152603660248201527f4552433732313a207472616e7366657246726f6d3a2063616c6c6572206973206044820152753737ba1037bbb732b91037b3103a3432903a37b5b2b760511b6064820152608401610285565b600081815260036020908152604080832080546001600160a01b0319166001600160a01b03878116919091179091558616835260049091528120805491610a8483610e47565b90915550506001600160a01b0382166000908152600460205260408120805491610aad83610e5e565b919050555080826001600160a01b0316846001600160a01b03167fddf252ad1be2c89b69c2b068fc378daa952ba7f163c4a11628f55a4df523b3ef60405160405180910390a4505050565b6000818152600960209081526040808320546001600160a01b03861684526008909252822054909190610b2d90600190610e77565b9050808214610bc4576001600160a01b0384166000908152600860205260408120805483908110610b6057610b60610e1b565b906000526020600020015490508060086000876001600160a01b03166001600160a01b031681526020019081526020016000208481548110610ba457610ba4610e1b565b600091825260208083209091019290925591825260099052604090208290555b6001600160a01b0384166000908152600860205260409020805480610beb57610beb610e8a565b60008281526020808220830160001990810183905590920190925593815260099093525050604081205550565b6001600160a01b0382166000818152600860209081526040822080546001818101835582855292842001859055929091529054610c559190610e77565b6000918252600960205260409091205550565b600060208284031215610c7a57600080fd5b81356001600160e01b031981168114610c9257600080fd5b9392505050565b602081526000825180602084015260005b81811015610cc75760208186018101516040868401015201610caa565b506000604082850101526040601f19601f83011684010191505092915050565b600060208284031215610cf957600080fd5b5035919050565b80356001600160a01b0381168114610d1757600080fd5b919050565b60008060408385031215610d2f57600080fd5b610d3883610d00565b946020939093013593505050565b600080600060608486031215610d5b57600080fd5b610d6484610d00565b9250610d7260208501610d00565b929592945050506040919091013590565b600060208284031215610d9557600080fd5b610c9282610d00565b602080825282518282018190526000918401906040840190835b81811015610dd6578351835260209384019390920191600101610db8565b509095945050505050565b600181811c90821680610df557607f821691505b602082108103610e1557634e487b7160e01b600052602260045260246000fd5b50919050565b634e487b7160e01b600052603260045260246000fd5b634e487b7160e01b600052601160045260246000fd5b600081610e5657610e56610e31565b506000190190565b600060018201610e7057610e70610e31565b5060010190565b8181038181111561066357610663610e31565b634e487b7160e01b600052603160045260246000fdfea2646970667358221220458170a9d2e64ba4b959a605f29b314e32196cafb26b345aca0930b1d0571c5a64736f6c634300081c0033",
  "immutableReferences": {},
  "source": "// SPDX-License-Identifier: MIT\r\npragma solidity ^0.8.0;\r\n\r\nimport './ERC721Metadata.sol';\r\nimport './ERC721Enumerable.sol';\r\n\r\ncontract ERC721Connector is ERC721Metadata, ERC721Enumerable {\r\n\r\n    /**\r\n     * @dev Constructor that initializes the ERC721Metadata contract\r\n     * and the ERC721Enumerable contract with the provided `name` and `symbol`.\r\n     * @param name The name of the token collection.\r\n     * @param symbol The symbol of the token collection.\r\n     */\r\n    constructor(string memory name, string memory symbol) ERC721Metadata(name, symbol) {\r\n        // No additional logic needed for now\r\n    }\r\n}\r\n",
  "sourcePath": "C:\\Users\\pavan\\OneDrive\\Desktop\\codes\\Projects\\BrainStorm_NITSilchar_FlipkartGrid4.0\\NFT\\src\\contracts\\ERC721Connector.sol",
  "compiler": {
    "name": "solc",
    "version": "0.8.28+commit.7893614a.Emscripten.clang"
  },
  "schemaVersion": "3.4.16",
  "updatedAt": "2024-12-15T07:25:47.408Z",
  "devdoc": {
    "events": {
      "Approval(address,address,uint256)": {
        "details": "The zero address indicates there is no approved address.",
        "params": {
          "_approved": "The address that is approved",
          "_owner": "The owner of the token",
          "_tokenId": "The identifier of the token approved"
        }
      },
      "Transfer(address,address,uint256)": {
        "details": "This event emits when NFTs are transferred, including zero value transfers.",
        "params": {
          "_from": "The address of the previous owner of the token",
          "_to": "The address of the new owner of the token",
          "_tokenId": "The identifier of the token transferred"
        }
      }
    },
    "kind": "dev",
    "methods": {
      "_registerInterface(bytes4)": {
        "details": "Registers an interface to be supported by the contract.",
        "params": {
          "interfaceID": "The interface ID to register."
        }
      },
      "allTokensOfOwner(address)": {
        "details": "Returns the list of all tokens owned by the specified address.",
        "params": {
          "_owner": "The address to query."
        },
        "returns": {
          "_0": "uint256[] An array of token IDs owned by `_owner`."
        }
      },
      "approve(address,uint256)": {
        "details": "Approves another address to transfer a specific token on behalf of the owner.",
        "params": {
          "to": "The address to be approved.",
          "tokenId": "The token ID to approve."
        }
      },
      "balanceOf(address)": {
        "details": "Returns the number of tokens owned by the given address.",
        "params": {
          "_owner": "The address to query the balance of."
        },
        "returns": {
          "_0": "uint256 The number of tokens owned by `_owner`."
        }
      },
      "constructor": {
        "details": "Constructor that initializes the ERC721Metadata contract and the ERC721Enumerable contract with the provided `name` and `symbol`.",
        "params": {
          "name": "The name of the token collection.",
          "symbol": "The symbol of the token collection."
        }
      },
      "getApproved(uint256)": {
        "details": "Returns the address approved to transfer a specific token.",
        "params": {
          "tokenId": "The token ID to query the approval of."
        },
        "returns": {
          "_0": "address The approved address, or zero if no address is approved."
        }
      },
      "name()": {
        "details": "Returns the name of the token collection.",
        "returns": {
          "_0": "string The name of the token."
        }
      },
      "ownerOf(uint256)": {
        "details": "Returns the owner of the given token ID.",
        "params": {
          "_tokenId": "The token ID to query the owner of."
        },
        "returns": {
          "_0": "address The address that owns the token."
        }
      },
      "supportsInterface(bytes4)": {
        "details": "Checks if a given interface is supported.",
        "params": {
          "interfaceID": "The interface ID to check for support."
        },
        "returns": {
          "_0": "bool Whether the interface is supported."
        }
      },
      "symbol()": {
        "details": "Returns the symbol of the token collection.",
        "returns": {
          "_0": "string The symbol of the token."
        }
      },
      "tokenByIndex(uint256)": {
        "details": "Returns the token ID at a specific index in the global token list.",
        "params": {
          "index": "The index to query."
        },
        "returns": {
          "_0": "uint256 The token ID at the specified index."
        }
      },
      "tokenOfOwnerByIndex(address,uint256)": {
        "details": "Returns the token ID at a specific index in the owner's token list.",
        "params": {
          "index": "The index to query.",
          "owner": "The owner of the tokens."
        },
        "returns": {
          "_0": "uint256 The token ID at the specified index."
        }
      },
      "totalSupply()": {
        "details": "Returns the total supply of tokens.",
        "returns": {
          "_0": "uint256 The total supply of tokens."
        }
      },
      "transferFrom(address,address,uint256)": {
        "details": "Transfers a token and updates the enumerations for both the sender and receiver.",
        "params": {
          "from": "The address to transfer the token from.",
          "to": "The address to transfer the token to.",
          "tokenId": "The ID of the token to transfer."
        }
      }
    },
    "version": 1
  },
  "userdoc": {
    "events": {
      "Approval(address,address,uint256)": {
        "notice": "This emits when the approved address for an NFT is changed or reaffirmed."
      },
      "Transfer(address,address,uint256)": {
        "notice": "This emits when ownership of any NFT changes by any mechanism."
      }
    },
    "kind": "user",
    "methods": {},
    "version": 1
  }
}