{
  "contractName": "ERC721Connector",
  "abi": [
    {
      "inputs": [
        {
          "internalType": "string",
          "name": "name",
          "type": "string"
        },
        {
          "internalType": "string",
          "name": "symbol",
          "type": "string"
        }
      ],
      "stateMutability": "nonpayable",
      "type": "constructor"
    },
    {
      "anonymous": false,
      "inputs": [
        {
          "indexed": true,
          "internalType": "address",
          "name": "_owner",
          "type": "address"
        },
        {
          "indexed": true,
          "internalType": "address",
          "name": "_approved",
          "type": "address"
        },
        {
          "indexed": true,
          "internalType": "uint256",
          "name": "_tokenId",
          "type": "uint256"
        }
      ],
      "name": "Approval",
      "type": "event"
    },
    {
      "anonymous": false,
      "inputs": [
        {
          "indexed": true,
          "internalType": "address",
          "name": "_from",
          "type": "address"
        },
        {
          "indexed": true,
          "internalType": "address",
          "name": "_to",
          "type": "address"
        },
        {
          "indexed": true,
          "internalType": "uint256",
          "name": "_tokenId",
          "type": "uint256"
        }
      ],
      "name": "Transfer",
      "type": "event"
    },
    {
      "inputs": [
        {
          "internalType": "uint256",
          "name": "tokenId",
          "type": "uint256"
        }
      ],
      "name": "_addTokensToAllTokensEnumeration",
      "outputs": [],
      "stateMutability": "nonpayable",
      "type": "function"
    },
    {
      "inputs": [
        {
          "internalType": "address",
          "name": "to",
          "type": "address"
        },
        {
          "internalType": "uint256",
          "name": "tokenId",
          "type": "uint256"
        }
      ],
      "name": "_addTokensToOwnerEnumeration",
      "outputs": [],
      "stateMutability": "nonpayable",
      "type": "function"
    },
    {
      "inputs": [
        {
          "internalType": "uint256",
          "name": "tokenId",
          "type": "uint256"
        }
      ],
      "name": "_exists",
      "outputs": [
        {
          "internalType": "bool",
          "name": "",
          "type": "bool"
        }
      ],
      "stateMutability": "view",
      "type": "function"
    },
    {
      "inputs": [
        {
          "internalType": "bytes4",
          "name": "interfaceID",
          "type": "bytes4"
        }
      ],
      "name": "_registerInterface",
      "outputs": [],
      "stateMutability": "nonpayable",
      "type": "function"
    },
    {
      "inputs": [
        {
          "internalType": "address",
          "name": "from",
          "type": "address"
        },
        {
          "internalType": "uint256",
          "name": "tokenId",
          "type": "uint256"
        }
      ],
      "name": "_removeTokensFromOwnerEnumeration",
      "outputs": [],
      "stateMutability": "nonpayable",
      "type": "function"
    },
    {
      "inputs": [
        {
          "internalType": "address",
          "name": "_owner",
          "type": "address"
        }
      ],
      "name": "allTokensOfOwner",
      "outputs": [
        {
          "internalType": "uint256[]",
          "name": "",
          "type": "uint256[]"
        }
      ],
      "stateMutability": "view",
      "type": "function"
    },
    {
      "inputs": [
        {
          "internalType": "address",
          "name": "_owner",
          "type": "address"
        }
      ],
      "name": "balanceOf",
      "outputs": [
        {
          "internalType": "uint256",
          "name": "",
          "type": "uint256"
        }
      ],
      "stateMutability": "view",
      "type": "function"
    },
    {
      "inputs": [],
      "name": "name",
      "outputs": [
        {
          "internalType": "string",
          "name": "",
          "type": "string"
        }
      ],
      "stateMutability": "view",
      "type": "function"
    },
    {
      "inputs": [
        {
          "internalType": "uint256",
          "name": "_tokenId",
          "type": "uint256"
        }
      ],
      "name": "ownerOf",
      "outputs": [
        {
          "internalType": "address",
          "name": "",
          "type": "address"
        }
      ],
      "stateMutability": "view",
      "type": "function"
    },
    {
      "inputs": [
        {
          "internalType": "bytes4",
          "name": "interfaceID",
          "type": "bytes4"
        }
      ],
      "name": "supportsInterface",
      "outputs": [
        {
          "internalType": "bool",
          "name": "",
          "type": "bool"
        }
      ],
      "stateMutability": "view",
      "type": "function"
    },
    {
      "inputs": [],
      "name": "symbol",
      "outputs": [
        {
          "internalType": "string",
          "name": "",
          "type": "string"
        }
      ],
      "stateMutability": "view",
      "type": "function"
    },
    {
      "inputs": [
        {
          "internalType": "uint256",
          "name": "index",
          "type": "uint256"
        }
      ],
      "name": "tokenByIndex",
      "outputs": [
        {
          "internalType": "uint256",
          "name": "",
          "type": "uint256"
        }
      ],
      "stateMutability": "view",
      "type": "function"
    },
    {
      "inputs": [
        {
          "internalType": "address",
          "name": "owner",
          "type": "address"
        },
        {
          "internalType": "uint256",
          "name": "index",
          "type": "uint256"
        }
      ],
      "name": "tokenOfOwnerByIndex",
      "outputs": [
        {
          "internalType": "uint256",
          "name": "",
          "type": "uint256"
        }
      ],
      "stateMutability": "view",
      "type": "function"
    },
    {
      "inputs": [],
      "name": "totalSupply",
      "outputs": [
        {
          "internalType": "uint256",
          "name": "",
          "type": "uint256"
        }
      ],
      "stateMutability": "view",
      "type": "function"
    },
    {
      "inputs": [
        {
          "internalType": "address",
          "name": "from",
          "type": "address"
        },
        {
          "internalType": "address",
          "name": "to",
          "type": "address"
        },
        {
          "internalType": "uint256",
          "name": "tokenId",
          "type": "uint256"
        }
      ],
      "name": "transferFrom",
      "outputs": [],
      "stateMutability": "nonpayable",
      "type": "function"
    }
  ],
  "bytecode": "0x60806040523480156200001157600080fd5b506040516200249238038062002492833981810160405281019062000037919062000449565b81816200006a7f01ffc9a7a5cef8baa21ed3c5c0d7e23accb804b619e9333b597f47a0d84076e2620001d560201b60201c565b620000bd7f95d89b41e2f5f391a79ec54e9d87c79d6e777c63e32c28da95b4e9e4a79250ec7f06fdde0383f15d582d1a74511486c9ddf862a882fb7904b3d9fe9b8b8e58a79618620001d560201b60201c565b8160019081620000ce919062000719565b508060029081620000e0919062000719565b505050620001587f23b872dd7302113369cda2901243429419bec145408fa8b352b3dd92b66c680b7f6352211e6566aa027e75ac9dbf2423197fbd9b82b9d981a3ab367d355866aa1c7f70a08231b98ef4ca268c9cc3f6b4590e4bfec28280db06bb5d45e689f2a360be1818620001d560201b60201c565b620001cd7f2f745c59a57ba1667616e5a9707eeaa36ec97c283ee24190b75d9c8d14bcb2157f4f6ccce7c41aed90ec1f1887c4a821594c0f73758d8941d0ccaa2cde813b72987f18160ddd7f15c72528c2f94fd8dfe3c8d5aa26e2c50c7d81f4bc7bee8d4b79321818620001d560201b60201c565b5050620008a9565b63ffffffff60e01b817bffffffffffffffffffffffffffffffffffffffffffffffffffffffff19160362000240576040517f08c379a0000000000000000000000000000000000000000000000000000000008152600401620002379062000887565b60405180910390fd5b6001600080837bffffffffffffffffffffffffffffffffffffffffffffffffffffffff19167bffffffffffffffffffffffffffffffffffffffffffffffffffffffff1916815260200190815260200160002060006101000a81548160ff02191690831515021790555050565b6000604051905090565b600080fd5b600080fd5b600080fd5b600080fd5b6000601f19601f8301169050919050565b7f4e487b7100000000000000000000000000000000000000000000000000000000600052604160045260246000fd5b6200031582620002ca565b810181811067ffffffffffffffff82111715620003375762000336620002db565b5b80604052505050565b60006200034c620002ac565b90506200035a82826200030a565b919050565b600067ffffffffffffffff8211156200037d576200037c620002db565b5b6200038882620002ca565b9050602081019050919050565b60005b83811015620003b557808201518184015260208101905062000398565b83811115620003c5576000848401525b50505050565b6000620003e2620003dc846200035f565b62000340565b905082815260208101848484011115620004015762000400620002c5565b5b6200040e84828562000395565b509392505050565b600082601f8301126200042e576200042d620002c0565b5b815162000440848260208601620003cb565b91505092915050565b60008060408385031215620004635762000462620002b6565b5b600083015167ffffffffffffffff811115620004845762000483620002bb565b5b620004928582860162000416565b925050602083015167ffffffffffffffff811115620004b657620004b5620002bb565b5b620004c48582860162000416565b9150509250929050565b600081519050919050565b7f4e487b7100000000000000000000000000000000000000000000000000000000600052602260045260246000fd5b600060028204905060018216806200052157607f821691505b602082108103620005375762000536620004d9565b5b50919050565b60008190508160005260206000209050919050565b60006020601f8301049050919050565b600082821b905092915050565b600060088302620005a17fffffffffffffffffffffffffffffffffffffffffffffffffffffffffffffffff8262000562565b620005ad868362000562565b95508019841693508086168417925050509392505050565b6000819050919050565b6000819050919050565b6000620005fa620005f4620005ee84620005c5565b620005cf565b620005c5565b9050919050565b6000819050919050565b6200061683620005d9565b6200062e620006258262000601565b8484546200056f565b825550505050565b600090565b6200064562000636565b620006528184846200060b565b505050565b5b818110156200067a576200066e6000826200063b565b60018101905062000658565b5050565b601f821115620006c95762000693816200053d565b6200069e8462000552565b81016020851015620006ae578190505b620006c6620006bd8562000552565b83018262000657565b50505b505050565b600082821c905092915050565b6000620006ee60001984600802620006ce565b1980831691505092915050565b6000620007098383620006db565b9150826002028217905092915050565b6200072482620004ce565b67ffffffffffffffff81111562000740576200073f620002db565b5b6200074c825462000508565b620007598282856200067e565b600060209050601f8311600181146200079157600084156200077c578287015190505b620007888582620006fb565b865550620007f8565b601f198416620007a1866200053d565b60005b82811015620007cb57848901518255600182019150602085019450602081019050620007a4565b86831015620007eb5784890151620007e7601f891682620006db565b8355505b6001600288020188555050505b505050505050565b600082825260208201905092915050565b7f4552433136353a20616464496e746572666163653a207468697320696e74657260008201527f6661636520697320696e76616c69640000000000000000000000000000000000602082015250565b60006200086f602f8362000800565b91506200087c8262000811565b604082019050919050565b60006020820190508181036000830152620008a28162000860565b9050919050565b611bd980620008b96000396000f3fe608060405234801561001057600080fd5b50600436106100f55760003560e01c80634f6ccce71161009757806395d89b411161006657806395d89b41146102aa578063a69c7001146102c8578063c7ae6b57146102e4578063f8e76cc014610300576100f5565b80634f6ccce7146101fe5780636352211e1461022e5780636f1a11ec1461025e57806370a082311461027a576100f5565b806318160ddd116100d357806318160ddd1461016457806323b872dd146101825780632f745c591461019e5780633c99e2e9146101ce576100f5565b806301ffc9a7146100fa578063068417d91461012a57806306fdde0314610146575b600080fd5b610114600480360381019061010f91906110a0565b610330565b60405161012191906110e8565b60405180910390f35b610144600480360381019061013f91906110a0565b610397565b005b61014e61046b565b60405161015b919061119c565b60405180910390f35b61016c6104fd565b60405161017991906111d7565b60405180910390f35b61019c6004803603810190610197919061127c565b61050a565b005b6101b860048036038101906101b391906112cf565b61052e565b6040516101c591906111d7565b60405180910390f35b6101e860048036038101906101e3919061130f565b61068c565b6040516101f591906113fa565b60405180910390f35b6102186004803603810190610213919061141c565b610723565b60405161022591906111d7565b60405180910390f35b6102486004803603810190610243919061141c565b610794565b6040516102559190611458565b60405180910390f35b610278600480360381019061027391906112cf565b610845565b005b610294600480360381019061028f919061130f565b610a71565b6040516102a191906111d7565b60405180910390f35b6102b2610b28565b6040516102bf919061119c565b60405180910390f35b6102e260048036038101906102dd91906112cf565b610bba565b005b6102fe60048036038101906102f9919061141c565b610c8a565b005b61031a6004803603810190610315919061141c565b610cdf565b60405161032791906110e8565b60405180910390f35b6000806000837bffffffffffffffffffffffffffffffffffffffffffffffffffffffff19167bffffffffffffffffffffffffffffffffffffffffffffffffffffffff1916815260200190815260200160002060009054906101000a900460ff169050919050565b63ffffffff60e01b817bffffffffffffffffffffffffffffffffffffffffffffffffffffffff1916036103ff576040517f08c379a00000000000000000000000000000000000000000000000000000000081526004016103f6906114e5565b60405180910390fd5b6001600080837bffffffffffffffffffffffffffffffffffffffffffffffffffffffff19167bffffffffffffffffffffffffffffffffffffffffffffffffffffffff1916815260200190815260200160002060006101000a81548160ff02191690831515021790555050565b60606001805461047a90611534565b80601f01602080910402602001604051908101604052809291908181526020018280546104a690611534565b80156104f35780601f106104c8576101008083540402835291602001916104f3565b820191906000526020600020905b8154815290600101906020018083116104d657829003601f168201915b5050505050905090565b6000600680549050905090565b610515838383610d4b565b61051f8382610845565b6105298282610bba565b505050565b60008073ffffffffffffffffffffffffffffffffffffffff168373ffffffffffffffffffffffffffffffffffffffff160361059e576040517f08c379a0000000000000000000000000000000000000000000000000000000008152600401610595906115d7565b60405180910390fd5b600860008473ffffffffffffffffffffffffffffffffffffffff1673ffffffffffffffffffffffffffffffffffffffff168152602001908152602001600020805490508210610622576040517f08c379a0000000000000000000000000000000000000000000000000000000008152600401610619906115d7565b60405180910390fd5b6000600860008573ffffffffffffffffffffffffffffffffffffffff1673ffffffffffffffffffffffffffffffffffffffff1681526020019081526020016000208381548110610675576106746115f7565b5b906000526020600020015490508091505092915050565b6060600860008373ffffffffffffffffffffffffffffffffffffffff1673ffffffffffffffffffffffffffffffffffffffff16815260200190815260200160002080548060200260200160405190810160405280929190818152602001828054801561071757602002820191906000526020600020905b815481526020019060010190808311610703575b50505050509050919050565b600061072d6104fd565b821061076e576040517f08c379a000000000000000000000000000000000000000000000000000000000815260040161076590611698565b60405180910390fd5b60068281548110610782576107816115f7565b5b90600052602060002001549050919050565b6000806003600084815260200190815260200160002060009054906101000a900473ffffffffffffffffffffffffffffffffffffffff169050600073ffffffffffffffffffffffffffffffffffffffff168173ffffffffffffffffffffffffffffffffffffffff160361083c576040517f08c379a00000000000000000000000000000000000000000000000000000000081526004016108339061172a565b60405180910390fd5b80915050919050565b60006009600083815260200190815260200160002054905060008190505b6001600860008673ffffffffffffffffffffffffffffffffffffffff1673ffffffffffffffffffffffffffffffffffffffff168152602001908152602001600020805490506108b29190611779565b811015610a0657600860008573ffffffffffffffffffffffffffffffffffffffff1673ffffffffffffffffffffffffffffffffffffffff16815260200190815260200160002060018261090591906117ad565b81548110610916576109156115f7565b5b9060005260206000200154600860008673ffffffffffffffffffffffffffffffffffffffff1673ffffffffffffffffffffffffffffffffffffffff1681526020019081526020016000208281548110610972576109716115f7565b5b90600052602060002001819055508060096000600860008873ffffffffffffffffffffffffffffffffffffffff1673ffffffffffffffffffffffffffffffffffffffff16815260200190815260200160002084815481106109d6576109d56115f7565b5b906000526020600020015481526020019081526020016000208190555080806109fe90611803565b915050610863565b50600860008473ffffffffffffffffffffffffffffffffffffffff1673ffffffffffffffffffffffffffffffffffffffff168152602001908152602001600020805480610a5657610a5561184b565b5b60019003818190600052602060002001600090559055505050565b60008073ffffffffffffffffffffffffffffffffffffffff168273ffffffffffffffffffffffffffffffffffffffff1603610ae1576040517f08c379a0000000000000000000000000000000000000000000000000000000008152600401610ad8906118ec565b60405180910390fd5b600460008373ffffffffffffffffffffffffffffffffffffffff1673ffffffffffffffffffffffffffffffffffffffff168152602001908152602001600020549050919050565b606060028054610b3790611534565b80601f0160208091040260200160405190810160405280929190818152602001828054610b6390611534565b8015610bb05780601f10610b8557610100808354040283529160200191610bb0565b820191906000526020600020905b815481529060010190602001808311610b9357829003601f168201915b5050505050905090565b600860008373ffffffffffffffffffffffffffffffffffffffff1673ffffffffffffffffffffffffffffffffffffffff1681526020019081526020016000208190806001815401808255809150506001900390600052602060002001600090919091909150556001600860008473ffffffffffffffffffffffffffffffffffffffff1673ffffffffffffffffffffffffffffffffffffffff16815260200190815260200160002080549050610c6f9190611779565b60096000838152602001908152602001600020819055505050565b60068190806001815401808255809150506001900390600052602060002001600090919091909150556001600680549050610cc59190611779565b600760008381526020019081526020016000208190555050565b60008073ffffffffffffffffffffffffffffffffffffffff166003600084815260200190815260200160002060009054906101000a900473ffffffffffffffffffffffffffffffffffffffff1673ffffffffffffffffffffffffffffffffffffffff1614159050919050565b600073ffffffffffffffffffffffffffffffffffffffff168373ffffffffffffffffffffffffffffffffffffffff1603610dba576040517f08c379a0000000000000000000000000000000000000000000000000000000008152600401610db19061197e565b60405180910390fd5b600073ffffffffffffffffffffffffffffffffffffffff168273ffffffffffffffffffffffffffffffffffffffff1603610e29576040517f08c379a0000000000000000000000000000000000000000000000000000000008152600401610e2090611a10565b60405180910390fd5b610e3281610cdf565b610e71576040517f08c379a0000000000000000000000000000000000000000000000000000000008152600401610e6890611aa2565b60405180910390fd5b8273ffffffffffffffffffffffffffffffffffffffff16610e9182610794565b73ffffffffffffffffffffffffffffffffffffffff1614610ee7576040517f08c379a0000000000000000000000000000000000000000000000000000000008152600401610ede90611b5a565b60405180910390fd5b816003600083815260200190815260200160002060006101000a81548173ffffffffffffffffffffffffffffffffffffffff021916908373ffffffffffffffffffffffffffffffffffffffff160217905550600460008473ffffffffffffffffffffffffffffffffffffffff1673ffffffffffffffffffffffffffffffffffffffff1681526020019081526020016000206000815480929190610f8990611b7a565b9190505550600460008373ffffffffffffffffffffffffffffffffffffffff1673ffffffffffffffffffffffffffffffffffffffff1681526020019081526020016000206000815480929190610fde90611803565b9190505550808273ffffffffffffffffffffffffffffffffffffffff168473ffffffffffffffffffffffffffffffffffffffff167fddf252ad1be2c89b69c2b068fc378daa952ba7f163c4a11628f55a4df523b3ef60405160405180910390a4505050565b600080fd5b60007fffffffff0000000000000000000000000000000000000000000000000000000082169050919050565b61107d81611048565b811461108857600080fd5b50565b60008135905061109a81611074565b92915050565b6000602082840312156110b6576110b5611043565b5b60006110c48482850161108b565b91505092915050565b60008115159050919050565b6110e2816110cd565b82525050565b60006020820190506110fd60008301846110d9565b92915050565b600081519050919050565b600082825260208201905092915050565b60005b8381101561113d578082015181840152602081019050611122565b8381111561114c576000848401525b50505050565b6000601f19601f8301169050919050565b600061116e82611103565b611178818561110e565b935061118881856020860161111f565b61119181611152565b840191505092915050565b600060208201905081810360008301526111b68184611163565b905092915050565b6000819050919050565b6111d1816111be565b82525050565b60006020820190506111ec60008301846111c8565b92915050565b600073ffffffffffffffffffffffffffffffffffffffff82169050919050565b600061121d826111f2565b9050919050565b61122d81611212565b811461123857600080fd5b50565b60008135905061124a81611224565b92915050565b611259816111be565b811461126457600080fd5b50565b60008135905061127681611250565b92915050565b60008060006060848603121561129557611294611043565b5b60006112a38682870161123b565b93505060206112b48682870161123b565b92505060406112c586828701611267565b9150509250925092565b600080604083850312156112e6576112e5611043565b5b60006112f48582860161123b565b925050602061130585828601611267565b9150509250929050565b60006020828403121561132557611324611043565b5b60006113338482850161123b565b91505092915050565b600081519050919050565b600082825260208201905092915050565b6000819050602082019050919050565b611371816111be565b82525050565b60006113838383611368565b60208301905092915050565b6000602082019050919050565b60006113a78261133c565b6113b18185611347565b93506113bc83611358565b8060005b838110156113ed5781516113d48882611377565b97506113df8361138f565b9250506001810190506113c0565b5085935050505092915050565b60006020820190508181036000830152611414818461139c565b905092915050565b60006020828403121561143257611431611043565b5b600061144084828501611267565b91505092915050565b61145281611212565b82525050565b600060208201905061146d6000830184611449565b92915050565b7f4552433136353a20616464496e746572666163653a207468697320696e74657260008201527f6661636520697320696e76616c69640000000000000000000000000000000000602082015250565b60006114cf602f8361110e565b91506114da82611473565b604082019050919050565b600060208201905081810360008301526114fe816114c2565b9050919050565b7f4e487b7100000000000000000000000000000000000000000000000000000000600052602260045260246000fd5b6000600282049050600182168061154c57607f821691505b60208210810361155f5761155e611505565b5b50919050565b7f4552433732313a20746f6b656e4f664f776e65724279496e6465783a2063616c60008201527f6c6572206973206e6f7420616c6c6f77656420746f206265206e756c6c000000602082015250565b60006115c1603d8361110e565b91506115cc82611565565b604082019050919050565b600060208201905081810360008301526115f0816115b4565b9050919050565b7f4e487b7100000000000000000000000000000000000000000000000000000000600052603260045260246000fd5b7f4552433732313a20746f6b656e4279496e6465783a20696e646578206f75742060008201527f6f662072616e6765000000000000000000000000000000000000000000000000602082015250565b600061168260288361110e565b915061168d82611626565b604082019050919050565b600060208201905081810360008301526116b181611675565b9050919050565b7f4552433732313a206f776e65724f663a2063616c6c6572206973206e6f74206160008201527f6c6c6f77656420746f206265206e756c6c000000000000000000000000000000602082015250565b600061171460318361110e565b915061171f826116b8565b604082019050919050565b6000602082019050818103600083015261174381611707565b9050919050565b7f4e487b7100000000000000000000000000000000000000000000000000000000600052601160045260246000fd5b6000611784826111be565b915061178f836111be565b9250828210156117a2576117a161174a565b5b828203905092915050565b60006117b8826111be565b91506117c3836111be565b9250827fffffffffffffffffffffffffffffffffffffffffffffffffffffffffffffffff038211156117f8576117f761174a565b5b828201905092915050565b600061180e826111be565b91507fffffffffffffffffffffffffffffffffffffffffffffffffffffffffffffffff82036118405761183f61174a565b5b600182019050919050565b7f4e487b7100000000000000000000000000000000000000000000000000000000600052603160045260246000fd5b7f4552433732313a2062616c616e63654f663a2063616c6c6572206973206e6f7460008201527f20616c6c6f77656420746f206265206e756c6c00000000000000000000000000602082015250565b60006118d660338361110e565b91506118e18261187a565b604082019050919050565b60006020820190508181036000830152611905816118c9565b9050919050565b7f4552433732313a207472616e7366657246726f6d3a2063616c6c65722069732060008201527f6e6f7420616c6c6f77656420746f206265206e756c6c00000000000000000000602082015250565b600061196860368361110e565b91506119738261190c565b604082019050919050565b600060208201905081810360008301526119978161195b565b9050919050565b7f4552433732313a207472616e7366657246726f6d3a20746f206164647265737360008201527f20697320696e76616c6964000000000000000000000000000000000000000000602082015250565b60006119fa602b8361110e565b9150611a058261199e565b604082019050919050565b60006020820190508181036000830152611a29816119ed565b9050919050565b7f4552433732313a207472616e7366657246726f6d3a20746f6b656e496420646f60008201527f6573206e6f742065786973740000000000000000000000000000000000000000602082015250565b6000611a8c602c8361110e565b9150611a9782611a30565b604082019050919050565b60006020820190508181036000830152611abb81611a7f565b9050919050565b7f4552433732313a207472616e7366657246726f6d3a2063616c6c65722069732060008201527f6e6f7420616c6c6f77656420746f207472616e73666572207468697320746f6b60208201527f656e000000000000000000000000000000000000000000000000000000000000604082015250565b6000611b4460428361110e565b9150611b4f82611ac2565b606082019050919050565b60006020820190508181036000830152611b7381611b37565b9050919050565b6000611b85826111be565b915060008203611b9857611b9761174a565b5b60018203905091905056fea26469706673582212207c355f2d0a27257fa258b3596b3c7ca7b6d488989fba2662cf3edd0454777bfb64736f6c634300080f0033",
  "immutableReferences": {},
  "source": "// SPDX-License-Identifier: MIT\r\npragma solidity >=0.4.22 <0.9.0;\r\n\r\nimport './ERC721Metadata.sol';\r\nimport './ERC721Enumerable.sol';\r\n\r\ncontract ERC721Connector is ERC721Metadata,ERC721Enumerable{\r\n    constructor (string memory name, string memory symbol) ERC721Metadata(name, symbol){\r\n        \r\n    }\r\n}",
  "sourcePath": "C:\\Users\\pavan\\OneDrive\\Desktop\\Dapp\\nft-marketplace-starter-kit\\src\\contracts\\ERC721Connector.sol",
  "compiler": {
    "name": "solc",
    "version": "0.8.15+commit.e14f2714.Emscripten.clang"
  },
  "schemaVersion": "3.4.8",
  "updatedAt": "2022-07-25T06:52:52.583Z",
  "devdoc": {
    "kind": "dev",
    "methods": {
      "supportsInterface(bytes4)": {
        "details": "Interface identification is specified in ERC-165. This function  uses less than 30,000 gas.",
        "params": {
          "interfaceID": "The interface identifier, as specified in ERC-165"
        },
        "returns": {
          "_0": "`true` if the contract implements `interfaceID` and  `interfaceID` is not 0xffffffff, `false` otherwise"
        }
      }
    },
    "version": 1
  },
  "userdoc": {
    "kind": "user",
    "methods": {
      "supportsInterface(bytes4)": {
        "notice": "Query if a contract implements an interface"
      }
    },
    "version": 1
  }
}