{
  "contractName": "ERC721Enumerable",
  "abi": [
    {
      "inputs": [],
      "stateMutability": "nonpayable",
      "type": "constructor"
    },
    {
      "anonymous": false,
      "inputs": [
        {
          "indexed": true,
          "internalType": "address",
          "name": "_owner",
          "type": "address"
        },
        {
          "indexed": true,
          "internalType": "address",
          "name": "_approved",
          "type": "address"
        },
        {
          "indexed": true,
          "internalType": "uint256",
          "name": "_tokenId",
          "type": "uint256"
        }
      ],
      "name": "Approval",
      "type": "event"
    },
    {
      "anonymous": false,
      "inputs": [
        {
          "indexed": true,
          "internalType": "address",
          "name": "_from",
          "type": "address"
        },
        {
          "indexed": true,
          "internalType": "address",
          "name": "_to",
          "type": "address"
        },
        {
          "indexed": true,
          "internalType": "uint256",
          "name": "_tokenId",
          "type": "uint256"
        }
      ],
      "name": "Transfer",
      "type": "event"
    },
    {
      "inputs": [
        {
          "internalType": "uint256",
          "name": "tokenId",
          "type": "uint256"
        }
      ],
      "name": "_exists",
      "outputs": [
        {
          "internalType": "bool",
          "name": "",
          "type": "bool"
        }
      ],
      "stateMutability": "view",
      "type": "function"
    },
    {
      "inputs": [
        {
          "internalType": "bytes4",
          "name": "interfaceID",
          "type": "bytes4"
        }
      ],
      "name": "_registerInterface",
      "outputs": [],
      "stateMutability": "nonpayable",
      "type": "function"
    },
    {
      "inputs": [
        {
          "internalType": "address",
          "name": "_owner",
          "type": "address"
        }
      ],
      "name": "balanceOf",
      "outputs": [
        {
          "internalType": "uint256",
          "name": "",
          "type": "uint256"
        }
      ],
      "stateMutability": "view",
      "type": "function"
    },
    {
      "inputs": [
        {
          "internalType": "uint256",
          "name": "_tokenId",
          "type": "uint256"
        }
      ],
      "name": "ownerOf",
      "outputs": [
        {
          "internalType": "address",
          "name": "",
          "type": "address"
        }
      ],
      "stateMutability": "view",
      "type": "function"
    },
    {
      "inputs": [
        {
          "internalType": "bytes4",
          "name": "interfaceID",
          "type": "bytes4"
        }
      ],
      "name": "supportsInterface",
      "outputs": [
        {
          "internalType": "bool",
          "name": "",
          "type": "bool"
        }
      ],
      "stateMutability": "view",
      "type": "function"
    },
    {
      "inputs": [],
      "name": "totalSupply",
      "outputs": [
        {
          "internalType": "uint256",
          "name": "",
          "type": "uint256"
        }
      ],
      "stateMutability": "view",
      "type": "function"
    },
    {
      "inputs": [
        {
          "internalType": "address",
          "name": "_owner",
          "type": "address"
        }
      ],
      "name": "allTokensOfOwner",
      "outputs": [
        {
          "internalType": "uint256[]",
          "name": "",
          "type": "uint256[]"
        }
      ],
      "stateMutability": "view",
      "type": "function"
    },
    {
      "inputs": [
        {
          "internalType": "address",
          "name": "from",
          "type": "address"
        },
        {
          "internalType": "address",
          "name": "to",
          "type": "address"
        },
        {
          "internalType": "uint256",
          "name": "tokenId",
          "type": "uint256"
        }
      ],
      "name": "transferFrom",
      "outputs": [],
      "stateMutability": "nonpayable",
      "type": "function"
    },
    {
      "inputs": [
        {
          "internalType": "uint256",
          "name": "index",
          "type": "uint256"
        }
      ],
      "name": "tokenByIndex",
      "outputs": [
        {
          "internalType": "uint256",
          "name": "",
          "type": "uint256"
        }
      ],
      "stateMutability": "view",
      "type": "function"
    },
    {
      "inputs": [
        {
          "internalType": "address",
          "name": "owner",
          "type": "address"
        },
        {
          "internalType": "uint256",
          "name": "index",
          "type": "uint256"
        }
      ],
      "name": "tokenOfOwnerByIndex",
      "outputs": [
        {
          "internalType": "uint256",
          "name": "",
          "type": "uint256"
        }
      ],
      "stateMutability": "view",
      "type": "function"
    },
    {
      "inputs": [
        {
          "internalType": "uint256",
          "name": "tokenId",
          "type": "uint256"
        }
      ],
      "name": "_addTokensToAllTokensEnumeration",
      "outputs": [],
      "stateMutability": "nonpayable",
      "type": "function"
    },
    {
      "inputs": [
        {
          "internalType": "address",
          "name": "to",
          "type": "address"
        },
        {
          "internalType": "uint256",
          "name": "tokenId",
          "type": "uint256"
        }
      ],
      "name": "_addTokensToOwnerEnumeration",
      "outputs": [],
      "stateMutability": "nonpayable",
      "type": "function"
    },
    {
      "inputs": [
        {
          "internalType": "address",
          "name": "from",
          "type": "address"
        },
        {
          "internalType": "uint256",
          "name": "tokenId",
          "type": "uint256"
        }
      ],
      "name": "_removeTokensFromOwnerEnumeration",
      "outputs": [],
      "stateMutability": "nonpayable",
      "type": "function"
    }
  ],
  "bytecode": "0x60806040523480156200001157600080fd5b50620000437f01ffc9a7a5cef8baa21ed3c5c0d7e23accb804b619e9333b597f47a0d84076e26200013360201b60201c565b620000b87f23b872dd7302113369cda2901243429419bec145408fa8b352b3dd92b66c680b7f6352211e6566aa027e75ac9dbf2423197fbd9b82b9d981a3ab367d355866aa1c7f70a08231b98ef4ca268c9cc3f6b4590e4bfec28280db06bb5d45e689f2a360be18186200013360201b60201c565b6200012d7f2f745c59a57ba1667616e5a9707eeaa36ec97c283ee24190b75d9c8d14bcb2157f4f6ccce7c41aed90ec1f1887c4a821594c0f73758d8941d0ccaa2cde813b72987f18160ddd7f15c72528c2f94fd8dfe3c8d5aa26e2c50c7d81f4bc7bee8d4b793218186200013360201b60201c565b620002b3565b63ffffffff60e01b817bffffffffffffffffffffffffffffffffffffffffffffffffffffffff1916036200019e576040517f08c379a0000000000000000000000000000000000000000000000000000000008152600401620001959062000291565b60405180910390fd5b6001600080837bffffffffffffffffffffffffffffffffffffffffffffffffffffffff19167bffffffffffffffffffffffffffffffffffffffffffffffffffffffff1916815260200190815260200160002060006101000a81548160ff02191690831515021790555050565b600082825260208201905092915050565b7f4552433136353a20616464496e746572666163653a207468697320696e74657260008201527f6661636520697320696e76616c69640000000000000000000000000000000000602082015250565b600062000279602f836200020a565b915062000286826200021b565b604082019050919050565b60006020820190508181036000830152620002ac816200026a565b9050919050565b61194980620002c36000396000f3fe608060405234801561001057600080fd5b50600436106100cf5760003560e01c80634f6ccce71161008c57806370a082311161006657806370a0823114610236578063a69c700114610266578063c7ae6b5714610282578063f8e76cc01461029e576100cf565b80634f6ccce7146101ba5780636352211e146101ea5780636f1a11ec1461021a576100cf565b806301ffc9a7146100d4578063068417d91461010457806318160ddd1461012057806323b872dd1461013e5780632f745c591461015a5780633c99e2e91461018a575b600080fd5b6100ee60048036038101906100e99190610f1a565b6102ce565b6040516100fb9190610f62565b60405180910390f35b61011e60048036038101906101199190610f1a565b610335565b005b610128610409565b6040516101359190610f96565b60405180910390f35b6101586004803603810190610153919061103b565b610416565b005b610174600480360381019061016f919061108e565b61043a565b6040516101819190610f96565b60405180910390f35b6101a4600480360381019061019f91906110ce565b610598565b6040516101b191906111b9565b60405180910390f35b6101d460048036038101906101cf91906111db565b61062f565b6040516101e19190610f96565b60405180910390f35b61020460048036038101906101ff91906111db565b6106a0565b6040516102119190611217565b60405180910390f35b610234600480360381019061022f919061108e565b610751565b005b610250600480360381019061024b91906110ce565b61097d565b60405161025d9190610f96565b60405180910390f35b610280600480360381019061027b919061108e565b610a34565b005b61029c600480360381019061029791906111db565b610b04565b005b6102b860048036038101906102b391906111db565b610b59565b6040516102c59190610f62565b60405180910390f35b6000806000837bffffffffffffffffffffffffffffffffffffffffffffffffffffffff19167bffffffffffffffffffffffffffffffffffffffffffffffffffffffff1916815260200190815260200160002060009054906101000a900460ff169050919050565b63ffffffff60e01b817bffffffffffffffffffffffffffffffffffffffffffffffffffffffff19160361039d576040517f08c379a0000000000000000000000000000000000000000000000000000000008152600401610394906112b5565b60405180910390fd5b6001600080837bffffffffffffffffffffffffffffffffffffffffffffffffffffffff19167bffffffffffffffffffffffffffffffffffffffffffffffffffffffff1916815260200190815260200160002060006101000a81548160ff02191690831515021790555050565b6000600480549050905090565b610421838383610bc5565b61042b8382610751565b6104358282610a34565b505050565b60008073ffffffffffffffffffffffffffffffffffffffff168373ffffffffffffffffffffffffffffffffffffffff16036104aa576040517f08c379a00000000000000000000000000000000000000000000000000000000081526004016104a190611347565b60405180910390fd5b600660008473ffffffffffffffffffffffffffffffffffffffff1673ffffffffffffffffffffffffffffffffffffffff16815260200190815260200160002080549050821061052e576040517f08c379a000000000000000000000000000000000000000000000000000000000815260040161052590611347565b60405180910390fd5b6000600660008573ffffffffffffffffffffffffffffffffffffffff1673ffffffffffffffffffffffffffffffffffffffff168152602001908152602001600020838154811061058157610580611367565b5b906000526020600020015490508091505092915050565b6060600660008373ffffffffffffffffffffffffffffffffffffffff1673ffffffffffffffffffffffffffffffffffffffff16815260200190815260200160002080548060200260200160405190810160405280929190818152602001828054801561062357602002820191906000526020600020905b81548152602001906001019080831161060f575b50505050509050919050565b6000610639610409565b821061067a576040517f08c379a000000000000000000000000000000000000000000000000000000000815260040161067190611408565b60405180910390fd5b6004828154811061068e5761068d611367565b5b90600052602060002001549050919050565b6000806001600084815260200190815260200160002060009054906101000a900473ffffffffffffffffffffffffffffffffffffffff169050600073ffffffffffffffffffffffffffffffffffffffff168173ffffffffffffffffffffffffffffffffffffffff1603610748576040517f08c379a000000000000000000000000000000000000000000000000000000000815260040161073f9061149a565b60405180910390fd5b80915050919050565b60006007600083815260200190815260200160002054905060008190505b6001600660008673ffffffffffffffffffffffffffffffffffffffff1673ffffffffffffffffffffffffffffffffffffffff168152602001908152602001600020805490506107be91906114e9565b81101561091257600660008573ffffffffffffffffffffffffffffffffffffffff1673ffffffffffffffffffffffffffffffffffffffff168152602001908152602001600020600182610811919061151d565b8154811061082257610821611367565b5b9060005260206000200154600660008673ffffffffffffffffffffffffffffffffffffffff1673ffffffffffffffffffffffffffffffffffffffff168152602001908152602001600020828154811061087e5761087d611367565b5b90600052602060002001819055508060076000600660008873ffffffffffffffffffffffffffffffffffffffff1673ffffffffffffffffffffffffffffffffffffffff16815260200190815260200160002084815481106108e2576108e1611367565b5b9060005260206000200154815260200190815260200160002081905550808061090a90611573565b91505061076f565b50600660008473ffffffffffffffffffffffffffffffffffffffff1673ffffffffffffffffffffffffffffffffffffffff168152602001908152602001600020805480610962576109616115bb565b5b60019003818190600052602060002001600090559055505050565b60008073ffffffffffffffffffffffffffffffffffffffff168273ffffffffffffffffffffffffffffffffffffffff16036109ed576040517f08c379a00000000000000000000000000000000000000000000000000000000081526004016109e49061165c565b60405180910390fd5b600260008373ffffffffffffffffffffffffffffffffffffffff1673ffffffffffffffffffffffffffffffffffffffff168152602001908152602001600020549050919050565b600660008373ffffffffffffffffffffffffffffffffffffffff1673ffffffffffffffffffffffffffffffffffffffff1681526020019081526020016000208190806001815401808255809150506001900390600052602060002001600090919091909150556001600660008473ffffffffffffffffffffffffffffffffffffffff1673ffffffffffffffffffffffffffffffffffffffff16815260200190815260200160002080549050610ae991906114e9565b60076000838152602001908152602001600020819055505050565b60048190806001815401808255809150506001900390600052602060002001600090919091909150556001600480549050610b3f91906114e9565b600560008381526020019081526020016000208190555050565b60008073ffffffffffffffffffffffffffffffffffffffff166001600084815260200190815260200160002060009054906101000a900473ffffffffffffffffffffffffffffffffffffffff1673ffffffffffffffffffffffffffffffffffffffff1614159050919050565b600073ffffffffffffffffffffffffffffffffffffffff168373ffffffffffffffffffffffffffffffffffffffff1603610c34576040517f08c379a0000000000000000000000000000000000000000000000000000000008152600401610c2b906116ee565b60405180910390fd5b600073ffffffffffffffffffffffffffffffffffffffff168273ffffffffffffffffffffffffffffffffffffffff1603610ca3576040517f08c379a0000000000000000000000000000000000000000000000000000000008152600401610c9a90611780565b60405180910390fd5b610cac81610b59565b610ceb576040517f08c379a0000000000000000000000000000000000000000000000000000000008152600401610ce290611812565b60405180910390fd5b8273ffffffffffffffffffffffffffffffffffffffff16610d0b826106a0565b73ffffffffffffffffffffffffffffffffffffffff1614610d61576040517f08c379a0000000000000000000000000000000000000000000000000000000008152600401610d58906118ca565b60405180910390fd5b816001600083815260200190815260200160002060006101000a81548173ffffffffffffffffffffffffffffffffffffffff021916908373ffffffffffffffffffffffffffffffffffffffff160217905550600260008473ffffffffffffffffffffffffffffffffffffffff1673ffffffffffffffffffffffffffffffffffffffff1681526020019081526020016000206000815480929190610e03906118ea565b9190505550600260008373ffffffffffffffffffffffffffffffffffffffff1673ffffffffffffffffffffffffffffffffffffffff1681526020019081526020016000206000815480929190610e5890611573565b9190505550808273ffffffffffffffffffffffffffffffffffffffff168473ffffffffffffffffffffffffffffffffffffffff167fddf252ad1be2c89b69c2b068fc378daa952ba7f163c4a11628f55a4df523b3ef60405160405180910390a4505050565b600080fd5b60007fffffffff0000000000000000000000000000000000000000000000000000000082169050919050565b610ef781610ec2565b8114610f0257600080fd5b50565b600081359050610f1481610eee565b92915050565b600060208284031215610f3057610f2f610ebd565b5b6000610f3e84828501610f05565b91505092915050565b60008115159050919050565b610f5c81610f47565b82525050565b6000602082019050610f776000830184610f53565b92915050565b6000819050919050565b610f9081610f7d565b82525050565b6000602082019050610fab6000830184610f87565b92915050565b600073ffffffffffffffffffffffffffffffffffffffff82169050919050565b6000610fdc82610fb1565b9050919050565b610fec81610fd1565b8114610ff757600080fd5b50565b60008135905061100981610fe3565b92915050565b61101881610f7d565b811461102357600080fd5b50565b6000813590506110358161100f565b92915050565b60008060006060848603121561105457611053610ebd565b5b600061106286828701610ffa565b935050602061107386828701610ffa565b925050604061108486828701611026565b9150509250925092565b600080604083850312156110a5576110a4610ebd565b5b60006110b385828601610ffa565b92505060206110c485828601611026565b9150509250929050565b6000602082840312156110e4576110e3610ebd565b5b60006110f284828501610ffa565b91505092915050565b600081519050919050565b600082825260208201905092915050565b6000819050602082019050919050565b61113081610f7d565b82525050565b60006111428383611127565b60208301905092915050565b6000602082019050919050565b6000611166826110fb565b6111708185611106565b935061117b83611117565b8060005b838110156111ac5781516111938882611136565b975061119e8361114e565b92505060018101905061117f565b5085935050505092915050565b600060208201905081810360008301526111d3818461115b565b905092915050565b6000602082840312156111f1576111f0610ebd565b5b60006111ff84828501611026565b91505092915050565b61121181610fd1565b82525050565b600060208201905061122c6000830184611208565b92915050565b600082825260208201905092915050565b7f4552433136353a20616464496e746572666163653a207468697320696e74657260008201527f6661636520697320696e76616c69640000000000000000000000000000000000602082015250565b600061129f602f83611232565b91506112aa82611243565b604082019050919050565b600060208201905081810360008301526112ce81611292565b9050919050565b7f4552433732313a20746f6b656e4f664f776e65724279496e6465783a2063616c60008201527f6c6572206973206e6f7420616c6c6f77656420746f206265206e756c6c000000602082015250565b6000611331603d83611232565b915061133c826112d5565b604082019050919050565b6000602082019050818103600083015261136081611324565b9050919050565b7f4e487b7100000000000000000000000000000000000000000000000000000000600052603260045260246000fd5b7f4552433732313a20746f6b656e4279496e6465783a20696e646578206f75742060008201527f6f662072616e6765000000000000000000000000000000000000000000000000602082015250565b60006113f2602883611232565b91506113fd82611396565b604082019050919050565b60006020820190508181036000830152611421816113e5565b9050919050565b7f4552433732313a206f776e65724f663a2063616c6c6572206973206e6f74206160008201527f6c6c6f77656420746f206265206e756c6c000000000000000000000000000000602082015250565b6000611484603183611232565b915061148f82611428565b604082019050919050565b600060208201905081810360008301526114b381611477565b9050919050565b7f4e487b7100000000000000000000000000000000000000000000000000000000600052601160045260246000fd5b60006114f482610f7d565b91506114ff83610f7d565b925082821015611512576115116114ba565b5b828203905092915050565b600061152882610f7d565b915061153383610f7d565b9250827fffffffffffffffffffffffffffffffffffffffffffffffffffffffffffffffff03821115611568576115676114ba565b5b828201905092915050565b600061157e82610f7d565b91507fffffffffffffffffffffffffffffffffffffffffffffffffffffffffffffffff82036115b0576115af6114ba565b5b600182019050919050565b7f4e487b7100000000000000000000000000000000000000000000000000000000600052603160045260246000fd5b7f4552433732313a2062616c616e63654f663a2063616c6c6572206973206e6f7460008201527f20616c6c6f77656420746f206265206e756c6c00000000000000000000000000602082015250565b6000611646603383611232565b9150611651826115ea565b604082019050919050565b6000602082019050818103600083015261167581611639565b9050919050565b7f4552433732313a207472616e7366657246726f6d3a2063616c6c65722069732060008201527f6e6f7420616c6c6f77656420746f206265206e756c6c00000000000000000000602082015250565b60006116d8603683611232565b91506116e38261167c565b604082019050919050565b60006020820190508181036000830152611707816116cb565b9050919050565b7f4552433732313a207472616e7366657246726f6d3a20746f206164647265737360008201527f20697320696e76616c6964000000000000000000000000000000000000000000602082015250565b600061176a602b83611232565b91506117758261170e565b604082019050919050565b600060208201905081810360008301526117998161175d565b9050919050565b7f4552433732313a207472616e7366657246726f6d3a20746f6b656e496420646f60008201527f6573206e6f742065786973740000000000000000000000000000000000000000602082015250565b60006117fc602c83611232565b9150611807826117a0565b604082019050919050565b6000602082019050818103600083015261182b816117ef565b9050919050565b7f4552433732313a207472616e7366657246726f6d3a2063616c6c65722069732060008201527f6e6f7420616c6c6f77656420746f207472616e73666572207468697320746f6b60208201527f656e000000000000000000000000000000000000000000000000000000000000604082015250565b60006118b4604283611232565b91506118bf82611832565b606082019050919050565b600060208201905081810360008301526118e3816118a7565b9050919050565b60006118f582610f7d565b915060008203611908576119076114ba565b5b60018203905091905056fea26469706673582212206df4abd8523e8858b077d01db9264d987fd9ddf5bb29abb4f193d49c68e2eeda64736f6c634300080f0033",
  "immutableReferences": {},
  "source": "// SPDX-License-Identifier: MIT\r\npragma solidity >=0.4.22 <0.9.0;\r\nimport './ERC721.sol';\r\nimport './interfaces/IERC721Enumerable.sol';\r\n\r\ncontract ERC721Enumerable is IERC721Enumerable,ERC721{\r\n    uint256[] private _allTokens;\r\n    \r\n    // mapping from token id to position in array\r\n    mapping(uint256 => uint256) private _allTokensIndex;\r\n\r\n    // mapping of all tokens owned by the owner\r\n    mapping(address => uint256[]) private _ownedTokens;   \r\n    \r\n    // mapping from token id to index of owners tokens list\r\n    mapping(uint256 => uint256) private _ownedTokensIndex;\r\n\r\n   // constructor \r\n    constructor(){\r\n        _registerInterface(bytes4(keccak256('totalSupply()')\r\n                                  ^keccak256('tokenByIndex(uint256)')\r\n                                  ^keccak256('tokenOfOwnerByIndex(address,uint256)')));\r\n    }\r\n\r\n    function totalSupply() public view override returns (uint256) {\r\n        return _allTokens.length;\r\n    }\r\n    \r\n    function allTokensOfOwner(address _owner) public view returns (uint256[] memory) {\r\n        return _ownedTokens[_owner];\r\n    }\r\n\r\n    function _mint(address to, uint256 tokenId)internal override(ERC721){\r\n        super._mint(to, tokenId);\r\n        _addTokensToAllTokensEnumeration(tokenId);\r\n        _addTokensToOwnerEnumeration(to,tokenId);\r\n    }\r\n\r\n    function transferFrom(address from, address to, uint256 tokenId)public override(ERC721) {\r\n        super.transferFrom(from, to, tokenId);\r\n        _removeTokensFromOwnerEnumeration(from,tokenId);\r\n        _addTokensToOwnerEnumeration(to,tokenId);\r\n    }\r\n\r\n    //token by index\r\n    function tokenByIndex(uint256 index) public view override returns (uint256) {\r\n        require(index < totalSupply(), \"ERC721: tokenByIndex: index out of range\");\r\n        return _allTokens[index];\r\n    }\r\n\r\n    //token by owner index\r\n    function tokenOfOwnerByIndex(address owner, uint256 index) public view override returns (uint256) {\r\n        require(owner != address(0), \"ERC721: tokenOfOwnerByIndex: caller is not allowed to be null\");\r\n        require(index < _ownedTokens[owner].length, \"ERC721: tokenOfOwnerByIndex: caller is not allowed to be null\");\r\n        uint256 tokenId = _ownedTokens[owner][index];\r\n        return tokenId;\r\n    }\r\n\r\n    // adding tokens to all tokens\r\n    function _addTokensToAllTokensEnumeration(uint256 tokenId) public {\r\n        // require(!_exists(tokenId),\"ERC721: addTokensToAllTokensEnumeration: tokenId already exists\");\r\n        _allTokens.push(tokenId);\r\n        _allTokensIndex[tokenId] = _allTokens.length - 1;\r\n    }\r\n\r\n    // adding tokens to owners tokens\r\n    function _addTokensToOwnerEnumeration(address to,uint256 tokenId) public {\r\n        // require(!_exists(tokenId),\"ERC721: addTokensToOwnedTokensEnumeration: tokenId already exists\");\r\n        _ownedTokens[to].push(tokenId);\r\n        _ownedTokensIndex[tokenId] = _ownedTokens[to].length - 1;\r\n    }\r\n\r\n    // removing tokens from owners tokens\r\n    function _removeTokensFromOwnerEnumeration(address from,uint256 tokenId) public {\r\n        // require(_exists(tokenId),\"ERC721: removeTokensFromOwnedTokensEnumeration: tokenId does not exist\");\r\n        uint256 index = _ownedTokensIndex[tokenId];\r\n        for(uint i = index; i < _ownedTokens[from].length - 1; i++){\r\n            _ownedTokens[from][i] = _ownedTokens[from][i+1];\r\n            _ownedTokensIndex[_ownedTokens[from][i]] = i;\r\n        }\r\n        _ownedTokens[from].pop();\r\n    }\r\n\r\n}",
  "sourcePath": "C:\\Users\\pavan\\OneDrive\\Desktop\\Dapp\\nft-marketplace-starter-kit\\src\\contracts\\ERC721Enumerable.sol",
  "compiler": {
    "name": "solc",
    "version": "0.8.15+commit.e14f2714.Emscripten.clang"
  },
  "schemaVersion": "3.4.8",
  "updatedAt": "2022-07-25T06:52:52.613Z",
  "devdoc": {
    "kind": "dev",
    "methods": {
      "supportsInterface(bytes4)": {
        "details": "Interface identification is specified in ERC-165. This function  uses less than 30,000 gas.",
        "params": {
          "interfaceID": "The interface identifier, as specified in ERC-165"
        },
        "returns": {
          "_0": "`true` if the contract implements `interfaceID` and  `interfaceID` is not 0xffffffff, `false` otherwise"
        }
      }
    },
    "version": 1
  },
  "userdoc": {
    "kind": "user",
    "methods": {
      "supportsInterface(bytes4)": {
        "notice": "Query if a contract implements an interface"
      }
    },
    "version": 1
  }
}