{
  "contractName": "ERC721Metadata",
  "abi": [
    {
      "inputs": [
        {
          "internalType": "string",
          "name": "named",
          "type": "string"
        },
        {
          "internalType": "string",
          "name": "symboled",
          "type": "string"
        }
      ],
      "stateMutability": "nonpayable",
      "type": "constructor"
    },
    {
      "inputs": [
        {
          "internalType": "bytes4",
          "name": "interfaceID",
          "type": "bytes4"
        }
      ],
      "name": "_registerInterface",
      "outputs": [],
      "stateMutability": "nonpayable",
      "type": "function"
    },
    {
      "inputs": [
        {
          "internalType": "bytes4",
          "name": "interfaceID",
          "type": "bytes4"
        }
      ],
      "name": "supportsInterface",
      "outputs": [
        {
          "internalType": "bool",
          "name": "",
          "type": "bool"
        }
      ],
      "stateMutability": "view",
      "type": "function"
    },
    {
      "inputs": [],
      "name": "name",
      "outputs": [
        {
          "internalType": "string",
          "name": "",
          "type": "string"
        }
      ],
      "stateMutability": "view",
      "type": "function"
    },
    {
      "inputs": [],
      "name": "symbol",
      "outputs": [
        {
          "internalType": "string",
          "name": "",
          "type": "string"
        }
      ],
      "stateMutability": "view",
      "type": "function"
    }
  ],
  "bytecode": "0x608060405234801561001057600080fd5b506040516106a53803806106a583398101604081905261002f916101f6565b6100587f01ffc9a7a5cef8baa21ed3c5c0d7e23accb804b619e9333b597f47a0d84076e26100a2565b6100817f932545426104aec98a84b11f89010e409615d4e118552c694c4a726f29caf77a6100a2565b600161008d83826102e8565b50600261009a82826102e8565b5050506103a6565b6001600160e01b031980821690036101185760405162461bcd60e51b815260206004820152602f60248201527f4552433136353a20616464496e746572666163653a207468697320696e74657260448201526e199858d9481a5cc81a5b9d985b1a59608a1b606482015260840160405180910390fd5b6001600160e01b0319166000908152602081905260409020805460ff19166001179055565b634e487b7160e01b600052604160045260246000fd5b600082601f83011261016457600080fd5b81516001600160401b0381111561017d5761017d61013d565b604051601f8201601f19908116603f011681016001600160401b03811182821017156101ab576101ab61013d565b6040528181528382016020018510156101c357600080fd5b60005b828110156101e2576020818601810151838301820152016101c6565b506000918101602001919091529392505050565b6000806040838503121561020957600080fd5b82516001600160401b0381111561021f57600080fd5b61022b85828601610153565b602085015190935090506001600160401b0381111561024957600080fd5b61025585828601610153565b9150509250929050565b600181811c9082168061027357607f821691505b60208210810361029357634e487b7160e01b600052602260045260246000fd5b50919050565b601f8211156102e357806000526020600020601f840160051c810160208510156102c05750805b601f840160051c820191505b818110156102e057600081556001016102cc565b50505b505050565b81516001600160401b038111156103015761030161013d565b6103158161030f845461025f565b84610299565b6020601f82116001811461034957600083156103315750848201515b600019600385901b1c1916600184901b1784556102e0565b600084815260208120601f198516915b828110156103795787850151825560209485019460019092019101610359565b50848210156103975786840151600019600387901b60f8161c191681555b50505050600190811b01905550565b6102f0806103b56000396000f3fe608060405234801561001057600080fd5b506004361061004c5760003560e01c806301ffc9a714610051578063068417d91461009357806306fdde03146100a857806395d89b41146100bd575b600080fd5b61007e61005f366004610201565b6001600160e01b03191660009081526020819052604090205460ff1690565b60405190151581526020015b60405180910390f35b6100a66100a1366004610201565b6100c5565b005b6100b0610160565b60405161008a9190610232565b6100b06101f2565b6001600160e01b0319808216900361013b5760405162461bcd60e51b815260206004820152602f60248201527f4552433136353a20616464496e746572666163653a207468697320696e74657260448201526e199858d9481a5cc81a5b9d985b1a59608a1b606482015260840160405180910390fd5b6001600160e01b0319166000908152602081905260409020805460ff19166001179055565b60606001805461016f90610280565b80601f016020809104026020016040519081016040528092919081815260200182805461019b90610280565b80156101e85780601f106101bd576101008083540402835291602001916101e8565b820191906000526020600020905b8154815290600101906020018083116101cb57829003601f168201915b5050505050905090565b60606002805461016f90610280565b60006020828403121561021357600080fd5b81356001600160e01b03198116811461022b57600080fd5b9392505050565b602081526000825180602084015260005b818110156102605760208186018101516040868401015201610243565b506000604082850101526040601f19601f83011684010191505092915050565b600181811c9082168061029457607f821691505b6020821081036102b457634e487b7160e01b600052602260045260246000fd5b5091905056fea26469706673582212200fe909faa46c94207e68c01f769165376e65332622437b4665aab64a4832b93a64736f6c634300081c0033",
  "immutableReferences": {},
  "source": "// SPDX-License-Identifier: MIT\r\npragma solidity ^0.8.0;\r\n\r\nimport './interfaces/IERC721Metadata.sol';\r\nimport './ERC165.sol';\r\n\r\ncontract ERC721Metadata is IERC721Metadata, ERC165 {\r\n    string private _name;\r\n    string private _symbol;\r\n\r\n    /**\r\n     * @dev Constructor that sets the name and symbol of the token.\r\n     * It also registers the ERC721Metadata interface.\r\n     * @param named The name of the token collection.\r\n     * @param symboled The symbol of the token collection.\r\n     */\r\n    constructor(string memory named, string memory symboled) {\r\n        _registerInterface(bytes4(keccak256('name()') ^\r\n                                  keccak256('symbol()')));\r\n        _name = named;\r\n        _symbol = symboled;\r\n    }\r\n\r\n    /**\r\n     * @dev Returns the name of the token collection.\r\n     * @return string The name of the token.\r\n     */\r\n    function name() external view override returns (string memory) {\r\n        return _name;\r\n    }\r\n\r\n    /**\r\n     * @dev Returns the symbol of the token collection.\r\n     * @return string The symbol of the token.\r\n     */\r\n    function symbol() external view override returns (string memory) {\r\n        return _symbol;\r\n    }\r\n}\r\n",
  "sourcePath": "C:\\Users\\pavan\\OneDrive\\Desktop\\codes\\Projects\\BrainStorm_NITSilchar_FlipkartGrid4.0\\NFT\\src\\contracts\\ERC721Metadata.sol",
  "compiler": {
    "name": "solc",
    "version": "0.8.28+commit.7893614a.Emscripten.clang"
  },
  "schemaVersion": "3.4.16",
  "updatedAt": "2024-12-15T07:25:47.416Z",
  "devdoc": {
    "kind": "dev",
    "methods": {
      "_registerInterface(bytes4)": {
        "details": "Registers an interface to be supported by the contract.",
        "params": {
          "interfaceID": "The interface ID to register."
        }
      },
      "constructor": {
        "details": "Constructor that sets the name and symbol of the token. It also registers the ERC721Metadata interface.",
        "params": {
          "named": "The name of the token collection.",
          "symboled": "The symbol of the token collection."
        }
      },
      "name()": {
        "details": "Returns the name of the token collection.",
        "returns": {
          "_0": "string The name of the token."
        }
      },
      "supportsInterface(bytes4)": {
        "details": "Checks if a given interface is supported.",
        "params": {
          "interfaceID": "The interface ID to check for support."
        },
        "returns": {
          "_0": "bool Whether the interface is supported."
        }
      },
      "symbol()": {
        "details": "Returns the symbol of the token collection.",
        "returns": {
          "_0": "string The symbol of the token."
        }
      }
    },
    "version": 1
  },
  "userdoc": {
    "kind": "user",
    "methods": {},
    "version": 1
  }
}