{
  "contractName": "ERC721Enumerable",
  "abi": [
    {
      "inputs": [],
      "stateMutability": "nonpayable",
      "type": "constructor"
    },
    {
      "anonymous": false,
      "inputs": [
        {
          "indexed": true,
          "internalType": "address",
          "name": "_owner",
          "type": "address"
        },
        {
          "indexed": true,
          "internalType": "address",
          "name": "_approved",
          "type": "address"
        },
        {
          "indexed": true,
          "internalType": "uint256",
          "name": "_tokenId",
          "type": "uint256"
        }
      ],
      "name": "Approval",
      "type": "event"
    },
    {
      "anonymous": false,
      "inputs": [
        {
          "indexed": true,
          "internalType": "address",
          "name": "_from",
          "type": "address"
        },
        {
          "indexed": true,
          "internalType": "address",
          "name": "_to",
          "type": "address"
        },
        {
          "indexed": true,
          "internalType": "uint256",
          "name": "_tokenId",
          "type": "uint256"
        }
      ],
      "name": "Transfer",
      "type": "event"
    },
    {
      "inputs": [
        {
          "internalType": "bytes4",
          "name": "interfaceID",
          "type": "bytes4"
        }
      ],
      "name": "_registerInterface",
      "outputs": [],
      "stateMutability": "nonpayable",
      "type": "function"
    },
    {
      "inputs": [
        {
          "internalType": "address",
          "name": "to",
          "type": "address"
        },
        {
          "internalType": "uint256",
          "name": "tokenId",
          "type": "uint256"
        }
      ],
      "name": "approve",
      "outputs": [],
      "stateMutability": "nonpayable",
      "type": "function"
    },
    {
      "inputs": [
        {
          "internalType": "address",
          "name": "_owner",
          "type": "address"
        }
      ],
      "name": "balanceOf",
      "outputs": [
        {
          "internalType": "uint256",
          "name": "",
          "type": "uint256"
        }
      ],
      "stateMutability": "view",
      "type": "function"
    },
    {
      "inputs": [
        {
          "internalType": "uint256",
          "name": "tokenId",
          "type": "uint256"
        }
      ],
      "name": "getApproved",
      "outputs": [
        {
          "internalType": "address",
          "name": "",
          "type": "address"
        }
      ],
      "stateMutability": "view",
      "type": "function"
    },
    {
      "inputs": [
        {
          "internalType": "uint256",
          "name": "_tokenId",
          "type": "uint256"
        }
      ],
      "name": "ownerOf",
      "outputs": [
        {
          "internalType": "address",
          "name": "",
          "type": "address"
        }
      ],
      "stateMutability": "view",
      "type": "function"
    },
    {
      "inputs": [
        {
          "internalType": "bytes4",
          "name": "interfaceID",
          "type": "bytes4"
        }
      ],
      "name": "supportsInterface",
      "outputs": [
        {
          "internalType": "bool",
          "name": "",
          "type": "bool"
        }
      ],
      "stateMutability": "view",
      "type": "function"
    },
    {
      "inputs": [],
      "name": "totalSupply",
      "outputs": [
        {
          "internalType": "uint256",
          "name": "",
          "type": "uint256"
        }
      ],
      "stateMutability": "view",
      "type": "function"
    },
    {
      "inputs": [
        {
          "internalType": "address",
          "name": "_owner",
          "type": "address"
        }
      ],
      "name": "allTokensOfOwner",
      "outputs": [
        {
          "internalType": "uint256[]",
          "name": "",
          "type": "uint256[]"
        }
      ],
      "stateMutability": "view",
      "type": "function"
    },
    {
      "inputs": [
        {
          "internalType": "address",
          "name": "from",
          "type": "address"
        },
        {
          "internalType": "address",
          "name": "to",
          "type": "address"
        },
        {
          "internalType": "uint256",
          "name": "tokenId",
          "type": "uint256"
        }
      ],
      "name": "transferFrom",
      "outputs": [],
      "stateMutability": "nonpayable",
      "type": "function"
    },
    {
      "inputs": [
        {
          "internalType": "uint256",
          "name": "index",
          "type": "uint256"
        }
      ],
      "name": "tokenByIndex",
      "outputs": [
        {
          "internalType": "uint256",
          "name": "",
          "type": "uint256"
        }
      ],
      "stateMutability": "view",
      "type": "function"
    },
    {
      "inputs": [
        {
          "internalType": "address",
          "name": "owner",
          "type": "address"
        },
        {
          "internalType": "uint256",
          "name": "index",
          "type": "uint256"
        }
      ],
      "name": "tokenOfOwnerByIndex",
      "outputs": [
        {
          "internalType": "uint256",
          "name": "",
          "type": "uint256"
        }
      ],
      "stateMutability": "view",
      "type": "function"
    }
  ],
  "bytecode": "0x608060405234801561001057600080fd5b5061003a7f01ffc9a7a5cef8baa21ed3c5c0d7e23accb804b619e9333b597f47a0d84076e2610091565b6100637f304ad1f2afea4ffb313492ce5bd338832dfd9845798d2faba4c0462e1ca9a2a9610091565b61008c7f780e9d631e748bd3b2cb04616c092832f76c29bf76677dc18f4bcbbd18ccb9bf610091565b61012c565b6001600160e01b031980821690036101075760405162461bcd60e51b815260206004820152602f60248201527f4552433136353a20616464496e746572666163653a207468697320696e74657260448201526e199858d9481a5cc81a5b9d985b1a59608a1b606482015260840160405180910390fd5b6001600160e01b0319166000908152602081905260409020805460ff19166001179055565b610d6a8061013b6000396000f3fe608060405234801561001057600080fd5b50600436106100a95760003560e01c806323b872dd1161007157806323b872dd146101555780632f745c59146101685780633c99e2e91461017b5780634f6ccce71461019b5780636352211e146101ae57806370a08231146101c157600080fd5b806301ffc9a7146100ae578063068417d9146100f0578063081812fc14610105578063095ea7b31461013057806318160ddd14610143575b600080fd5b6100db6100bc366004610b84565b6001600160e01b03191660009081526020819052604090205460ff1690565b60405190151581526020015b60405180910390f35b6101036100fe366004610b84565b6101d4565b005b610118610113366004610bb5565b610270565b6040516001600160a01b0390911681526020016100e7565b61010361013e366004610bea565b610302565b6004545b6040519081526020016100e7565b610103610163366004610c14565b610446565b610147610176366004610bea565b61046a565b61018e610189366004610c51565b610594565b6040516100e79190610c6c565b6101476101a9366004610bb5565b610600565b6101186101bc366004610bb5565b61068f565b6101476101cf366004610c51565b610702565b6001600160e01b0319808216900361024b5760405162461bcd60e51b815260206004820152602f60248201527f4552433136353a20616464496e746572666163653a207468697320696e74657260448201526e199858d9481a5cc81a5b9d985b1a59608a1b60648201526084015b60405180910390fd5b6001600160e01b0319166000908152602081905260409020805460ff19166001179055565b6000818152600160205260408120546001600160a01b03166102e65760405162461bcd60e51b815260206004820152602960248201527f4552433732313a20676574417070726f7665643a20746f6b656e20646f6573206044820152681b9bdd08195e1a5cdd60ba1b6064820152608401610242565b506000908152600360205260409020546001600160a01b031690565b600061030d8261068f565b9050806001600160a01b0316836001600160a01b0316036103805760405162461bcd60e51b815260206004820152602760248201527f4552433732313a20617070726f766520746f206f776e6572206973206e6f7420604482015266185b1b1bddd95960ca1b6064820152608401610242565b336001600160a01b038216146103ea5760405162461bcd60e51b815260206004820152602960248201527f4552433732313a20617070726f76652063616c6c6572206973206e6f7420746f60448201526835b2b71037bbb732b960b91b6064820152608401610242565b60008281526003602052604080822080546001600160a01b0319166001600160a01b0387811691821790925591518593918516917f8c5be1e5ebec7d5bd14f71427d1e84f3dd0314c0f7b2291e5b200ac8c7c3b92591a4505050565b61045183838361078b565b61045b8382610a14565b6104658282610b34565b505050565b60006001600160a01b0383166104d75760405162461bcd60e51b815260206004820152602c60248201527f4552433732313a20746f6b656e4f664f776e65724279496e6465783a20696e7660448201526b616c6964206164647265737360a01b6064820152608401610242565b6001600160a01b03831660009081526006602052604090205482106105565760405162461bcd60e51b815260206004820152602f60248201527f4552433732313a20746f6b656e4f664f776e65724279496e6465783a20696e6460448201526e6578206f7574206f662072616e676560881b6064820152608401610242565b6001600160a01b038316600090815260066020526040902080548390811061058057610580610caf565b906000526020600020015490505b92915050565b6001600160a01b0381166000908152600660209081526040918290208054835181840281018401909452808452606093928301828280156105f457602002820191906000526020600020905b8154815260200190600101908083116105e0575b50505050509050919050565b600061060b60045490565b821061066a5760405162461bcd60e51b815260206004820152602860248201527f4552433732313a20746f6b656e4279496e6465783a20696e646578206f7574206044820152676f662072616e676560c01b6064820152608401610242565b6004828154811061067d5761067d610caf565b90600052602060002001549050919050565b6000818152600160205260408120546001600160a01b03168061058e5760405162461bcd60e51b815260206004820152602560248201527f4552433732313a206f776e65724f663a20746f6b656e20646f6573206e6f7420604482015264195e1a5cdd60da1b6064820152608401610242565b60006001600160a01b03821661076f5760405162461bcd60e51b815260206004820152602c60248201527f4552433732313a2062616c616e63654f663a2061646472657373207a65726f2060448201526b1a5cc81b9bdd081d985b1a5960a21b6064820152608401610242565b506001600160a01b031660009081526002602052604090205490565b6001600160a01b0383166107f45760405162461bcd60e51b815260206004820152602a60248201527f4552433732313a207472616e7366657246726f6d3a20696e76616c69642066726044820152696f6d206164647265737360b01b6064820152608401610242565b6001600160a01b03821661085b5760405162461bcd60e51b815260206004820152602860248201527f4552433732313a207472616e7366657246726f6d3a20696e76616c696420746f604482015267206164647265737360c01b6064820152608401610242565b6000818152600160205260409020546001600160a01b03166108d25760405162461bcd60e51b815260206004820152602a60248201527f4552433732313a207472616e7366657246726f6d3a20746f6b656e20646f6573604482015269081b9bdd08195e1a5cdd60b21b6064820152608401610242565b826001600160a01b03166108e58261068f565b6001600160a01b03161461095a5760405162461bcd60e51b815260206004820152603660248201527f4552433732313a207472616e7366657246726f6d3a2063616c6c6572206973206044820152753737ba1037bbb732b91037b3103a3432903a37b5b2b760511b6064820152608401610242565b600081815260016020908152604080832080546001600160a01b0319166001600160a01b038781169190911790915586168352600290915281208054916109a083610cdb565b90915550506001600160a01b03821660009081526002602052604081208054916109c983610cf2565b919050555080826001600160a01b0316846001600160a01b03167fddf252ad1be2c89b69c2b068fc378daa952ba7f163c4a11628f55a4df523b3ef60405160405180910390a4505050565b6000818152600760209081526040808320546001600160a01b03861684526006909252822054909190610a4990600190610d0b565b9050808214610ae0576001600160a01b0384166000908152600660205260408120805483908110610a7c57610a7c610caf565b906000526020600020015490508060066000876001600160a01b03166001600160a01b031681526020019081526020016000208481548110610ac057610ac0610caf565b600091825260208083209091019290925591825260079052604090208290555b6001600160a01b0384166000908152600660205260409020805480610b0757610b07610d1e565b60008281526020808220830160001990810183905590920190925593815260079093525050604081205550565b6001600160a01b0382166000818152600660209081526040822080546001818101835582855292842001859055929091529054610b719190610d0b565b6000918252600760205260409091205550565b600060208284031215610b9657600080fd5b81356001600160e01b031981168114610bae57600080fd5b9392505050565b600060208284031215610bc757600080fd5b5035919050565b80356001600160a01b0381168114610be557600080fd5b919050565b60008060408385031215610bfd57600080fd5b610c0683610bce565b946020939093013593505050565b600080600060608486031215610c2957600080fd5b610c3284610bce565b9250610c4060208501610bce565b929592945050506040919091013590565b600060208284031215610c6357600080fd5b610bae82610bce565b602080825282518282018190526000918401906040840190835b81811015610ca4578351835260209384019390920191600101610c86565b509095945050505050565b634e487b7160e01b600052603260045260246000fd5b634e487b7160e01b600052601160045260246000fd5b600081610cea57610cea610cc5565b506000190190565b600060018201610d0457610d04610cc5565b5060010190565b8181038181111561058e5761058e610cc5565b634e487b7160e01b600052603160045260246000fdfea26469706673582212207e656a61d54572a3358695cc9df5e5e42ffd3ad0d86613077f448892048507d064736f6c634300081c0033",
  "immutableReferences": {},
  "source": "// SPDX-License-Identifier: MIT\r\npragma solidity ^0.8.0;\r\n\r\nimport './ERC721.sol';\r\nimport './interfaces/IERC721Enumerable.sol';\r\n\r\ncontract ERC721Enumerable is IERC721Enumerable, ERC721 {\r\n    uint256[] private _allTokens;\r\n\r\n    // Mapping from token ID to position in the allTokens array\r\n    mapping(uint256 => uint256) private _allTokensIndex;\r\n\r\n    // Mapping of all tokens owned by an address\r\n    mapping(address => uint256[]) private _ownedTokens;\r\n\r\n    // Mapping from token ID to index in the owner's tokens list\r\n    mapping(uint256 => uint256) private _ownedTokensIndex;\r\n\r\n    // Constructor registers the ERC721Enumerable interface\r\n    constructor() {\r\n        _registerInterface(bytes4(keccak256('totalSupply()') ^\r\n                                  keccak256('tokenByIndex(uint256)') ^\r\n                                  keccak256('tokenOfOwnerByIndex(address,uint256)')));\r\n    }\r\n\r\n    /**\r\n     * @dev Returns the total supply of tokens.\r\n     * @return uint256 The total supply of tokens.\r\n     */\r\n    function totalSupply() public view override returns (uint256) {\r\n        return _allTokens.length;\r\n    }\r\n\r\n    /**\r\n     * @dev Returns the list of all tokens owned by the specified address.\r\n     * @param _owner The address to query.\r\n     * @return uint256[] An array of token IDs owned by `_owner`.\r\n     */\r\n    function allTokensOfOwner(address _owner) public view returns (uint256[] memory) {\r\n        return _ownedTokens[_owner];\r\n    }\r\n\r\n    /**\r\n     * @dev Mints a new token and adds it to the global and owner-specific enumerations.\r\n     * @param to The address to mint the token to.\r\n     * @param tokenId The ID of the token to mint.\r\n     */\r\n    function _mint(address to, uint256 tokenId) internal override(ERC721) {\r\n        super._mint(to, tokenId);\r\n        _addTokensToAllTokensEnumeration(tokenId);\r\n        _addTokensToOwnerEnumeration(to, tokenId);\r\n    }\r\n\r\n    /**\r\n     * @dev Transfers a token and updates the enumerations for both the sender and receiver.\r\n     * @param from The address to transfer the token from.\r\n     * @param to The address to transfer the token to.\r\n     * @param tokenId The ID of the token to transfer.\r\n     */\r\n    function transferFrom(address from, address to, uint256 tokenId) public override(ERC721) {\r\n        super.transferFrom(from, to, tokenId);\r\n        _removeTokensFromOwnerEnumeration(from, tokenId);\r\n        _addTokensToOwnerEnumeration(to, tokenId);\r\n    }\r\n\r\n    /**\r\n     * @dev Returns the token ID at a specific index in the global token list.\r\n     * @param index The index to query.\r\n     * @return uint256 The token ID at the specified index.\r\n     */\r\n    function tokenByIndex(uint256 index) public view override returns (uint256) {\r\n        require(index < totalSupply(), \"ERC721: tokenByIndex: index out of range\");\r\n        return _allTokens[index];\r\n    }\r\n\r\n    /**\r\n     * @dev Returns the token ID at a specific index in the owner's token list.\r\n     * @param owner The owner of the tokens.\r\n     * @param index The index to query.\r\n     * @return uint256 The token ID at the specified index.\r\n     */\r\n    function tokenOfOwnerByIndex(address owner, uint256 index) public view override returns (uint256) {\r\n        require(owner != address(0), \"ERC721: tokenOfOwnerByIndex: invalid address\");\r\n        require(index < _ownedTokens[owner].length, \"ERC721: tokenOfOwnerByIndex: index out of range\");\r\n        return _ownedTokens[owner][index];\r\n    }\r\n\r\n    /**\r\n     * @dev Adds a token to the global list of tokens and updates the index.\r\n     * @param tokenId The ID of the token to add.\r\n     */\r\n    function _addTokensToAllTokensEnumeration(uint256 tokenId) internal {\r\n        _allTokens.push(tokenId);\r\n        _allTokensIndex[tokenId] = _allTokens.length - 1;\r\n    }\r\n\r\n    /**\r\n     * @dev Adds a token to the owner's list of tokens and updates the index.\r\n     * @param to The address of the token's owner.\r\n     * @param tokenId The ID of the token to add.\r\n     */\r\n    function _addTokensToOwnerEnumeration(address to, uint256 tokenId) internal {\r\n        _ownedTokens[to].push(tokenId);\r\n        _ownedTokensIndex[tokenId] = _ownedTokens[to].length - 1;\r\n    }\r\n\r\n    /**\r\n     * @dev Removes a token from the owner's list and updates the index.\r\n     * @param from The address of the previous owner.\r\n     * @param tokenId The ID of the token to remove.\r\n     */\r\n    function _removeTokensFromOwnerEnumeration(address from, uint256 tokenId) internal {\r\n        uint256 index = _ownedTokensIndex[tokenId];\r\n        uint256 lastIndex = _ownedTokens[from].length - 1;\r\n\r\n        if (index != lastIndex) {\r\n            uint256 lastTokenId = _ownedTokens[from][lastIndex];\r\n            _ownedTokens[from][index] = lastTokenId;\r\n            _ownedTokensIndex[lastTokenId] = index;\r\n        }\r\n\r\n        _ownedTokens[from].pop();\r\n        delete _ownedTokensIndex[tokenId];\r\n    }\r\n}\r\n",
  "sourcePath": "C:\\Users\\pavan\\OneDrive\\Desktop\\codes\\Projects\\BrainStorm_NITSilchar_FlipkartGrid4.0\\NFT\\src\\contracts\\ERC721Enumerable.sol",
  "compiler": {
    "name": "solc",
    "version": "0.8.28+commit.7893614a.Emscripten.clang"
  },
  "schemaVersion": "3.4.16",
  "updatedAt": "2024-12-15T07:25:47.412Z",
  "devdoc": {
    "events": {
      "Approval(address,address,uint256)": {
        "details": "The zero address indicates there is no approved address.",
        "params": {
          "_approved": "The address that is approved",
          "_owner": "The owner of the token",
          "_tokenId": "The identifier of the token approved"
        }
      },
      "Transfer(address,address,uint256)": {
        "details": "This event emits when NFTs are transferred, including zero value transfers.",
        "params": {
          "_from": "The address of the previous owner of the token",
          "_to": "The address of the new owner of the token",
          "_tokenId": "The identifier of the token transferred"
        }
      }
    },
    "kind": "dev",
    "methods": {
      "_registerInterface(bytes4)": {
        "details": "Registers an interface to be supported by the contract.",
        "params": {
          "interfaceID": "The interface ID to register."
        }
      },
      "allTokensOfOwner(address)": {
        "details": "Returns the list of all tokens owned by the specified address.",
        "params": {
          "_owner": "The address to query."
        },
        "returns": {
          "_0": "uint256[] An array of token IDs owned by `_owner`."
        }
      },
      "approve(address,uint256)": {
        "details": "Approves another address to transfer a specific token on behalf of the owner.",
        "params": {
          "to": "The address to be approved.",
          "tokenId": "The token ID to approve."
        }
      },
      "balanceOf(address)": {
        "details": "Returns the number of tokens owned by the given address.",
        "params": {
          "_owner": "The address to query the balance of."
        },
        "returns": {
          "_0": "uint256 The number of tokens owned by `_owner`."
        }
      },
      "getApproved(uint256)": {
        "details": "Returns the address approved to transfer a specific token.",
        "params": {
          "tokenId": "The token ID to query the approval of."
        },
        "returns": {
          "_0": "address The approved address, or zero if no address is approved."
        }
      },
      "ownerOf(uint256)": {
        "details": "Returns the owner of the given token ID.",
        "params": {
          "_tokenId": "The token ID to query the owner of."
        },
        "returns": {
          "_0": "address The address that owns the token."
        }
      },
      "supportsInterface(bytes4)": {
        "details": "Checks if a given interface is supported.",
        "params": {
          "interfaceID": "The interface ID to check for support."
        },
        "returns": {
          "_0": "bool Whether the interface is supported."
        }
      },
      "tokenByIndex(uint256)": {
        "details": "Returns the token ID at a specific index in the global token list.",
        "params": {
          "index": "The index to query."
        },
        "returns": {
          "_0": "uint256 The token ID at the specified index."
        }
      },
      "tokenOfOwnerByIndex(address,uint256)": {
        "details": "Returns the token ID at a specific index in the owner's token list.",
        "params": {
          "index": "The index to query.",
          "owner": "The owner of the tokens."
        },
        "returns": {
          "_0": "uint256 The token ID at the specified index."
        }
      },
      "totalSupply()": {
        "details": "Returns the total supply of tokens.",
        "returns": {
          "_0": "uint256 The total supply of tokens."
        }
      },
      "transferFrom(address,address,uint256)": {
        "details": "Transfers a token and updates the enumerations for both the sender and receiver.",
        "params": {
          "from": "The address to transfer the token from.",
          "to": "The address to transfer the token to.",
          "tokenId": "The ID of the token to transfer."
        }
      }
    },
    "version": 1
  },
  "userdoc": {
    "events": {
      "Approval(address,address,uint256)": {
        "notice": "This emits when the approved address for an NFT is changed or reaffirmed."
      },
      "Transfer(address,address,uint256)": {
        "notice": "This emits when ownership of any NFT changes by any mechanism."
      }
    },
    "kind": "user",
    "methods": {},
    "version": 1
  }
}