{
  "contractName": "ERC721",
  "abi": [
    {
      "inputs": [],
      "stateMutability": "nonpayable",
      "type": "constructor"
    },
    {
      "anonymous": false,
      "inputs": [
        {
          "indexed": true,
          "internalType": "address",
          "name": "_owner",
          "type": "address"
        },
        {
          "indexed": true,
          "internalType": "address",
          "name": "_approved",
          "type": "address"
        },
        {
          "indexed": true,
          "internalType": "uint256",
          "name": "_tokenId",
          "type": "uint256"
        }
      ],
      "name": "Approval",
      "type": "event"
    },
    {
      "anonymous": false,
      "inputs": [
        {
          "indexed": true,
          "internalType": "address",
          "name": "_from",
          "type": "address"
        },
        {
          "indexed": true,
          "internalType": "address",
          "name": "_to",
          "type": "address"
        },
        {
          "indexed": true,
          "internalType": "uint256",
          "name": "_tokenId",
          "type": "uint256"
        }
      ],
      "name": "Transfer",
      "type": "event"
    },
    {
      "inputs": [
        {
          "internalType": "bytes4",
          "name": "interfaceID",
          "type": "bytes4"
        }
      ],
      "name": "_registerInterface",
      "outputs": [],
      "stateMutability": "nonpayable",
      "type": "function"
    },
    {
      "inputs": [
        {
          "internalType": "bytes4",
          "name": "interfaceID",
          "type": "bytes4"
        }
      ],
      "name": "supportsInterface",
      "outputs": [
        {
          "internalType": "bool",
          "name": "",
          "type": "bool"
        }
      ],
      "stateMutability": "view",
      "type": "function"
    },
    {
      "inputs": [
        {
          "internalType": "address",
          "name": "_owner",
          "type": "address"
        }
      ],
      "name": "balanceOf",
      "outputs": [
        {
          "internalType": "uint256",
          "name": "",
          "type": "uint256"
        }
      ],
      "stateMutability": "view",
      "type": "function"
    },
    {
      "inputs": [
        {
          "internalType": "uint256",
          "name": "_tokenId",
          "type": "uint256"
        }
      ],
      "name": "ownerOf",
      "outputs": [
        {
          "internalType": "address",
          "name": "",
          "type": "address"
        }
      ],
      "stateMutability": "view",
      "type": "function"
    },
    {
      "inputs": [
        {
          "internalType": "uint256",
          "name": "tokenId",
          "type": "uint256"
        }
      ],
      "name": "_exists",
      "outputs": [
        {
          "internalType": "bool",
          "name": "",
          "type": "bool"
        }
      ],
      "stateMutability": "view",
      "type": "function"
    },
    {
      "inputs": [
        {
          "internalType": "address",
          "name": "from",
          "type": "address"
        },
        {
          "internalType": "address",
          "name": "to",
          "type": "address"
        },
        {
          "internalType": "uint256",
          "name": "tokenId",
          "type": "uint256"
        }
      ],
      "name": "transferFrom",
      "outputs": [],
      "stateMutability": "nonpayable",
      "type": "function"
    }
  ],
  "bytecode": "0x608060405234801561001057600080fd5b506100407f01ffc9a7a5cef8baa21ed3c5c0d7e23accb804b619e9333b597f47a0d84076e26100b860201b60201c565b6100b37f23b872dd7302113369cda2901243429419bec145408fa8b352b3dd92b66c680b7f6352211e6566aa027e75ac9dbf2423197fbd9b82b9d981a3ab367d355866aa1c7f70a08231b98ef4ca268c9cc3f6b4590e4bfec28280db06bb5d45e689f2a360be18186100b860201b60201c565b61022f565b63ffffffff60e01b817bffffffffffffffffffffffffffffffffffffffffffffffffffffffff191603610120576040517f08c379a00000000000000000000000000000000000000000000000000000000081526004016101179061020f565b60405180910390fd5b6001600080837bffffffffffffffffffffffffffffffffffffffffffffffffffffffff19167bffffffffffffffffffffffffffffffffffffffffffffffffffffffff1916815260200190815260200160002060006101000a81548160ff02191690831515021790555050565b600082825260208201905092915050565b7f4552433136353a20616464496e746572666163653a207468697320696e74657260008201527f6661636520697320696e76616c69640000000000000000000000000000000000602082015250565b60006101f9602f8361018c565b91506102048261019d565b604082019050919050565b60006020820190508181036000830152610228816101ec565b9050919050565b610ec68061023e6000396000f3fe608060405234801561001057600080fd5b50600436106100625760003560e01c806301ffc9a714610067578063068417d91461009757806323b872dd146100b35780636352211e146100cf57806370a08231146100ff578063f8e76cc01461012f575b600080fd5b610081600480360381019061007c91906107c3565b61015f565b60405161008e919061080b565b60405180910390f35b6100b160048036038101906100ac91906107c3565b6101c6565b005b6100cd60048036038101906100c891906108ba565b61029a565b005b6100e960048036038101906100e4919061090d565b610592565b6040516100f69190610949565b60405180910390f35b61011960048036038101906101149190610964565b610643565b60405161012691906109a0565b60405180910390f35b6101496004803603810190610144919061090d565b6106fa565b604051610156919061080b565b60405180910390f35b6000806000837bffffffffffffffffffffffffffffffffffffffffffffffffffffffff19167bffffffffffffffffffffffffffffffffffffffffffffffffffffffff1916815260200190815260200160002060009054906101000a900460ff169050919050565b63ffffffff60e01b817bffffffffffffffffffffffffffffffffffffffffffffffffffffffff19160361022e576040517f08c379a000000000000000000000000000000000000000000000000000000000815260040161022590610a3e565b60405180910390fd5b6001600080837bffffffffffffffffffffffffffffffffffffffffffffffffffffffff19167bffffffffffffffffffffffffffffffffffffffffffffffffffffffff1916815260200190815260200160002060006101000a81548160ff02191690831515021790555050565b600073ffffffffffffffffffffffffffffffffffffffff168373ffffffffffffffffffffffffffffffffffffffff1603610309576040517f08c379a000000000000000000000000000000000000000000000000000000000815260040161030090610ad0565b60405180910390fd5b600073ffffffffffffffffffffffffffffffffffffffff168273ffffffffffffffffffffffffffffffffffffffff1603610378576040517f08c379a000000000000000000000000000000000000000000000000000000000815260040161036f90610b62565b60405180910390fd5b610381816106fa565b6103c0576040517f08c379a00000000000000000000000000000000000000000000000000000000081526004016103b790610bf4565b60405180910390fd5b8273ffffffffffffffffffffffffffffffffffffffff166103e082610592565b73ffffffffffffffffffffffffffffffffffffffff1614610436576040517f08c379a000000000000000000000000000000000000000000000000000000000815260040161042d90610cac565b60405180910390fd5b816001600083815260200190815260200160002060006101000a81548173ffffffffffffffffffffffffffffffffffffffff021916908373ffffffffffffffffffffffffffffffffffffffff160217905550600260008473ffffffffffffffffffffffffffffffffffffffff1673ffffffffffffffffffffffffffffffffffffffff16815260200190815260200160002060008154809291906104d890610cfb565b9190505550600260008373ffffffffffffffffffffffffffffffffffffffff1673ffffffffffffffffffffffffffffffffffffffff168152602001908152602001600020600081548092919061052d90610d24565b9190505550808273ffffffffffffffffffffffffffffffffffffffff168473ffffffffffffffffffffffffffffffffffffffff167fddf252ad1be2c89b69c2b068fc378daa952ba7f163c4a11628f55a4df523b3ef60405160405180910390a4505050565b6000806001600084815260200190815260200160002060009054906101000a900473ffffffffffffffffffffffffffffffffffffffff169050600073ffffffffffffffffffffffffffffffffffffffff168173ffffffffffffffffffffffffffffffffffffffff160361063a576040517f08c379a000000000000000000000000000000000000000000000000000000000815260040161063190610dde565b60405180910390fd5b80915050919050565b60008073ffffffffffffffffffffffffffffffffffffffff168273ffffffffffffffffffffffffffffffffffffffff16036106b3576040517f08c379a00000000000000000000000000000000000000000000000000000000081526004016106aa90610e70565b60405180910390fd5b600260008373ffffffffffffffffffffffffffffffffffffffff1673ffffffffffffffffffffffffffffffffffffffff168152602001908152602001600020549050919050565b60008073ffffffffffffffffffffffffffffffffffffffff166001600084815260200190815260200160002060009054906101000a900473ffffffffffffffffffffffffffffffffffffffff1673ffffffffffffffffffffffffffffffffffffffff1614159050919050565b600080fd5b60007fffffffff0000000000000000000000000000000000000000000000000000000082169050919050565b6107a08161076b565b81146107ab57600080fd5b50565b6000813590506107bd81610797565b92915050565b6000602082840312156107d9576107d8610766565b5b60006107e7848285016107ae565b91505092915050565b60008115159050919050565b610805816107f0565b82525050565b600060208201905061082060008301846107fc565b92915050565b600073ffffffffffffffffffffffffffffffffffffffff82169050919050565b600061085182610826565b9050919050565b61086181610846565b811461086c57600080fd5b50565b60008135905061087e81610858565b92915050565b6000819050919050565b61089781610884565b81146108a257600080fd5b50565b6000813590506108b48161088e565b92915050565b6000806000606084860312156108d3576108d2610766565b5b60006108e18682870161086f565b93505060206108f28682870161086f565b9250506040610903868287016108a5565b9150509250925092565b60006020828403121561092357610922610766565b5b6000610931848285016108a5565b91505092915050565b61094381610846565b82525050565b600060208201905061095e600083018461093a565b92915050565b60006020828403121561097a57610979610766565b5b60006109888482850161086f565b91505092915050565b61099a81610884565b82525050565b60006020820190506109b56000830184610991565b92915050565b600082825260208201905092915050565b7f4552433136353a20616464496e746572666163653a207468697320696e74657260008201527f6661636520697320696e76616c69640000000000000000000000000000000000602082015250565b6000610a28602f836109bb565b9150610a33826109cc565b604082019050919050565b60006020820190508181036000830152610a5781610a1b565b9050919050565b7f4552433732313a207472616e7366657246726f6d3a2063616c6c65722069732060008201527f6e6f7420616c6c6f77656420746f206265206e756c6c00000000000000000000602082015250565b6000610aba6036836109bb565b9150610ac582610a5e565b604082019050919050565b60006020820190508181036000830152610ae981610aad565b9050919050565b7f4552433732313a207472616e7366657246726f6d3a20746f206164647265737360008201527f20697320696e76616c6964000000000000000000000000000000000000000000602082015250565b6000610b4c602b836109bb565b9150610b5782610af0565b604082019050919050565b60006020820190508181036000830152610b7b81610b3f565b9050919050565b7f4552433732313a207472616e7366657246726f6d3a20746f6b656e496420646f60008201527f6573206e6f742065786973740000000000000000000000000000000000000000602082015250565b6000610bde602c836109bb565b9150610be982610b82565b604082019050919050565b60006020820190508181036000830152610c0d81610bd1565b9050919050565b7f4552433732313a207472616e7366657246726f6d3a2063616c6c65722069732060008201527f6e6f7420616c6c6f77656420746f207472616e73666572207468697320746f6b60208201527f656e000000000000000000000000000000000000000000000000000000000000604082015250565b6000610c966042836109bb565b9150610ca182610c14565b606082019050919050565b60006020820190508181036000830152610cc581610c89565b9050919050565b7f4e487b7100000000000000000000000000000000000000000000000000000000600052601160045260246000fd5b6000610d0682610884565b915060008203610d1957610d18610ccc565b5b600182039050919050565b6000610d2f82610884565b91507fffffffffffffffffffffffffffffffffffffffffffffffffffffffffffffffff8203610d6157610d60610ccc565b5b600182019050919050565b7f4552433732313a206f776e65724f663a2063616c6c6572206973206e6f74206160008201527f6c6c6f77656420746f206265206e756c6c000000000000000000000000000000602082015250565b6000610dc86031836109bb565b9150610dd382610d6c565b604082019050919050565b60006020820190508181036000830152610df781610dbb565b9050919050565b7f4552433732313a2062616c616e63654f663a2063616c6c6572206973206e6f7460008201527f20616c6c6f77656420746f206265206e756c6c00000000000000000000000000602082015250565b6000610e5a6033836109bb565b9150610e6582610dfe565b604082019050919050565b60006020820190508181036000830152610e8981610e4d565b905091905056fea264697066735822122041cdd8c194e4144c0450e1bb5b58c37474604713cee14d8354e445ae42f1464564736f6c634300080f0033",
  "immutableReferences": {},
  "source": "// SPDX-License-Identifier: MIT\r\npragma solidity >=0.4.22 <0.9.0;\r\nimport './ERC165.sol';\r\nimport './interfaces/IERC721.sol';\r\n\r\ncontract ERC721 is ERC165, IERC721 {\r\n\r\n     // mapping from token id to owner\r\n     mapping(uint256 => address) private _tokenOwner;\r\n\r\n     // mapping of all tokens owned by the caller\r\n     mapping(address => uint256) private _ownedTokenCount;\r\n\r\n    // mapping from token id to addresses\r\n    mapping(uint256 => address) private _tokenApprovals;\r\n\r\n    // constructor \r\n    constructor(){\r\n        _registerInterface(bytes4(keccak256('balanceOf(address)')\r\n                                  ^keccak256('ownerOf(uint256)')\r\n                                  ^keccak256('transferFrom(address,address,uint256)')));\r\n    }\r\n    \r\n    // balance of person\r\n    function balanceOf(address _owner) public view returns (uint256) {\r\n        require(_owner != address(0), \"ERC721: balanceOf: caller is not allowed to be null\");\r\n        return _ownedTokenCount[_owner];\r\n    }\r\n    \r\n    // get owner of token\r\n    function ownerOf(uint256 _tokenId) public view returns (address) {\r\n        address owner = _tokenOwner[_tokenId];\r\n        require(owner != address(0), \"ERC721: ownerOf: caller is not allowed to be null\");\r\n        return owner;\r\n    }\r\n\r\n    // check if token is already existing\r\n    function _exists(uint256 tokenId) public view returns (bool){\r\n        return _tokenOwner[tokenId] != address(0);\r\n    }\r\n\r\n     // minting\r\n     function _mint(address to, uint256 tokenId) internal virtual{\r\n         require(to != address(0),\"ERC721: mint to address is invalid\");\r\n         require(!_exists(tokenId),\"ERC721: minting a token that already exists\");\r\n         _tokenOwner[tokenId] = to;\r\n         _ownedTokenCount[to]++;\r\n         emit Transfer(address(0), to, tokenId);\r\n     }\r\n\r\n    // transfer token\r\n    function transferFrom(address from, address to, uint256 tokenId) public virtual{\r\n        require(from != address(0), \"ERC721: transferFrom: caller is not allowed to be null\");\r\n        require(to != address(0), \"ERC721: transferFrom: to address is invalid\");\r\n        require(_exists(tokenId), \"ERC721: transferFrom: tokenId does not exist\");\r\n        require(ownerOf(tokenId) == from, \"ERC721: transferFrom: caller is not allowed to transfer this token\");\r\n        _tokenOwner[tokenId] = to;\r\n        _ownedTokenCount[from]--;\r\n        _ownedTokenCount[to]++;\r\n        emit Transfer(from, to, tokenId);\r\n    }\r\n     \r\n    // approve token for transfer\r\n\r\n}",
  "sourcePath": "C:\\Users\\pavan\\OneDrive\\Desktop\\Dapp\\nft-marketplace-starter-kit\\src\\contracts\\ERC721.sol",
  "compiler": {
    "name": "solc",
    "version": "0.8.15+commit.e14f2714.Emscripten.clang"
  },
  "schemaVersion": "3.4.8",
  "updatedAt": "2022-07-25T06:52:52.547Z",
  "devdoc": {
    "kind": "dev",
    "methods": {
      "supportsInterface(bytes4)": {
        "details": "Interface identification is specified in ERC-165. This function  uses less than 30,000 gas.",
        "params": {
          "interfaceID": "The interface identifier, as specified in ERC-165"
        },
        "returns": {
          "_0": "`true` if the contract implements `interfaceID` and  `interfaceID` is not 0xffffffff, `false` otherwise"
        }
      }
    },
    "version": 1
  },
  "userdoc": {
    "kind": "user",
    "methods": {
      "supportsInterface(bytes4)": {
        "notice": "Query if a contract implements an interface"
      }
    },
    "version": 1
  }
}