{
  "contractName": "FlipCard",
  "abi": [
    {
      "inputs": [],
      "stateMutability": "nonpayable",
      "type": "constructor"
    },
    {
      "anonymous": false,
      "inputs": [
        {
          "indexed": true,
          "internalType": "address",
          "name": "_owner",
          "type": "address"
        },
        {
          "indexed": true,
          "internalType": "address",
          "name": "_approved",
          "type": "address"
        },
        {
          "indexed": true,
          "internalType": "uint256",
          "name": "_tokenId",
          "type": "uint256"
        }
      ],
      "name": "Approval",
      "type": "event"
    },
    {
      "anonymous": false,
      "inputs": [
        {
          "indexed": true,
          "internalType": "address",
          "name": "_from",
          "type": "address"
        },
        {
          "indexed": true,
          "internalType": "address",
          "name": "_to",
          "type": "address"
        },
        {
          "indexed": true,
          "internalType": "uint256",
          "name": "_tokenId",
          "type": "uint256"
        }
      ],
      "name": "Transfer",
      "type": "event"
    },
    {
      "inputs": [
        {
          "internalType": "string",
          "name": "",
          "type": "string"
        }
      ],
      "name": "_flipcardExists",
      "outputs": [
        {
          "internalType": "bool",
          "name": "",
          "type": "bool"
        }
      ],
      "stateMutability": "view",
      "type": "function",
      "constant": true
    },
    {
      "inputs": [
        {
          "internalType": "string",
          "name": "",
          "type": "string"
        }
      ],
      "name": "_flipcardIds",
      "outputs": [
        {
          "internalType": "uint256",
          "name": "",
          "type": "uint256"
        }
      ],
      "stateMutability": "view",
      "type": "function",
      "constant": true
    },
    {
      "inputs": [
        {
          "internalType": "bytes4",
          "name": "interfaceID",
          "type": "bytes4"
        }
      ],
      "name": "_registerInterface",
      "outputs": [],
      "stateMutability": "nonpayable",
      "type": "function"
    },
    {
      "inputs": [
        {
          "internalType": "address",
          "name": "_owner",
          "type": "address"
        }
      ],
      "name": "allTokensOfOwner",
      "outputs": [
        {
          "internalType": "uint256[]",
          "name": "",
          "type": "uint256[]"
        }
      ],
      "stateMutability": "view",
      "type": "function",
      "constant": true
    },
    {
      "inputs": [
        {
          "internalType": "address",
          "name": "to",
          "type": "address"
        },
        {
          "internalType": "uint256",
          "name": "tokenId",
          "type": "uint256"
        }
      ],
      "name": "approve",
      "outputs": [],
      "stateMutability": "nonpayable",
      "type": "function"
    },
    {
      "inputs": [
        {
          "internalType": "address",
          "name": "_owner",
          "type": "address"
        }
      ],
      "name": "balanceOf",
      "outputs": [
        {
          "internalType": "uint256",
          "name": "",
          "type": "uint256"
        }
      ],
      "stateMutability": "view",
      "type": "function",
      "constant": true
    },
    {
      "inputs": [
        {
          "internalType": "uint256",
          "name": "",
          "type": "uint256"
        }
      ],
      "name": "flipCards",
      "outputs": [
        {
          "internalType": "string",
          "name": "",
          "type": "string"
        }
      ],
      "stateMutability": "view",
      "type": "function",
      "constant": true
    },
    {
      "inputs": [
        {
          "internalType": "string",
          "name": "",
          "type": "string"
        }
      ],
      "name": "flipcardDetails",
      "outputs": [
        {
          "internalType": "string",
          "name": "serialNumber",
          "type": "string"
        },
        {
          "internalType": "string",
          "name": "email",
          "type": "string"
        },
        {
          "internalType": "string",
          "name": "mobileNumber",
          "type": "string"
        },
        {
          "internalType": "string",
          "name": "itemName",
          "type": "string"
        },
        {
          "internalType": "uint256",
          "name": "createdDate",
          "type": "uint256"
        },
        {
          "internalType": "uint256",
          "name": "expiryDate",
          "type": "uint256"
        },
        {
          "internalType": "uint256",
          "name": "lastRepairIndex",
          "type": "uint256"
        },
        {
          "internalType": "string",
          "name": "flipcard",
          "type": "string"
        }
      ],
      "stateMutability": "view",
      "type": "function",
      "constant": true
    },
    {
      "inputs": [
        {
          "internalType": "uint256",
          "name": "tokenId",
          "type": "uint256"
        }
      ],
      "name": "getApproved",
      "outputs": [
        {
          "internalType": "address",
          "name": "",
          "type": "address"
        }
      ],
      "stateMutability": "view",
      "type": "function",
      "constant": true
    },
    {
      "inputs": [],
      "name": "name",
      "outputs": [
        {
          "internalType": "string",
          "name": "",
          "type": "string"
        }
      ],
      "stateMutability": "view",
      "type": "function",
      "constant": true
    },
    {
      "inputs": [
        {
          "internalType": "uint256",
          "name": "_tokenId",
          "type": "uint256"
        }
      ],
      "name": "ownerOf",
      "outputs": [
        {
          "internalType": "address",
          "name": "",
          "type": "address"
        }
      ],
      "stateMutability": "view",
      "type": "function",
      "constant": true
    },
    {
      "inputs": [
        {
          "internalType": "string",
          "name": "",
          "type": "string"
        },
        {
          "internalType": "uint256",
          "name": "",
          "type": "uint256"
        }
      ],
      "name": "repairs",
      "outputs": [
        {
          "internalType": "string",
          "name": "",
          "type": "string"
        }
      ],
      "stateMutability": "view",
      "type": "function",
      "constant": true
    },
    {
      "inputs": [
        {
          "internalType": "string",
          "name": "",
          "type": "string"
        }
      ],
      "name": "serialIdData",
      "outputs": [
        {
          "internalType": "string",
          "name": "serialNumber",
          "type": "string"
        },
        {
          "internalType": "string",
          "name": "email",
          "type": "string"
        },
        {
          "internalType": "string",
          "name": "mobileNumber",
          "type": "string"
        },
        {
          "internalType": "string",
          "name": "itemName",
          "type": "string"
        },
        {
          "internalType": "uint256",
          "name": "createdDate",
          "type": "uint256"
        },
        {
          "internalType": "uint256",
          "name": "expiryDate",
          "type": "uint256"
        },
        {
          "internalType": "uint256",
          "name": "lastRepairIndex",
          "type": "uint256"
        },
        {
          "internalType": "string",
          "name": "flipcard",
          "type": "string"
        }
      ],
      "stateMutability": "view",
      "type": "function",
      "constant": true
    },
    {
      "inputs": [
        {
          "internalType": "bytes4",
          "name": "interfaceID",
          "type": "bytes4"
        }
      ],
      "name": "supportsInterface",
      "outputs": [
        {
          "internalType": "bool",
          "name": "",
          "type": "bool"
        }
      ],
      "stateMutability": "view",
      "type": "function",
      "constant": true
    },
    {
      "inputs": [],
      "name": "symbol",
      "outputs": [
        {
          "internalType": "string",
          "name": "",
          "type": "string"
        }
      ],
      "stateMutability": "view",
      "type": "function",
      "constant": true
    },
    {
      "inputs": [
        {
          "internalType": "uint256",
          "name": "index",
          "type": "uint256"
        }
      ],
      "name": "tokenByIndex",
      "outputs": [
        {
          "internalType": "uint256",
          "name": "",
          "type": "uint256"
        }
      ],
      "stateMutability": "view",
      "type": "function",
      "constant": true
    },
    {
      "inputs": [
        {
          "internalType": "address",
          "name": "owner",
          "type": "address"
        },
        {
          "internalType": "uint256",
          "name": "index",
          "type": "uint256"
        }
      ],
      "name": "tokenOfOwnerByIndex",
      "outputs": [
        {
          "internalType": "uint256",
          "name": "",
          "type": "uint256"
        }
      ],
      "stateMutability": "view",
      "type": "function",
      "constant": true
    },
    {
      "inputs": [],
      "name": "totalSupply",
      "outputs": [
        {
          "internalType": "uint256",
          "name": "",
          "type": "uint256"
        }
      ],
      "stateMutability": "view",
      "type": "function",
      "constant": true
    },
    {
      "inputs": [
        {
          "internalType": "address",
          "name": "from",
          "type": "address"
        },
        {
          "internalType": "address",
          "name": "to",
          "type": "address"
        },
        {
          "internalType": "uint256",
          "name": "tokenId",
          "type": "uint256"
        }
      ],
      "name": "transferFrom",
      "outputs": [],
      "stateMutability": "nonpayable",
      "type": "function"
    },
    {
      "inputs": [
        {
          "internalType": "string",
          "name": "flipCard",
          "type": "string"
        }
      ],
      "name": "getFlipCardId",
      "outputs": [
        {
          "internalType": "uint256",
          "name": "",
          "type": "uint256"
        }
      ],
      "stateMutability": "view",
      "type": "function",
      "constant": true
    },
    {
      "inputs": [
        {
          "internalType": "string",
          "name": "flipcard",
          "type": "string"
        },
        {
          "internalType": "string",
          "name": "serialNumber",
          "type": "string"
        },
        {
          "internalType": "string",
          "name": "email",
          "type": "string"
        },
        {
          "internalType": "string",
          "name": "mobileNumber",
          "type": "string"
        },
        {
          "internalType": "string",
          "name": "itemName",
          "type": "string"
        },
        {
          "internalType": "uint256",
          "name": "expiryMonths",
          "type": "uint256"
        }
      ],
      "name": "mint",
      "outputs": [],
      "stateMutability": "nonpayable",
      "type": "function"
    },
    {
      "inputs": [
        {
          "internalType": "address",
          "name": "to",
          "type": "address"
        },
        {
          "internalType": "uint256",
          "name": "_id",
          "type": "uint256"
        },
        {
          "internalType": "string",
          "name": "email",
          "type": "string"
        },
        {
          "internalType": "string",
          "name": "mobileNumber",
          "type": "string"
        }
      ],
      "name": "_transferFrom",
      "outputs": [],
      "stateMutability": "nonpayable",
      "type": "function"
    },
    {
      "inputs": [
        {
          "internalType": "string",
          "name": "flipcard",
          "type": "string"
        }
      ],
      "name": "getData",
      "outputs": [
        {
          "components": [
            {
              "internalType": "string",
              "name": "serialNumber",
              "type": "string"
            },
            {
              "internalType": "string",
              "name": "email",
              "type": "string"
            },
            {
              "internalType": "string",
              "name": "mobileNumber",
              "type": "string"
            },
            {
              "internalType": "string",
              "name": "itemName",
              "type": "string"
            },
            {
              "internalType": "uint256",
              "name": "createdDate",
              "type": "uint256"
            },
            {
              "internalType": "uint256",
              "name": "expiryDate",
              "type": "uint256"
            },
            {
              "internalType": "string[]",
              "name": "previousRepairs",
              "type": "string[]"
            },
            {
              "internalType": "uint256",
              "name": "lastRepairIndex",
              "type": "uint256"
            },
            {
              "internalType": "string",
              "name": "flipcard",
              "type": "string"
            }
          ],
          "internalType": "struct FlipCard.CardDetails",
          "name": "",
          "type": "tuple"
        }
      ],
      "stateMutability": "view",
      "type": "function",
      "constant": true
    },
    {
      "inputs": [
        {
          "internalType": "string",
          "name": "serialNumber",
          "type": "string"
        }
      ],
      "name": "getOwnerBySerialNumber",
      "outputs": [
        {
          "internalType": "string",
          "name": "",
          "type": "string"
        }
      ],
      "stateMutability": "view",
      "type": "function",
      "constant": true
    },
    {
      "inputs": [
        {
          "internalType": "string",
          "name": "serialNumber",
          "type": "string"
        },
        {
          "internalType": "string",
          "name": "repair",
          "type": "string"
        }
      ],
      "name": "addRepair",
      "outputs": [],
      "stateMutability": "nonpayable",
      "type": "function"
    }
  ],
  "bytecode": "0x608060405234801561001057600080fd5b5060405180604001604052806008815260200167119b1a5c10d85c9960c21b81525060405180604001604052806002815260200161464360f01b815250818161007e7f01ffc9a7a5cef8baa21ed3c5c0d7e23accb804b619e9333b597f47a0d84076e261011e60201b60201c565b6100a77f932545426104aec98a84b11f89010e409615d4e118552c694c4a726f29caf77a61011e565b60016100b38382610258565b5060026100c08282610258565b506100ee91507f304ad1f2afea4ffb313492ce5bd338832dfd9845798d2faba4c0462e1ca9a2a9905061011e565b6101177f780e9d631e748bd3b2cb04616c092832f76c29bf76677dc18f4bcbbd18ccb9bf61011e565b5050610316565b6001600160e01b031980821690036101945760405162461bcd60e51b815260206004820152602f60248201527f4552433136353a20616464496e746572666163653a207468697320696e74657260448201526e199858d9481a5cc81a5b9d985b1a59608a1b606482015260840160405180910390fd5b6001600160e01b0319166000908152602081905260409020805460ff19166001179055565b634e487b7160e01b600052604160045260246000fd5b600181811c908216806101e357607f821691505b60208210810361020357634e487b7160e01b600052602260045260246000fd5b50919050565b601f82111561025357806000526020600020601f840160051c810160208510156102305750805b601f840160051c820191505b81811015610250576000815560010161023c565b50505b505050565b81516001600160401b03811115610271576102716101b9565b6102858161027f84546101cf565b84610209565b6020601f8211600181146102b957600083156102a15750848201515b600019600385901b1c1916600184901b178455610250565b600084815260208120601f198516915b828110156102e957878501518255602094850194600190920191016102c9565b50848210156103075786840151600019600387901b60f8161c191681555b50505050600190811b01905550565b612a3c806103256000396000f3fe608060405234801561001057600080fd5b50600436106101735760003560e01c80634a502851116100de5780638615cb4711610097578063ba1d9be211610071578063ba1d9be2146103a7578063c032e35f146103ba578063e5888368146103cd578063eb67a409146103e057600080fd5b80638615cb471461036c57806395d89b411461037f578063ae55c8881461038757600080fd5b80634a502851146102e25780634f6ccce7146102f55780636352211e146103085780636ee528ec1461031b57806370a082311461032e5780637f4026a31461034157600080fd5b80631903bdda116101305780631903bdda1461023457806323b872dd146102475780632b60bf881461025a5780632f745c591461028857806333a15d7d1461029b5780633c99e2e9146102c257600080fd5b806301ffc9a714610178578063068417d9146101ba57806306fdde03146101cf578063081812fc146101e4578063095ea7b31461020f57806318160ddd14610222575b600080fd5b6101a5610186366004612062565b6001600160e01b03191660009081526020819052604090205460ff1690565b60405190151581526020015b60405180910390f35b6101cd6101c8366004612062565b6103f3565b005b6101d761048f565b6040516101b191906120e3565b6101f76101f23660046120f6565b610521565b6040516001600160a01b0390911681526020016101b1565b6101cd61021d36600461212b565b6105b3565b6006545b6040519081526020016101b1565b6101d76102423660046120f6565b6106f7565b6101cd610255366004612155565b6107a3565b6101a5610268366004612235565b8051602081830181018051600c8252928201919093012091525460ff1681565b61022661029636600461212b565b6107c7565b6102ae6102a9366004612235565b6108f1565b6040516101b1989796959493929190612271565b6102d56102d03660046122f5565b610be4565b6040516101b19190612310565b6101cd6102f0366004612353565b610c50565b6102266103033660046120f6565b610e52565b6101f76103163660046120f6565b610ee1565b6101d7610329366004612235565b610f54565b61022661033c3660046122f5565b610ffd565b61022661034f366004612235565b8051602081830181018051600d8252928201919093012091525481565b6101d761037a3660046123d4565b611086565b6101d76110cd565b61039a610395366004612235565b6110dc565b6040516101b19190612474565b6102266103b5366004612235565b61152d565b6102ae6103c8366004612235565b611555565b6101cd6103db366004612551565b61157b565b6101cd6103ee366004612642565b6118b2565b6001600160e01b0319808216900361046a5760405162461bcd60e51b815260206004820152602f60248201527f4552433136353a20616464496e746572666163653a207468697320696e74657260448201526e199858d9481a5cc81a5b9d985b1a59608a1b60648201526084015b60405180910390fd5b6001600160e01b0319166000908152602081905260409020805460ff19166001179055565b60606001805461049e906126a9565b80601f01602080910402602001604051908101604052809291908181526020018280546104ca906126a9565b80156105175780601f106104ec57610100808354040283529160200191610517565b820191906000526020600020905b8154815290600101906020018083116104fa57829003601f168201915b5050505050905090565b6000818152600360205260408120546001600160a01b03166105975760405162461bcd60e51b815260206004820152602960248201527f4552433732313a20676574417070726f7665643a20746f6b656e20646f6573206044820152681b9bdd08195e1a5cdd60ba1b6064820152608401610461565b506000908152600560205260409020546001600160a01b031690565b60006105be82610ee1565b9050806001600160a01b0316836001600160a01b0316036106315760405162461bcd60e51b815260206004820152602760248201527f4552433732313a20617070726f766520746f206f776e6572206973206e6f7420604482015266185b1b1bddd95960ca1b6064820152608401610461565b336001600160a01b0382161461069b5760405162461bcd60e51b815260206004820152602960248201527f4552433732313a20617070726f76652063616c6c6572206973206e6f7420746f60448201526835b2b71037bbb732b960b91b6064820152608401610461565b60008281526005602052604080822080546001600160a01b0319166001600160a01b0387811691821790925591518593918516917f8c5be1e5ebec7d5bd14f71427d1e84f3dd0314c0f7b2291e5b200ac8c7c3b92591a4505050565b600a818154811061070757600080fd5b906000526020600020016000915090508054610722906126a9565b80601f016020809104026020016040519081016040528092919081815260200182805461074e906126a9565b801561079b5780601f106107705761010080835404028352916020019161079b565b820191906000526020600020905b81548152906001019060200180831161077e57829003601f168201915b505050505081565b6107ae838383611996565b6107b88382611c1f565b6107c28282611d3f565b505050565b60006001600160a01b0383166108345760405162461bcd60e51b815260206004820152602c60248201527f4552433732313a20746f6b656e4f664f776e65724279496e6465783a20696e7660448201526b616c6964206164647265737360a01b6064820152608401610461565b6001600160a01b03831660009081526008602052604090205482106108b35760405162461bcd60e51b815260206004820152602f60248201527f4552433732313a20746f6b656e4f664f776e65724279496e6465783a20696e6460448201526e6578206f7574206f662072616e676560881b6064820152608401610461565b6001600160a01b03831660009081526008602052604090208054839081106108dd576108dd6126e3565b906000526020600020015490505b92915050565b8051602081830181018051600b82529282019190930120915280548190610917906126a9565b80601f0160208091040260200160405190810160405280929190818152602001828054610943906126a9565b80156109905780601f1061096557610100808354040283529160200191610990565b820191906000526020600020905b81548152906001019060200180831161097357829003601f168201915b5050505050908060010180546109a5906126a9565b80601f01602080910402602001604051908101604052809291908181526020018280546109d1906126a9565b8015610a1e5780601f106109f357610100808354040283529160200191610a1e565b820191906000526020600020905b815481529060010190602001808311610a0157829003601f168201915b505050505090806002018054610a33906126a9565b80601f0160208091040260200160405190810160405280929190818152602001828054610a5f906126a9565b8015610aac5780601f10610a8157610100808354040283529160200191610aac565b820191906000526020600020905b815481529060010190602001808311610a8f57829003601f168201915b505050505090806003018054610ac1906126a9565b80601f0160208091040260200160405190810160405280929190818152602001828054610aed906126a9565b8015610b3a5780601f10610b0f57610100808354040283529160200191610b3a565b820191906000526020600020905b815481529060010190602001808311610b1d57829003601f168201915b505050505090806004015490806005015490806007015490806008018054610b61906126a9565b80601f0160208091040260200160405190810160405280929190818152602001828054610b8d906126a9565b8015610bda5780601f10610baf57610100808354040283529160200191610bda565b820191906000526020600020905b815481529060010190602001808311610bbd57829003601f168201915b5050505050905088565b6001600160a01b038116600090815260086020908152604091829020805483518184028101840190945280845260609392830182828015610c4457602002820191906000526020600020905b815481526020019060010190808311610c30575b50505050509050919050565b610c5b3385856107a3565b6000600a8481548110610c7057610c706126e3565b906000526020600020018054610c85906126a9565b80601f0160208091040260200160405190810160405280929190818152602001828054610cb1906126a9565b8015610cfe5780601f10610cd357610100808354040283529160200191610cfe565b820191906000526020600020905b815481529060010190602001808311610ce157829003601f168201915b5050505050905082600b82604051610d1691906126f9565b90815260200160405180910390206001019081610d339190612763565b5081600b82604051610d4591906126f9565b90815260200160405180910390206002019081610d629190612763565b50600b81604051610d7391906126f9565b9081526020016040518091039020600e600b83604051610d9391906126f9565b908152604051908190036020018120610dab91612824565b90815260405190819003602001902080610dc58382612899565b50600181810190610dd890840182612899565b50600281810190610deb90840182612899565b50600381810190610dfe90840182612899565b5060048201548160040155600582015481600501556006820181600601908054610e29929190611f55565b506007820154816007015560088201816008019081610e489190612899565b5050505050505050565b6000610e5d60065490565b8210610ebc5760405162461bcd60e51b815260206004820152602860248201527f4552433732313a20746f6b656e4279496e6465783a20696e646578206f7574206044820152676f662072616e676560c01b6064820152608401610461565b60068281548110610ecf57610ecf6126e3565b90600052602060002001549050919050565b6000818152600360205260408120546001600160a01b0316806108eb5760405162461bcd60e51b815260206004820152602560248201527f4552433732313a206f776e65724f663a20746f6b656e20646f6573206e6f7420604482015264195e1a5cdd60da1b6064820152608401610461565b6060600e82604051610f6691906126f9565b90815260200160405180910390206001018054610f82906126a9565b80601f0160208091040260200160405190810160405280929190818152602001828054610fae906126a9565b8015610c445780601f10610fd057610100808354040283529160200191610c44565b820191906000526020600020905b815481529060010190602001808311610fde5750939695505050505050565b60006001600160a01b03821661106a5760405162461bcd60e51b815260206004820152602c60248201527f4552433732313a2062616c616e63654f663a2061646472657373207a65726f2060448201526b1a5cc81b9bdd081d985b1a5960a21b6064820152608401610461565b506001600160a01b031660009081526004602052604090205490565b8151602081840181018051600f8252928201918501919091209190528054829081106110b157600080fd5b90600052602060002001600091509150508054610722906126a9565b60606002805461049e906126a9565b61112b6040518061012001604052806060815260200160608152602001606081526020016060815260200160008152602001600081526020016060815260200160008152602001606081525090565b600b8260405161113b91906126f9565b908152602001604051809103902060405180610120016040529081600082018054611165906126a9565b80601f0160208091040260200160405190810160405280929190818152602001828054611191906126a9565b80156111de5780601f106111b3576101008083540402835291602001916111de565b820191906000526020600020905b8154815290600101906020018083116111c157829003601f168201915b505050505081526020016001820180546111f7906126a9565b80601f0160208091040260200160405190810160405280929190818152602001828054611223906126a9565b80156112705780601f1061124557610100808354040283529160200191611270565b820191906000526020600020905b81548152906001019060200180831161125357829003601f168201915b50505050508152602001600282018054611289906126a9565b80601f01602080910402602001604051908101604052809291908181526020018280546112b5906126a9565b80156113025780601f106112d757610100808354040283529160200191611302565b820191906000526020600020905b8154815290600101906020018083116112e557829003601f168201915b5050505050815260200160038201805461131b906126a9565b80601f0160208091040260200160405190810160405280929190818152602001828054611347906126a9565b80156113945780601f1061136957610100808354040283529160200191611394565b820191906000526020600020905b81548152906001019060200180831161137757829003601f168201915b50505050508152602001600482015481526020016005820154815260200160068201805480602002602001604051908101604052809291908181526020016000905b828210156114825783829060005260206000200180546113f5906126a9565b80601f0160208091040260200160405190810160405280929190818152602001828054611421906126a9565b801561146e5780601f106114435761010080835404028352916020019161146e565b820191906000526020600020905b81548152906001019060200180831161145157829003601f168201915b5050505050815260200190600101906113d6565b505050508152602001600782015481526020016008820180546114a4906126a9565b80601f01602080910402602001604051908101604052809291908181526020018280546114d0906126a9565b801561151d5780601f106114f25761010080835404028352916020019161151d565b820191906000526020600020905b81548152906001019060200180831161150057829003601f168201915b5050505050815250509050919050565b6000600d8260405161153f91906126f9565b9081526020016040518091039020549050919050565b8051602081830181018051600e82529282019190930120915280548190610917906126a9565b600c8660405161158b91906126f9565b9081526040519081900360200190205460ff16156115eb5760405162461bcd60e51b815260206004820152601e60248201527f4572726f723a20666c69706361726420616c72656164792065786973747300006044820152606401610461565b600a80546001810182556000919091527fc65a7bb8d6351c1cf70c95a316cc6a92839c986682d98bc35f958f4883f9d2a8016116278782612763565b50600a5460009061163a90600190612983565b90506116463382611d8f565b80600d8860405161165791906126f9565b9081526020016040518091039020819055506001600c8860405161167b91906126f9565b908152602001604051809103902060006101000a81548160ff021916908315150217905550606060405180610120016040528088815260200187815260200186815260200185815260200142815260200184601e6116d99190612996565b6116e4906018612996565b6116ef90603c612996565b6116fa90603c612996565b61170490426129ad565b81526020018281526020016000815260200189815250600b8960405161172a91906126f9565b908152604051908190036020019020815181906117479082612763565b506020820151600182019061175c9082612763565b50604082015160028201906117719082612763565b50606082015160038201906117869082612763565b506080820151600482015560a0820151600582015560c082015180516117b6916006840191602090910190611fad565b5060e0820151600782015561010082015160088201906117d69082612763565b50905050600b886040516117ea91906126f9565b9081526020016040518091039020600e8860405161180891906126f9565b908152604051908190036020019020806118228382612899565b5060018181019061183590840182612899565b5060028181019061184890840182612899565b5060038181019061185b90840182612899565b5060048201548160040155600582015481600501556006820181600601908054611886929190611f55565b5060078201548160070155600882018160080190816118a59190612899565b5050505050505050505050565b6000600b600e846040516118c691906126f9565b90815260200160405180910390206008016040516118e49190612824565b9081526020016040518091039020905060648160070154106119585760405162461bcd60e51b815260206004820152602760248201527f4572726f723a2063616e6e6f7420616464206d6f7265207468616e20313030206044820152667265706169727360c81b6064820152608401610461565b60068101805460018101825560009182526020909120016119798382612763565b5060078101805490600061198c836129c0565b9190505550505050565b6001600160a01b0383166119ff5760405162461bcd60e51b815260206004820152602a60248201527f4552433732313a207472616e7366657246726f6d3a20696e76616c69642066726044820152696f6d206164647265737360b01b6064820152608401610461565b6001600160a01b038216611a665760405162461bcd60e51b815260206004820152602860248201527f4552433732313a207472616e7366657246726f6d3a20696e76616c696420746f604482015267206164647265737360c01b6064820152608401610461565b6000818152600360205260409020546001600160a01b0316611add5760405162461bcd60e51b815260206004820152602a60248201527f4552433732313a207472616e7366657246726f6d3a20746f6b656e20646f6573604482015269081b9bdd08195e1a5cdd60b21b6064820152608401610461565b826001600160a01b0316611af082610ee1565b6001600160a01b031614611b655760405162461bcd60e51b815260206004820152603660248201527f4552433732313a207472616e7366657246726f6d3a2063616c6c6572206973206044820152753737ba1037bbb732b91037b3103a3432903a37b5b2b760511b6064820152608401610461565b600081815260036020908152604080832080546001600160a01b0319166001600160a01b03878116919091179091558616835260049091528120805491611bab836129d9565b90915550506001600160a01b0382166000908152600460205260408120805491611bd4836129c0565b919050555080826001600160a01b0316846001600160a01b03167fddf252ad1be2c89b69c2b068fc378daa952ba7f163c4a11628f55a4df523b3ef60405160405180910390a4505050565b6000818152600960209081526040808320546001600160a01b03861684526008909252822054909190611c5490600190612983565b9050808214611ceb576001600160a01b0384166000908152600860205260408120805483908110611c8757611c876126e3565b906000526020600020015490508060086000876001600160a01b03166001600160a01b031681526020019081526020016000208481548110611ccb57611ccb6126e3565b600091825260208083209091019290925591825260099052604090208290555b6001600160a01b0384166000908152600860205260409020805480611d1257611d126129f0565b60008281526020808220830160001990810183905590920190925593815260099093525050604081205550565b6001600160a01b0382166000818152600860209081526040822080546001818101835582855292842001859055929091529054611d7c9190612983565b6000918252600960205260409091205550565b611d998282611db0565b611da281611f00565b611dac8282611d3f565b5050565b6001600160a01b038216611e185760405162461bcd60e51b815260206004820152602960248201527f4552433732313a206d696e7420746f2061646472657373207a65726f206973206044820152681b9bdd081d985b1a5960ba1b6064820152608401610461565b6000818152600360205260409020546001600160a01b031615611e7d5760405162461bcd60e51b815260206004820152601c60248201527f4552433732313a20746f6b656e20616c7265616479206d696e746564000000006044820152606401610461565b600081815260036020908152604080832080546001600160a01b0319166001600160a01b038716908117909155835260049091528120805491611ebf836129c0565b909155505060405181906001600160a01b038416906000907fddf252ad1be2c89b69c2b068fc378daa952ba7f163c4a11628f55a4df523b3ef908290a45050565b600680546001818101835560008390527ff652222313e28459528d920b65115c16c04f3efc82aaedc97be59f3f377c0d3f9091018390559054611f439190612983565b60009182526007602052604090912055565b828054828255906000526020600020908101928215611f9d5760005260206000209182015b82811115611f9d5781611f8d8482612899565b5091600101919060010190611f7a565b50611fa9929150611ff3565b5090565b828054828255906000526020600020908101928215611f9d579160200282015b82811115611f9d5782518290611fe39082612763565b5091602001919060010190611fcd565b80821115611fa95760006120078282612010565b50600101611ff3565b50805461201c906126a9565b6000825580601f1061202c575050565b601f01602090049060005260206000209081019061204a919061204d565b50565b5b80821115611fa9576000815560010161204e565b60006020828403121561207457600080fd5b81356001600160e01b03198116811461208c57600080fd5b9392505050565b60005b838110156120ae578181015183820152602001612096565b50506000910152565b600081518084526120cf816020860160208601612093565b601f01601f19169290920160200192915050565b60208152600061208c60208301846120b7565b60006020828403121561210857600080fd5b5035919050565b80356001600160a01b038116811461212657600080fd5b919050565b6000806040838503121561213e57600080fd5b6121478361210f565b946020939093013593505050565b60008060006060848603121561216a57600080fd5b6121738461210f565b92506121816020850161210f565b929592945050506040919091013590565b634e487b7160e01b600052604160045260246000fd5b600082601f8301126121b957600080fd5b81356001600160401b038111156121d2576121d2612192565b604051601f8201601f19908116603f011681016001600160401b038111828210171561220057612200612192565b60405281815283820160200185101561221857600080fd5b816020850160208301376000918101602001919091529392505050565b60006020828403121561224757600080fd5b81356001600160401b0381111561225d57600080fd5b612269848285016121a8565b949350505050565b6101008152600061228661010083018b6120b7565b8281036020840152612298818b6120b7565b905082810360408401526122ac818a6120b7565b905082810360608401526122c081896120b7565b90508660808401528560a08401528460c084015282810360e08401526122e681856120b7565b9b9a5050505050505050505050565b60006020828403121561230757600080fd5b61208c8261210f565b602080825282518282018190526000918401906040840190835b8181101561234857835183526020938401939092019160010161232a565b509095945050505050565b6000806000806080858703121561236957600080fd5b6123728561210f565b93506020850135925060408501356001600160401b0381111561239457600080fd5b6123a0878288016121a8565b92505060608501356001600160401b038111156123bc57600080fd5b6123c8878288016121a8565b91505092959194509250565b600080604083850312156123e757600080fd5b82356001600160401b038111156123fd57600080fd5b612409858286016121a8565b95602094909401359450505050565b600082825180855260208501945060208160051b8301016020850160005b8381101561246857601f198584030188526124528383516120b7565b6020988901989093509190910190600101612436565b50909695505050505050565b602081526000825161012060208401526124926101408401826120b7565b90506020840151601f198483030160408501526124af82826120b7565b9150506040840151601f198483030160608501526124cd82826120b7565b9150506060840151601f198483030160808501526124eb82826120b7565b915050608084015160a084015260a084015160c084015260c0840151601f198483030160e085015261251d8282612418565b91505060e0840151610100840152610100840151601f198483030161012085015261254882826120b7565b95945050505050565b60008060008060008060c0878903121561256a57600080fd5b86356001600160401b0381111561258057600080fd5b61258c89828a016121a8565b96505060208701356001600160401b038111156125a857600080fd5b6125b489828a016121a8565b95505060408701356001600160401b038111156125d057600080fd5b6125dc89828a016121a8565b94505060608701356001600160401b038111156125f857600080fd5b61260489828a016121a8565b93505060808701356001600160401b0381111561262057600080fd5b61262c89828a016121a8565b9699959850939692959460a09093013593505050565b6000806040838503121561265557600080fd5b82356001600160401b0381111561266b57600080fd5b612677858286016121a8565b92505060208301356001600160401b0381111561269357600080fd5b61269f858286016121a8565b9150509250929050565b600181811c908216806126bd57607f821691505b6020821081036126dd57634e487b7160e01b600052602260045260246000fd5b50919050565b634e487b7160e01b600052603260045260246000fd5b6000825161270b818460208701612093565b9190910192915050565b601f8211156107c257806000526020600020601f840160051c8101602085101561273c5750805b601f840160051c820191505b8181101561275c5760008155600101612748565b5050505050565b81516001600160401b0381111561277c5761277c612192565b6127908161278a84546126a9565b84612715565b6020601f8211600181146127c757600083156127ac5750848201515b600184901b600019600386901b1c198216175b85555061275c565b600084815260208120601f198516915b828110156127f757878501518255602094850194600190920191016127d7565b50848210156128155786840151600019600387901b60f8161c191681555b50505050600190811b01905550565b6000808354612832816126a9565b600182168015612849576001811461285e5761288e565b60ff198316865281151582028601935061288e565b86600052602060002060005b838110156128865781548882015260019091019060200161286a565b505081860193505b509195945050505050565b8181036128a4575050565b6128ae82546126a9565b6001600160401b038111156128c5576128c5612192565b6128d38161278a84546126a9565b6000601f82116001811461290557600083156127ac575081850154600184901b600019600386901b1c198216176127bf565b600085815260209020601f19841690600086815260209020845b8381101561293f578286015482556001958601959091019060200161291f565b508583101561295d5781850154600019600388901b60f8161c191681555b5050505050600190811b01905550565b634e487b7160e01b600052601160045260246000fd5b818103818111156108eb576108eb61296d565b80820281158282048414176108eb576108eb61296d565b808201808211156108eb576108eb61296d565b6000600182016129d2576129d261296d565b5060010190565b6000816129e8576129e861296d565b506000190190565b634e487b7160e01b600052603160045260246000fdfea264697066735822122038a08f04c510604762f0b04c14ff544242899f0cd70c2f91aafcb14a874f845564736f6c634300081c0033",
  "immutableReferences": {},
  "source": "// SPDX-License-Identifier: MIT\r\npragma solidity ^0.8.0;\r\n\r\nimport './ERC721Connector.sol';\r\n\r\ncontract FlipCard is ERC721Connector {\r\n    string[] public flipCards;\r\n\r\n    struct CardDetails {\r\n        string serialNumber;\r\n        string email;\r\n        string mobileNumber;\r\n        string itemName;\r\n        uint createdDate;\r\n        uint expiryDate;\r\n        string[] previousRepairs;\r\n        uint lastRepairIndex;\r\n        string flipcard;\r\n    }\r\n\r\n    mapping(string => CardDetails) public flipcardDetails;\r\n    mapping(string => bool) public _flipcardExists;\r\n    mapping(string => uint256) public _flipcardIds;\r\n    mapping(string => CardDetails) public serialIdData;\r\n    mapping(string => string[]) public repairs;\r\n\r\n    // Getting the ID of a flipcard by its serial number\r\n    function getFlipCardId(string memory flipCard) public view returns (uint256) {\r\n        return _flipcardIds[flipCard];\r\n    }\r\n\r\n    /**\r\n     * @dev Mint a new flipcard with specific details.\r\n     * @param flipcard The unique ID of the flipcard.\r\n     * @param serialNumber The serial number of the item.\r\n     * @param email The email associated with the flipcard.\r\n     * @param mobileNumber The mobile number associated with the flipcard.\r\n     * @param itemName The item name associated with the flipcard.\r\n     * @param expiryMonths The expiration period in months.\r\n     */\r\n    function mint(\r\n        string memory flipcard,\r\n        string memory serialNumber,\r\n        string memory email,\r\n        string memory mobileNumber,\r\n        string memory itemName,\r\n        uint expiryMonths\r\n    ) public {\r\n        require(!_flipcardExists[flipcard], \"Error: flipcard already exists\");\r\n\r\n        flipCards.push(flipcard);\r\n        uint _id = flipCards.length - 1;\r\n        _mint(msg.sender, _id);\r\n        _flipcardIds[flipcard] = _id;\r\n        _flipcardExists[flipcard] = true;\r\n\r\n        // Initialize flipcard details\r\n        string[] memory temp; // Max of 100 repairs\r\n        flipcardDetails[flipcard] = CardDetails(\r\n            serialNumber,\r\n            email,\r\n            mobileNumber,\r\n            itemName,\r\n            block.timestamp,\r\n            block.timestamp + expiryMonths * 30 * 24 * 60 * 60, // Expiry time in seconds\r\n            temp,\r\n            0,\r\n            flipcard\r\n        );\r\n\r\n        // Link serial number to flipcard details\r\n        serialIdData[serialNumber] = flipcardDetails[flipcard];\r\n    }\r\n\r\n    /**\r\n     * @dev Transfer the ownership of a flipcard and update details.\r\n     * @param to The address to transfer ownership to.\r\n     * @param _id The ID of the flipcard to transfer.\r\n     * @param email The new owner's email.\r\n     * @param mobileNumber The new owner's mobile number.\r\n     */\r\n    function _transferFrom(address to, uint256 _id, string memory email, string memory mobileNumber) public {\r\n        transferFrom(msg.sender, to, _id);\r\n        \r\n        // Update the flipcard details after the transfer\r\n        string memory flipcard = flipCards[_id];\r\n        flipcardDetails[flipcard].email = email;\r\n        flipcardDetails[flipcard].mobileNumber = mobileNumber;\r\n        serialIdData[flipcardDetails[flipcard].serialNumber] = flipcardDetails[flipcard];\r\n    }\r\n\r\n    /**\r\n     * @dev Get the details of a flipcard.\r\n     * @param flipcard The unique identifier of the flipcard.\r\n     * @return The details of the specified flipcard.\r\n     */\r\n    function getData(string memory flipcard) public view returns (CardDetails memory) {\r\n        return flipcardDetails[flipcard];\r\n    }\r\n\r\n    /**\r\n     * @dev Get the owner of a flipcard by its serial number.\r\n     * @param serialNumber The serial number of the flipcard.\r\n     * @return The owner's email address.\r\n     */\r\n    function getOwnerBySerialNumber(string memory serialNumber) public view returns (string memory) {\r\n        return serialIdData[serialNumber].email;\r\n    }\r\n\r\n    /**\r\n     * @dev Add a repair record for a flipcard.\r\n     * @param serialNumber The serial number of the flipcard.\r\n     * @param repair The repair description.\r\n     */\r\n    function addRepair(string memory serialNumber, string memory repair) public {\r\n        CardDetails storage card = flipcardDetails[serialIdData[serialNumber].flipcard];\r\n        require(card.lastRepairIndex < 100, \"Error: cannot add more than 100 repairs\");\r\n        \r\n        // Add the repair and increment the repair index\r\n        card.previousRepairs.push(repair);\r\n        card.lastRepairIndex++;\r\n    }\r\n\r\n\r\n    // Constructor that sets the name and symbol of the FlipCard token\r\n    constructor() ERC721Connector(\"FlipCard\", \"FC\") {}\r\n}\r\n",
  "sourcePath": "C:\\Users\\pavan\\OneDrive\\Desktop\\codes\\Projects\\BrainStorm_NITSilchar_FlipkartGrid4.0\\NFT\\src\\contracts\\FlipCard.sol",
  "compiler": {
    "name": "solc",
    "version": "0.8.28+commit.7893614a.Emscripten.clang"
  },
  "schemaVersion": "3.4.16",
  "updatedAt": "2024-12-15T07:25:49.933Z",
  "networkType": "ethereum",
  "devdoc": {
    "events": {
      "Approval(address,address,uint256)": {
        "details": "The zero address indicates there is no approved address.",
        "params": {
          "_approved": "The address that is approved",
          "_owner": "The owner of the token",
          "_tokenId": "The identifier of the token approved"
        }
      },
      "Transfer(address,address,uint256)": {
        "details": "This event emits when NFTs are transferred, including zero value transfers.",
        "params": {
          "_from": "The address of the previous owner of the token",
          "_to": "The address of the new owner of the token",
          "_tokenId": "The identifier of the token transferred"
        }
      }
    },
    "kind": "dev",
    "methods": {
      "_registerInterface(bytes4)": {
        "details": "Registers an interface to be supported by the contract.",
        "params": {
          "interfaceID": "The interface ID to register."
        }
      },
      "_transferFrom(address,uint256,string,string)": {
        "details": "Transfer the ownership of a flipcard and update details.",
        "params": {
          "_id": "The ID of the flipcard to transfer.",
          "email": "The new owner's email.",
          "mobileNumber": "The new owner's mobile number.",
          "to": "The address to transfer ownership to."
        }
      },
      "addRepair(string,string)": {
        "details": "Add a repair record for a flipcard.",
        "params": {
          "repair": "The repair description.",
          "serialNumber": "The serial number of the flipcard."
        }
      },
      "allTokensOfOwner(address)": {
        "details": "Returns the list of all tokens owned by the specified address.",
        "params": {
          "_owner": "The address to query."
        },
        "returns": {
          "_0": "uint256[] An array of token IDs owned by `_owner`."
        }
      },
      "approve(address,uint256)": {
        "details": "Approves another address to transfer a specific token on behalf of the owner.",
        "params": {
          "to": "The address to be approved.",
          "tokenId": "The token ID to approve."
        }
      },
      "balanceOf(address)": {
        "details": "Returns the number of tokens owned by the given address.",
        "params": {
          "_owner": "The address to query the balance of."
        },
        "returns": {
          "_0": "uint256 The number of tokens owned by `_owner`."
        }
      },
      "getApproved(uint256)": {
        "details": "Returns the address approved to transfer a specific token.",
        "params": {
          "tokenId": "The token ID to query the approval of."
        },
        "returns": {
          "_0": "address The approved address, or zero if no address is approved."
        }
      },
      "getData(string)": {
        "details": "Get the details of a flipcard.",
        "params": {
          "flipcard": "The unique identifier of the flipcard."
        },
        "returns": {
          "_0": "The details of the specified flipcard."
        }
      },
      "getOwnerBySerialNumber(string)": {
        "details": "Get the owner of a flipcard by its serial number.",
        "params": {
          "serialNumber": "The serial number of the flipcard."
        },
        "returns": {
          "_0": "The owner's email address."
        }
      },
      "mint(string,string,string,string,string,uint256)": {
        "details": "Mint a new flipcard with specific details.",
        "params": {
          "email": "The email associated with the flipcard.",
          "expiryMonths": "The expiration period in months.",
          "flipcard": "The unique ID of the flipcard.",
          "itemName": "The item name associated with the flipcard.",
          "mobileNumber": "The mobile number associated with the flipcard.",
          "serialNumber": "The serial number of the item."
        }
      },
      "name()": {
        "details": "Returns the name of the token collection.",
        "returns": {
          "_0": "string The name of the token."
        }
      },
      "ownerOf(uint256)": {
        "details": "Returns the owner of the given token ID.",
        "params": {
          "_tokenId": "The token ID to query the owner of."
        },
        "returns": {
          "_0": "address The address that owns the token."
        }
      },
      "supportsInterface(bytes4)": {
        "details": "Checks if a given interface is supported.",
        "params": {
          "interfaceID": "The interface ID to check for support."
        },
        "returns": {
          "_0": "bool Whether the interface is supported."
        }
      },
      "symbol()": {
        "details": "Returns the symbol of the token collection.",
        "returns": {
          "_0": "string The symbol of the token."
        }
      },
      "tokenByIndex(uint256)": {
        "details": "Returns the token ID at a specific index in the global token list.",
        "params": {
          "index": "The index to query."
        },
        "returns": {
          "_0": "uint256 The token ID at the specified index."
        }
      },
      "tokenOfOwnerByIndex(address,uint256)": {
        "details": "Returns the token ID at a specific index in the owner's token list.",
        "params": {
          "index": "The index to query.",
          "owner": "The owner of the tokens."
        },
        "returns": {
          "_0": "uint256 The token ID at the specified index."
        }
      },
      "totalSupply()": {
        "details": "Returns the total supply of tokens.",
        "returns": {
          "_0": "uint256 The total supply of tokens."
        }
      },
      "transferFrom(address,address,uint256)": {
        "details": "Transfers a token and updates the enumerations for both the sender and receiver.",
        "params": {
          "from": "The address to transfer the token from.",
          "to": "The address to transfer the token to.",
          "tokenId": "The ID of the token to transfer."
        }
      }
    },
    "version": 1
  },
  "userdoc": {
    "events": {
      "Approval(address,address,uint256)": {
        "notice": "This emits when the approved address for an NFT is changed or reaffirmed."
      },
      "Transfer(address,address,uint256)": {
        "notice": "This emits when ownership of any NFT changes by any mechanism."
      }
    },
    "kind": "user",
    "methods": {},
    "version": 1
  }
}