{
  "contractName": "FlipCard",
  "abi": [
    {
      "inputs": [],
      "stateMutability": "nonpayable",
      "type": "constructor"
    },
    {
      "anonymous": false,
      "inputs": [
        {
          "indexed": true,
          "internalType": "address",
          "name": "_owner",
          "type": "address"
        },
        {
          "indexed": true,
          "internalType": "address",
          "name": "_approved",
          "type": "address"
        },
        {
          "indexed": true,
          "internalType": "uint256",
          "name": "_tokenId",
          "type": "uint256"
        }
      ],
      "name": "Approval",
      "type": "event"
    },
    {
      "anonymous": false,
      "inputs": [
        {
          "indexed": true,
          "internalType": "address",
          "name": "_from",
          "type": "address"
        },
        {
          "indexed": true,
          "internalType": "address",
          "name": "_to",
          "type": "address"
        },
        {
          "indexed": true,
          "internalType": "uint256",
          "name": "_tokenId",
          "type": "uint256"
        }
      ],
      "name": "Transfer",
      "type": "event"
    },
    {
      "inputs": [
        {
          "internalType": "uint256",
          "name": "tokenId",
          "type": "uint256"
        }
      ],
      "name": "_addTokensToAllTokensEnumeration",
      "outputs": [],
      "stateMutability": "nonpayable",
      "type": "function"
    },
    {
      "inputs": [
        {
          "internalType": "address",
          "name": "to",
          "type": "address"
        },
        {
          "internalType": "uint256",
          "name": "tokenId",
          "type": "uint256"
        }
      ],
      "name": "_addTokensToOwnerEnumeration",
      "outputs": [],
      "stateMutability": "nonpayable",
      "type": "function"
    },
    {
      "inputs": [
        {
          "internalType": "uint256",
          "name": "tokenId",
          "type": "uint256"
        }
      ],
      "name": "_exists",
      "outputs": [
        {
          "internalType": "bool",
          "name": "",
          "type": "bool"
        }
      ],
      "stateMutability": "view",
      "type": "function",
      "constant": true
    },
    {
      "inputs": [
        {
          "internalType": "string",
          "name": "",
          "type": "string"
        }
      ],
      "name": "_flipcardExists",
      "outputs": [
        {
          "internalType": "bool",
          "name": "",
          "type": "bool"
        }
      ],
      "stateMutability": "view",
      "type": "function",
      "constant": true
    },
    {
      "inputs": [
        {
          "internalType": "string",
          "name": "",
          "type": "string"
        }
      ],
      "name": "_flipcardIds",
      "outputs": [
        {
          "internalType": "uint256",
          "name": "",
          "type": "uint256"
        }
      ],
      "stateMutability": "view",
      "type": "function",
      "constant": true
    },
    {
      "inputs": [
        {
          "internalType": "bytes4",
          "name": "interfaceID",
          "type": "bytes4"
        }
      ],
      "name": "_registerInterface",
      "outputs": [],
      "stateMutability": "nonpayable",
      "type": "function"
    },
    {
      "inputs": [
        {
          "internalType": "address",
          "name": "from",
          "type": "address"
        },
        {
          "internalType": "uint256",
          "name": "tokenId",
          "type": "uint256"
        }
      ],
      "name": "_removeTokensFromOwnerEnumeration",
      "outputs": [],
      "stateMutability": "nonpayable",
      "type": "function"
    },
    {
      "inputs": [
        {
          "internalType": "address",
          "name": "_owner",
          "type": "address"
        }
      ],
      "name": "allTokensOfOwner",
      "outputs": [
        {
          "internalType": "uint256[]",
          "name": "",
          "type": "uint256[]"
        }
      ],
      "stateMutability": "view",
      "type": "function",
      "constant": true
    },
    {
      "inputs": [
        {
          "internalType": "address",
          "name": "_owner",
          "type": "address"
        }
      ],
      "name": "balanceOf",
      "outputs": [
        {
          "internalType": "uint256",
          "name": "",
          "type": "uint256"
        }
      ],
      "stateMutability": "view",
      "type": "function",
      "constant": true
    },
    {
      "inputs": [
        {
          "internalType": "uint256",
          "name": "",
          "type": "uint256"
        }
      ],
      "name": "flipCards",
      "outputs": [
        {
          "internalType": "string",
          "name": "",
          "type": "string"
        }
      ],
      "stateMutability": "view",
      "type": "function",
      "constant": true
    },
    {
      "inputs": [
        {
          "internalType": "string",
          "name": "",
          "type": "string"
        }
      ],
      "name": "flipcardDetails",
      "outputs": [
        {
          "internalType": "string",
          "name": "serialNumber",
          "type": "string"
        },
        {
          "internalType": "string",
          "name": "email",
          "type": "string"
        },
        {
          "internalType": "string",
          "name": "mobileNumber",
          "type": "string"
        },
        {
          "internalType": "string",
          "name": "itemName",
          "type": "string"
        },
        {
          "internalType": "uint256",
          "name": "createdDate",
          "type": "uint256"
        },
        {
          "internalType": "uint256",
          "name": "expiryDate",
          "type": "uint256"
        },
        {
          "internalType": "uint256",
          "name": "lastRepairIndex",
          "type": "uint256"
        },
        {
          "internalType": "string",
          "name": "flipcard",
          "type": "string"
        }
      ],
      "stateMutability": "view",
      "type": "function",
      "constant": true
    },
    {
      "inputs": [],
      "name": "name",
      "outputs": [
        {
          "internalType": "string",
          "name": "",
          "type": "string"
        }
      ],
      "stateMutability": "view",
      "type": "function",
      "constant": true
    },
    {
      "inputs": [
        {
          "internalType": "uint256",
          "name": "_tokenId",
          "type": "uint256"
        }
      ],
      "name": "ownerOf",
      "outputs": [
        {
          "internalType": "address",
          "name": "",
          "type": "address"
        }
      ],
      "stateMutability": "view",
      "type": "function",
      "constant": true
    },
    {
      "inputs": [
        {
          "internalType": "string",
          "name": "",
          "type": "string"
        },
        {
          "internalType": "uint256",
          "name": "",
          "type": "uint256"
        }
      ],
      "name": "repairs",
      "outputs": [
        {
          "internalType": "string",
          "name": "",
          "type": "string"
        }
      ],
      "stateMutability": "view",
      "type": "function",
      "constant": true
    },
    {
      "inputs": [
        {
          "internalType": "string",
          "name": "",
          "type": "string"
        }
      ],
      "name": "serialIdData",
      "outputs": [
        {
          "internalType": "string",
          "name": "serialNumber",
          "type": "string"
        },
        {
          "internalType": "string",
          "name": "email",
          "type": "string"
        },
        {
          "internalType": "string",
          "name": "mobileNumber",
          "type": "string"
        },
        {
          "internalType": "string",
          "name": "itemName",
          "type": "string"
        },
        {
          "internalType": "uint256",
          "name": "createdDate",
          "type": "uint256"
        },
        {
          "internalType": "uint256",
          "name": "expiryDate",
          "type": "uint256"
        },
        {
          "internalType": "uint256",
          "name": "lastRepairIndex",
          "type": "uint256"
        },
        {
          "internalType": "string",
          "name": "flipcard",
          "type": "string"
        }
      ],
      "stateMutability": "view",
      "type": "function",
      "constant": true
    },
    {
      "inputs": [
        {
          "internalType": "bytes4",
          "name": "interfaceID",
          "type": "bytes4"
        }
      ],
      "name": "supportsInterface",
      "outputs": [
        {
          "internalType": "bool",
          "name": "",
          "type": "bool"
        }
      ],
      "stateMutability": "view",
      "type": "function",
      "constant": true
    },
    {
      "inputs": [],
      "name": "symbol",
      "outputs": [
        {
          "internalType": "string",
          "name": "",
          "type": "string"
        }
      ],
      "stateMutability": "view",
      "type": "function",
      "constant": true
    },
    {
      "inputs": [
        {
          "internalType": "uint256",
          "name": "index",
          "type": "uint256"
        }
      ],
      "name": "tokenByIndex",
      "outputs": [
        {
          "internalType": "uint256",
          "name": "",
          "type": "uint256"
        }
      ],
      "stateMutability": "view",
      "type": "function",
      "constant": true
    },
    {
      "inputs": [
        {
          "internalType": "address",
          "name": "owner",
          "type": "address"
        },
        {
          "internalType": "uint256",
          "name": "index",
          "type": "uint256"
        }
      ],
      "name": "tokenOfOwnerByIndex",
      "outputs": [
        {
          "internalType": "uint256",
          "name": "",
          "type": "uint256"
        }
      ],
      "stateMutability": "view",
      "type": "function",
      "constant": true
    },
    {
      "inputs": [],
      "name": "totalSupply",
      "outputs": [
        {
          "internalType": "uint256",
          "name": "",
          "type": "uint256"
        }
      ],
      "stateMutability": "view",
      "type": "function",
      "constant": true
    },
    {
      "inputs": [
        {
          "internalType": "address",
          "name": "from",
          "type": "address"
        },
        {
          "internalType": "address",
          "name": "to",
          "type": "address"
        },
        {
          "internalType": "uint256",
          "name": "tokenId",
          "type": "uint256"
        }
      ],
      "name": "transferFrom",
      "outputs": [],
      "stateMutability": "nonpayable",
      "type": "function"
    },
    {
      "inputs": [
        {
          "internalType": "string",
          "name": "flipCard",
          "type": "string"
        }
      ],
      "name": "getFlipCardId",
      "outputs": [
        {
          "internalType": "uint256",
          "name": "",
          "type": "uint256"
        }
      ],
      "stateMutability": "view",
      "type": "function",
      "constant": true
    },
    {
      "inputs": [
        {
          "internalType": "string",
          "name": "flipcard",
          "type": "string"
        },
        {
          "internalType": "string",
          "name": "serialNumber",
          "type": "string"
        },
        {
          "internalType": "string",
          "name": "email",
          "type": "string"
        },
        {
          "internalType": "string",
          "name": "mobileNumber",
          "type": "string"
        },
        {
          "internalType": "string",
          "name": "itemName",
          "type": "string"
        },
        {
          "internalType": "uint256",
          "name": "expiryMonths",
          "type": "uint256"
        }
      ],
      "name": "mint",
      "outputs": [],
      "stateMutability": "nonpayable",
      "type": "function"
    },
    {
      "inputs": [
        {
          "internalType": "address",
          "name": "to",
          "type": "address"
        },
        {
          "internalType": "uint256",
          "name": "_id",
          "type": "uint256"
        },
        {
          "internalType": "string",
          "name": "email",
          "type": "string"
        },
        {
          "internalType": "string",
          "name": "mobileNumber",
          "type": "string"
        }
      ],
      "name": "_transferFrom",
      "outputs": [],
      "stateMutability": "nonpayable",
      "type": "function"
    },
    {
      "inputs": [
        {
          "internalType": "string",
          "name": "flipcard",
          "type": "string"
        }
      ],
      "name": "getData",
      "outputs": [
        {
          "components": [
            {
              "internalType": "string",
              "name": "serialNumber",
              "type": "string"
            },
            {
              "internalType": "string",
              "name": "email",
              "type": "string"
            },
            {
              "internalType": "string",
              "name": "mobileNumber",
              "type": "string"
            },
            {
              "internalType": "string",
              "name": "itemName",
              "type": "string"
            },
            {
              "internalType": "uint256",
              "name": "createdDate",
              "type": "uint256"
            },
            {
              "internalType": "uint256",
              "name": "expiryDate",
              "type": "uint256"
            },
            {
              "internalType": "string[]",
              "name": "previousRepairs",
              "type": "string[]"
            },
            {
              "internalType": "uint256",
              "name": "lastRepairIndex",
              "type": "uint256"
            },
            {
              "internalType": "string",
              "name": "flipcard",
              "type": "string"
            }
          ],
          "internalType": "struct FlipCard.CardDetails",
          "name": "",
          "type": "tuple"
        }
      ],
      "stateMutability": "view",
      "type": "function",
      "constant": true
    },
    {
      "inputs": [
        {
          "internalType": "string",
          "name": "serialNumber",
          "type": "string"
        }
      ],
      "name": "getOwnerBySerialNumber",
      "outputs": [
        {
          "internalType": "string",
          "name": "",
          "type": "string"
        }
      ],
      "stateMutability": "view",
      "type": "function",
      "constant": true
    },
    {
      "inputs": [
        {
          "internalType": "string",
          "name": "serialNumber",
          "type": "string"
        },
        {
          "internalType": "string",
          "name": "repair",
          "type": "string"
        }
      ],
      "name": "addRepair",
      "outputs": [],
      "stateMutability": "nonpayable",
      "type": "function"
    },
    {
      "inputs": [
        {
          "internalType": "string",
          "name": "flipcard",
          "type": "string"
        }
      ],
      "name": "getRepairs",
      "outputs": [
        {
          "internalType": "string[]",
          "name": "",
          "type": "string[]"
        }
      ],
      "stateMutability": "view",
      "type": "function",
      "constant": true
    }
  ],
  "bytecode": "0x60806040523480156200001157600080fd5b506040518060400160405280600881526020017f466c6970436172640000000000000000000000000000000000000000000000008152506040518060400160405280600281526020017f46430000000000000000000000000000000000000000000000000000000000008152508181620000b17f01ffc9a7a5cef8baa21ed3c5c0d7e23accb804b619e9333b597f47a0d84076e26200021c60201b60201c565b620001047f95d89b41e2f5f391a79ec54e9d87c79d6e777c63e32c28da95b4e9e4a79250ec7f06fdde0383f15d582d1a74511486c9ddf862a882fb7904b3d9fe9b8b8e58a796186200021c60201b60201c565b81600190816200011591906200056d565b5080600290816200012791906200056d565b5050506200019f7f23b872dd7302113369cda2901243429419bec145408fa8b352b3dd92b66c680b7f6352211e6566aa027e75ac9dbf2423197fbd9b82b9d981a3ab367d355866aa1c7f70a08231b98ef4ca268c9cc3f6b4590e4bfec28280db06bb5d45e689f2a360be18186200021c60201b60201c565b620002147f2f745c59a57ba1667616e5a9707eeaa36ec97c283ee24190b75d9c8d14bcb2157f4f6ccce7c41aed90ec1f1887c4a821594c0f73758d8941d0ccaa2cde813b72987f18160ddd7f15c72528c2f94fd8dfe3c8d5aa26e2c50c7d81f4bc7bee8d4b793218186200021c60201b60201c565b5050620006fd565b63ffffffff60e01b817bffffffffffffffffffffffffffffffffffffffffffffffffffffffff19160362000287576040517f08c379a00000000000000000000000000000000000000000000000000000000081526004016200027e90620006db565b60405180910390fd5b6001600080837bffffffffffffffffffffffffffffffffffffffffffffffffffffffff19167bffffffffffffffffffffffffffffffffffffffffffffffffffffffff1916815260200190815260200160002060006101000a81548160ff02191690831515021790555050565b600081519050919050565b7f4e487b7100000000000000000000000000000000000000000000000000000000600052604160045260246000fd5b7f4e487b7100000000000000000000000000000000000000000000000000000000600052602260045260246000fd5b600060028204905060018216806200037557607f821691505b6020821081036200038b576200038a6200032d565b5b50919050565b60008190508160005260206000209050919050565b60006020601f8301049050919050565b600082821b905092915050565b600060088302620003f57fffffffffffffffffffffffffffffffffffffffffffffffffffffffffffffffff82620003b6565b620004018683620003b6565b95508019841693508086168417925050509392505050565b6000819050919050565b6000819050919050565b60006200044e62000448620004428462000419565b62000423565b62000419565b9050919050565b6000819050919050565b6200046a836200042d565b62000482620004798262000455565b848454620003c3565b825550505050565b600090565b620004996200048a565b620004a68184846200045f565b505050565b5b81811015620004ce57620004c26000826200048f565b600181019050620004ac565b5050565b601f8211156200051d57620004e78162000391565b620004f284620003a6565b8101602085101562000502578190505b6200051a6200051185620003a6565b830182620004ab565b50505b505050565b600082821c905092915050565b6000620005426000198460080262000522565b1980831691505092915050565b60006200055d83836200052f565b9150826002028217905092915050565b6200057882620002f3565b67ffffffffffffffff811115620005945762000593620002fe565b5b620005a082546200035c565b620005ad828285620004d2565b600060209050601f831160018114620005e55760008415620005d0578287015190505b620005dc85826200054f565b8655506200064c565b601f198416620005f58662000391565b60005b828110156200061f57848901518255600182019150602085019450602081019050620005f8565b868310156200063f57848901516200063b601f8916826200052f565b8355505b6001600288020188555050505b505050505050565b600082825260208201905092915050565b7f4552433136353a20616464496e746572666163653a207468697320696e74657260008201527f6661636520697320696e76616c69640000000000000000000000000000000000602082015250565b6000620006c3602f8362000654565b9150620006d08262000665565b604082019050919050565b60006020820190508181036000830152620006f681620006b4565b9050919050565b61463a806200070d6000396000f3fe608060405234801561001057600080fd5b50600436106101c45760003560e01c80636f1a11ec116100f9578063ae55c88811610097578063c7ae6b5711610071578063c7ae6b57146105bd578063e5888368146105d9578063eb67a409146105f5578063f8e76cc014610611576101c4565b8063ae55c88814610526578063ba1d9be214610556578063c032e35f14610586576101c4565b80637f4026a3116100d35780637f4026a31461048c5780638615cb47146104bc57806395d89b41146104ec578063a69c70011461050a576101c4565b80636f1a11ec1461041057806370a082311461042c5780637bf5daa51461045c576101c4565b80632f745c59116101665780634a502851116101405780634a502851146103645780634f6ccce7146103805780636352211e146103b05780636ee528ec146103e0576101c4565b80632f745c59146102cd57806333a15d7d146102fd5780633c99e2e914610334576101c4565b806318160ddd116101a257806318160ddd146102335780631903bdda1461025157806323b872dd146102815780632b60bf881461029d576101c4565b806301ffc9a7146101c9578063068417d9146101f957806306fdde0314610215575b600080fd5b6101e360048036038101906101de9190612c3b565b610641565b6040516101f09190612c83565b60405180910390f35b610213600480360381019061020e9190612c3b565b6106a8565b005b61021d61077c565b60405161022a9190612d37565b60405180910390f35b61023b61080e565b6040516102489190612d72565b60405180910390f35b61026b60048036038101906102669190612db9565b61081b565b6040516102789190612d37565b60405180910390f35b61029b60048036038101906102969190612e44565b6108c7565b005b6102b760048036038101906102b29190612fcc565b6108eb565b6040516102c49190612c83565b60405180910390f35b6102e760048036038101906102e29190613015565b610921565b6040516102f49190612d72565b60405180910390f35b61031760048036038101906103129190612fcc565b610a7f565b60405161032b989796959493929190613055565b60405180910390f35b61034e600480360381019061034991906130f6565b610d85565b60405161035b91906131e1565b60405180910390f35b61037e60048036038101906103799190613203565b610e1c565b005b61039a60048036038101906103959190612db9565b610ffc565b6040516103a79190612d72565b60405180910390f35b6103ca60048036038101906103c59190612db9565b61106d565b6040516103d791906132b1565b60405180910390f35b6103fa60048036038101906103f59190612fcc565b61111e565b6040516104079190612d37565b60405180910390f35b61042a60048036038101906104259190613015565b6111d1565b005b610446600480360381019061044191906130f6565b6113fd565b6040516104539190612d72565b60405180910390f35b61047660048036038101906104719190612fcc565b6114b4565b60405161048391906133d8565b60405180910390f35b6104a660048036038101906104a19190612fcc565b611656565b6040516104b39190612d72565b60405180910390f35b6104d660048036038101906104d191906133fa565b611684565b6040516104e39190612d37565b60405180910390f35b6104f4611753565b6040516105019190612d37565b60405180910390f35b610524600480360381019061051f9190613015565b6117e5565b005b610540600480360381019061053b9190612fcc565b6118b5565b60405161054d91906135c4565b60405180910390f35b610570600480360381019061056b9190612fcc565b611cbf565b60405161057d9190612d72565b60405180910390f35b6105a0600480360381019061059b9190612fcc565b611ce7565b6040516105b4989796959493929190613055565b60405180910390f35b6105d760048036038101906105d29190612db9565b611fed565b005b6105f360048036038101906105ee91906135e6565b612042565b005b61060f600480360381019061060a91906136ff565b6123dd565b005b61062b60048036038101906106269190612db9565b612508565b6040516106389190612c83565b60405180910390f35b6000806000837bffffffffffffffffffffffffffffffffffffffffffffffffffffffff19167bffffffffffffffffffffffffffffffffffffffffffffffffffffffff1916815260200190815260200160002060009054906101000a900460ff169050919050565b63ffffffff60e01b817bffffffffffffffffffffffffffffffffffffffffffffffffffffffff191603610710576040517f08c379a0000000000000000000000000000000000000000000000000000000008152600401610707906137e9565b60405180910390fd5b6001600080837bffffffffffffffffffffffffffffffffffffffffffffffffffffffff19167bffffffffffffffffffffffffffffffffffffffffffffffffffffffff1916815260200190815260200160002060006101000a81548160ff02191690831515021790555050565b60606001805461078b90613838565b80601f01602080910402602001604051908101604052809291908181526020018280546107b790613838565b80156108045780601f106107d957610100808354040283529160200191610804565b820191906000526020600020905b8154815290600101906020018083116107e757829003601f168201915b5050505050905090565b6000600680549050905090565b600a818154811061082b57600080fd5b90600052602060002001600091509050805461084690613838565b80601f016020809104026020016040519081016040528092919081815260200182805461087290613838565b80156108bf5780601f10610894576101008083540402835291602001916108bf565b820191906000526020600020905b8154815290600101906020018083116108a257829003601f168201915b505050505081565b6108d2838383612574565b6108dc83826111d1565b6108e682826117e5565b505050565b600c818051602081018201805184825260208301602085012081835280955050505050506000915054906101000a900460ff1681565b60008073ffffffffffffffffffffffffffffffffffffffff168373ffffffffffffffffffffffffffffffffffffffff1603610991576040517f08c379a0000000000000000000000000000000000000000000000000000000008152600401610988906138db565b60405180910390fd5b600860008473ffffffffffffffffffffffffffffffffffffffff1673ffffffffffffffffffffffffffffffffffffffff168152602001908152602001600020805490508210610a15576040517f08c379a0000000000000000000000000000000000000000000000000000000008152600401610a0c906138db565b60405180910390fd5b6000600860008573ffffffffffffffffffffffffffffffffffffffff1673ffffffffffffffffffffffffffffffffffffffff1681526020019081526020016000208381548110610a6857610a676138fb565b5b906000526020600020015490508091505092915050565b600b81805160208101820180518482526020830160208501208183528095505050505050600091509050806000018054610ab890613838565b80601f0160208091040260200160405190810160405280929190818152602001828054610ae490613838565b8015610b315780601f10610b0657610100808354040283529160200191610b31565b820191906000526020600020905b815481529060010190602001808311610b1457829003601f168201915b505050505090806001018054610b4690613838565b80601f0160208091040260200160405190810160405280929190818152602001828054610b7290613838565b8015610bbf5780601f10610b9457610100808354040283529160200191610bbf565b820191906000526020600020905b815481529060010190602001808311610ba257829003601f168201915b505050505090806002018054610bd490613838565b80601f0160208091040260200160405190810160405280929190818152602001828054610c0090613838565b8015610c4d5780601f10610c2257610100808354040283529160200191610c4d565b820191906000526020600020905b815481529060010190602001808311610c3057829003601f168201915b505050505090806003018054610c6290613838565b80601f0160208091040260200160405190810160405280929190818152602001828054610c8e90613838565b8015610cdb5780601f10610cb057610100808354040283529160200191610cdb565b820191906000526020600020905b815481529060010190602001808311610cbe57829003601f168201915b505050505090806004015490806005015490806007015490806008018054610d0290613838565b80601f0160208091040260200160405190810160405280929190818152602001828054610d2e90613838565b8015610d7b5780601f10610d5057610100808354040283529160200191610d7b565b820191906000526020600020905b815481529060010190602001808311610d5e57829003601f168201915b5050505050905088565b6060600860008373ffffffffffffffffffffffffffffffffffffffff1673ffffffffffffffffffffffffffffffffffffffff168152602001908152602001600020805480602002602001604051908101604052809291908181526020018280548015610e1057602002820191906000526020600020905b815481526020019060010190808311610dfc575b50505050509050919050565b610e273385856108c7565b81600b600a8581548110610e3e57610e3d6138fb565b5b90600052602060002001604051610e5591906139cd565b90815260200160405180910390206001019081610e729190613b7b565b5080600b600a8581548110610e8a57610e896138fb565b5b90600052602060002001604051610ea191906139cd565b90815260200160405180910390206002019081610ebe9190613b7b565b50600b600a8481548110610ed557610ed46138fb565b5b90600052602060002001604051610eec91906139cd565b9081526020016040518091039020600e600b600a8681548110610f1257610f116138fb565b5b90600052602060002001604051610f2991906139cd565b9081526020016040518091039020600001604051610f4791906139cd565b908152602001604051809103902060008201816000019081610f699190613c63565b5060018201816001019081610f7e9190613c63565b5060028201816002019081610f939190613c63565b5060038201816003019081610fa89190613c63565b5060048201548160040155600582015481600501556006820181600601908054610fd3929190612a4c565b506007820154816007015560088201816008019081610ff29190613c63565b5090505050505050565b600061100661080e565b8210611047576040517f08c379a000000000000000000000000000000000000000000000000000000000815260040161103e90613dbd565b60405180910390fd5b6006828154811061105b5761105a6138fb565b5b90600052602060002001549050919050565b6000806003600084815260200190815260200160002060009054906101000a900473ffffffffffffffffffffffffffffffffffffffff169050600073ffffffffffffffffffffffffffffffffffffffff168173ffffffffffffffffffffffffffffffffffffffff1603611115576040517f08c379a000000000000000000000000000000000000000000000000000000000815260040161110c90613e4f565b60405180910390fd5b80915050919050565b6060600e826040516111309190613ea0565b9081526020016040518091039020600101805461114c90613838565b80601f016020809104026020016040519081016040528092919081815260200182805461117890613838565b80156111c55780601f1061119a576101008083540402835291602001916111c5565b820191906000526020600020905b8154815290600101906020018083116111a857829003601f168201915b50505050509050919050565b60006009600083815260200190815260200160002054905060008190505b6001600860008673ffffffffffffffffffffffffffffffffffffffff1673ffffffffffffffffffffffffffffffffffffffff1681526020019081526020016000208054905061123e9190613ee6565b81101561139257600860008573ffffffffffffffffffffffffffffffffffffffff1673ffffffffffffffffffffffffffffffffffffffff1681526020019081526020016000206001826112919190613f1a565b815481106112a2576112a16138fb565b5b9060005260206000200154600860008673ffffffffffffffffffffffffffffffffffffffff1673ffffffffffffffffffffffffffffffffffffffff16815260200190815260200160002082815481106112fe576112fd6138fb565b5b90600052602060002001819055508060096000600860008873ffffffffffffffffffffffffffffffffffffffff1673ffffffffffffffffffffffffffffffffffffffff1681526020019081526020016000208481548110611362576113616138fb565b5b9060005260206000200154815260200190815260200160002081905550808061138a90613f70565b9150506111ef565b50600860008473ffffffffffffffffffffffffffffffffffffffff1673ffffffffffffffffffffffffffffffffffffffff1681526020019081526020016000208054806113e2576113e1613fb8565b5b60019003818190600052602060002001600090559055505050565b60008073ffffffffffffffffffffffffffffffffffffffff168273ffffffffffffffffffffffffffffffffffffffff160361146d576040517f08c379a000000000000000000000000000000000000000000000000000000000815260040161146490614059565b60405180910390fd5b600460008373ffffffffffffffffffffffffffffffffffffffff1673ffffffffffffffffffffffffffffffffffffffff168152602001908152602001600020549050919050565b60606000600b836040516114c89190613ea0565b90815260200160405180910390206007015467ffffffffffffffff8111156114f3576114f2612ea1565b5b60405190808252806020026020018201604052801561152657816020015b60608152602001906001900390816115115790505b50905060005b600b8460405161153c9190613ea0565b90815260200160405180910390206007015481121561164c57600b846040516115659190613ea0565b90815260200160405180910390206006018181548110611588576115876138fb565b5b90600052602060002001805461159d90613838565b80601f01602080910402602001604051908101604052809291908181526020018280546115c990613838565b80156116165780601f106115eb57610100808354040283529160200191611616565b820191906000526020600020905b8154815290600101906020018083116115f957829003601f168201915b505050505082828151811061162e5761162d6138fb565b5b6020026020010181905250808061164490614083565b91505061152c565b5080915050919050565b600d818051602081018201805184825260208301602085012081835280955050505050506000915090505481565b600f8280516020810182018051848252602083016020850120818352809550505050505081815481106116b657600080fd5b906000526020600020016000915091505080546116d290613838565b80601f01602080910402602001604051908101604052809291908181526020018280546116fe90613838565b801561174b5780601f106117205761010080835404028352916020019161174b565b820191906000526020600020905b81548152906001019060200180831161172e57829003601f168201915b505050505081565b60606002805461176290613838565b80601f016020809104026020016040519081016040528092919081815260200182805461178e90613838565b80156117db5780601f106117b0576101008083540402835291602001916117db565b820191906000526020600020905b8154815290600101906020018083116117be57829003601f168201915b5050505050905090565b600860008373ffffffffffffffffffffffffffffffffffffffff1673ffffffffffffffffffffffffffffffffffffffff1681526020019081526020016000208190806001815401808255809150506001900390600052602060002001600090919091909150556001600860008473ffffffffffffffffffffffffffffffffffffffff1673ffffffffffffffffffffffffffffffffffffffff1681526020019081526020016000208054905061189a9190613ee6565b60096000838152602001908152602001600020819055505050565b6118bd612aa9565b600b826040516118cd9190613ea0565b9081526020016040518091039020604051806101200160405290816000820180546118f790613838565b80601f016020809104026020016040519081016040528092919081815260200182805461192390613838565b80156119705780601f1061194557610100808354040283529160200191611970565b820191906000526020600020905b81548152906001019060200180831161195357829003601f168201915b5050505050815260200160018201805461198990613838565b80601f01602080910402602001604051908101604052809291908181526020018280546119b590613838565b8015611a025780601f106119d757610100808354040283529160200191611a02565b820191906000526020600020905b8154815290600101906020018083116119e557829003601f168201915b50505050508152602001600282018054611a1b90613838565b80601f0160208091040260200160405190810160405280929190818152602001828054611a4790613838565b8015611a945780601f10611a6957610100808354040283529160200191611a94565b820191906000526020600020905b815481529060010190602001808311611a7757829003601f168201915b50505050508152602001600382018054611aad90613838565b80601f0160208091040260200160405190810160405280929190818152602001828054611ad990613838565b8015611b265780601f10611afb57610100808354040283529160200191611b26565b820191906000526020600020905b815481529060010190602001808311611b0957829003601f168201915b50505050508152602001600482015481526020016005820154815260200160068201805480602002602001604051908101604052809291908181526020016000905b82821015611c14578382906000526020600020018054611b8790613838565b80601f0160208091040260200160405190810160405280929190818152602001828054611bb390613838565b8015611c005780601f10611bd557610100808354040283529160200191611c00565b820191906000526020600020905b815481529060010190602001808311611be357829003601f168201915b505050505081526020019060010190611b68565b50505050815260200160078201548152602001600882018054611c3690613838565b80601f0160208091040260200160405190810160405280929190818152602001828054611c6290613838565b8015611caf5780601f10611c8457610100808354040283529160200191611caf565b820191906000526020600020905b815481529060010190602001808311611c9257829003601f168201915b5050505050815250509050919050565b6000600d82604051611cd19190613ea0565b9081526020016040518091039020549050919050565b600e81805160208101820180518482526020830160208501208183528095505050505050600091509050806000018054611d2090613838565b80601f0160208091040260200160405190810160405280929190818152602001828054611d4c90613838565b8015611d995780601f10611d6e57610100808354040283529160200191611d99565b820191906000526020600020905b815481529060010190602001808311611d7c57829003601f168201915b505050505090806001018054611dae90613838565b80601f0160208091040260200160405190810160405280929190818152602001828054611dda90613838565b8015611e275780601f10611dfc57610100808354040283529160200191611e27565b820191906000526020600020905b815481529060010190602001808311611e0a57829003601f168201915b505050505090806002018054611e3c90613838565b80601f0160208091040260200160405190810160405280929190818152602001828054611e6890613838565b8015611eb55780601f10611e8a57610100808354040283529160200191611eb5565b820191906000526020600020905b815481529060010190602001808311611e9857829003601f168201915b505050505090806003018054611eca90613838565b80601f0160208091040260200160405190810160405280929190818152602001828054611ef690613838565b8015611f435780601f10611f1857610100808354040283529160200191611f43565b820191906000526020600020905b815481529060010190602001808311611f2657829003601f168201915b505050505090806004015490806005015490806007015490806008018054611f6a90613838565b80601f0160208091040260200160405190810160405280929190818152602001828054611f9690613838565b8015611fe35780601f10611fb857610100808354040283529160200191611fe3565b820191906000526020600020905b815481529060010190602001808311611fc657829003601f168201915b5050505050905088565b600681908060018154018082558091505060019003906000526020600020016000909190919091505560016006805490506120289190613ee6565b600760008381526020019081526020016000208190555050565b600c866040516120529190613ea0565b908152602001604051809103902060009054906101000a900460ff16156120ae576040517f08c379a00000000000000000000000000000000000000000000000000000000081526004016120a59061413d565b60405180910390fd5b600a869080600181540180825580915050600190039060005260206000200160009091909190915090816120e29190613b7b565b5060006001600a805490506120f79190613ee6565b9050612103338261286c565b80600d886040516121149190613ea0565b9081526020016040518091039020819055506001600c886040516121389190613ea0565b908152602001604051809103902060006101000a81548160ff0219169083151502179055506000606467ffffffffffffffff81111561217a57612179612ea1565b5b6040519080825280602002602001820160405280156121ad57816020015b60608152602001906001900390816121985790505b509050604051806101200160405280888152602001878152602001868152602001858152602001428152602001603c806018601e886121ec919061415d565b6121f6919061415d565b612200919061415d565b61220a919061415d565b426122159190613f1a565b81526020018281526020016000815260200189815250600b8960405161223b9190613ea0565b9081526020016040518091039020600082015181600001908161225e9190613b7b565b5060208201518160010190816122749190613b7b565b50604082015181600201908161228a9190613b7b565b5060608201518160030190816122a09190613b7b565b506080820151816004015560a0820151816005015560c08201518160060190805190602001906122d1929190612af5565b5060e082015181600701556101008201518160080190816122f29190613b7b565b50905050600b886040516123069190613ea0565b9081526020016040518091039020600e886040516123249190613ea0565b9081526020016040518091039020600082018160000190816123469190613c63565b506001820181600101908161235b9190613c63565b50600282018160020190816123709190613c63565b50600382018160030190816123859190613c63565b50600482015481600401556005820154816005015560068201816006019080546123b0929190612a4c565b5060078201548160070155600882018160080190816123cf9190613c63565b509050505050505050505050565b6064600e836040516123ef9190613ea0565b90815260200160405180910390206007015410612441576040517f08c379a000000000000000000000000000000000000000000000000000000000815260040161243890614229565b60405180910390fd5b80600b600e846040516124549190613ea0565b908152602001604051809103902060080160405161247291906139cd565b9081526020016040518091039020600601600e846040516124939190613ea0565b908152602001604051809103902060070154815481106124b6576124b56138fb565b5b9060005260206000200190816124cc9190613b7b565b50600e826040516124dd9190613ea0565b908152602001604051809103902060070160008154809291906124ff90613f70565b91905055505050565b60008073ffffffffffffffffffffffffffffffffffffffff166003600084815260200190815260200160002060009054906101000a900473ffffffffffffffffffffffffffffffffffffffff1673ffffffffffffffffffffffffffffffffffffffff1614159050919050565b600073ffffffffffffffffffffffffffffffffffffffff168373ffffffffffffffffffffffffffffffffffffffff16036125e3576040517f08c379a00000000000000000000000000000000000000000000000000000000081526004016125da906142bb565b60405180910390fd5b600073ffffffffffffffffffffffffffffffffffffffff168273ffffffffffffffffffffffffffffffffffffffff1603612652576040517f08c379a00000000000000000000000000000000000000000000000000000000081526004016126499061434d565b60405180910390fd5b61265b81612508565b61269a576040517f08c379a0000000000000000000000000000000000000000000000000000000008152600401612691906143df565b60405180910390fd5b8273ffffffffffffffffffffffffffffffffffffffff166126ba8261106d565b73ffffffffffffffffffffffffffffffffffffffff1614612710576040517f08c379a000000000000000000000000000000000000000000000000000000000815260040161270790614497565b60405180910390fd5b816003600083815260200190815260200160002060006101000a81548173ffffffffffffffffffffffffffffffffffffffff021916908373ffffffffffffffffffffffffffffffffffffffff160217905550600460008473ffffffffffffffffffffffffffffffffffffffff1673ffffffffffffffffffffffffffffffffffffffff16815260200190815260200160002060008154809291906127b2906144b7565b9190505550600460008373ffffffffffffffffffffffffffffffffffffffff1673ffffffffffffffffffffffffffffffffffffffff168152602001908152602001600020600081548092919061280790613f70565b9190505550808273ffffffffffffffffffffffffffffffffffffffff168473ffffffffffffffffffffffffffffffffffffffff167fddf252ad1be2c89b69c2b068fc378daa952ba7f163c4a11628f55a4df523b3ef60405160405180910390a4505050565b612876828261288d565b61287f81611fed565b61288982826117e5565b5050565b600073ffffffffffffffffffffffffffffffffffffffff168273ffffffffffffffffffffffffffffffffffffffff16036128fc576040517f08c379a00000000000000000000000000000000000000000000000000000000081526004016128f390614552565b60405180910390fd5b61290581612508565b15612945576040517f08c379a000000000000000000000000000000000000000000000000000000000815260040161293c906145e4565b60405180910390fd5b816003600083815260200190815260200160002060006101000a81548173ffffffffffffffffffffffffffffffffffffffff021916908373ffffffffffffffffffffffffffffffffffffffff160217905550600460008373ffffffffffffffffffffffffffffffffffffffff1673ffffffffffffffffffffffffffffffffffffffff16815260200190815260200160002060008154809291906129e790613f70565b9190505550808273ffffffffffffffffffffffffffffffffffffffff16600073ffffffffffffffffffffffffffffffffffffffff167fddf252ad1be2c89b69c2b068fc378daa952ba7f163c4a11628f55a4df523b3ef60405160405180910390a45050565b828054828255906000526020600020908101928215612a985760005260206000209182015b82811115612a975782829081612a879190613c63565b5091600101919060010190612a71565b5b509050612aa59190612b4e565b5090565b6040518061012001604052806060815260200160608152602001606081526020016060815260200160008152602001600081526020016060815260200160008152602001606081525090565b828054828255906000526020600020908101928215612b3d579160200282015b82811115612b3c578251829081612b2c9190613b7b565b5091602001919060010190612b15565b5b509050612b4a9190612b4e565b5090565b5b80821115612b6e5760008181612b659190612b72565b50600101612b4f565b5090565b508054612b7e90613838565b6000825580601f10612b905750612baf565b601f016020900490600052602060002090810190612bae9190612bb2565b5b50565b5b80821115612bcb576000816000905550600101612bb3565b5090565b6000604051905090565b600080fd5b600080fd5b60007fffffffff0000000000000000000000000000000000000000000000000000000082169050919050565b612c1881612be3565b8114612c2357600080fd5b50565b600081359050612c3581612c0f565b92915050565b600060208284031215612c5157612c50612bd9565b5b6000612c5f84828501612c26565b91505092915050565b60008115159050919050565b612c7d81612c68565b82525050565b6000602082019050612c986000830184612c74565b92915050565b600081519050919050565b600082825260208201905092915050565b60005b83811015612cd8578082015181840152602081019050612cbd565b83811115612ce7576000848401525b50505050565b6000601f19601f8301169050919050565b6000612d0982612c9e565b612d138185612ca9565b9350612d23818560208601612cba565b612d2c81612ced565b840191505092915050565b60006020820190508181036000830152612d518184612cfe565b905092915050565b6000819050919050565b612d6c81612d59565b82525050565b6000602082019050612d876000830184612d63565b92915050565b612d9681612d59565b8114612da157600080fd5b50565b600081359050612db381612d8d565b92915050565b600060208284031215612dcf57612dce612bd9565b5b6000612ddd84828501612da4565b91505092915050565b600073ffffffffffffffffffffffffffffffffffffffff82169050919050565b6000612e1182612de6565b9050919050565b612e2181612e06565b8114612e2c57600080fd5b50565b600081359050612e3e81612e18565b92915050565b600080600060608486031215612e5d57612e5c612bd9565b5b6000612e6b86828701612e2f565b9350506020612e7c86828701612e2f565b9250506040612e8d86828701612da4565b9150509250925092565b600080fd5b600080fd5b7f4e487b7100000000000000000000000000000000000000000000000000000000600052604160045260246000fd5b612ed982612ced565b810181811067ffffffffffffffff82111715612ef857612ef7612ea1565b5b80604052505050565b6000612f0b612bcf565b9050612f178282612ed0565b919050565b600067ffffffffffffffff821115612f3757612f36612ea1565b5b612f4082612ced565b9050602081019050919050565b82818337600083830152505050565b6000612f6f612f6a84612f1c565b612f01565b905082815260208101848484011115612f8b57612f8a612e9c565b5b612f96848285612f4d565b509392505050565b600082601f830112612fb357612fb2612e97565b5b8135612fc3848260208601612f5c565b91505092915050565b600060208284031215612fe257612fe1612bd9565b5b600082013567ffffffffffffffff81111561300057612fff612bde565b5b61300c84828501612f9e565b91505092915050565b6000806040838503121561302c5761302b612bd9565b5b600061303a85828601612e2f565b925050602061304b85828601612da4565b9150509250929050565b6000610100820190508181036000830152613070818b612cfe565b90508181036020830152613084818a612cfe565b905081810360408301526130988189612cfe565b905081810360608301526130ac8188612cfe565b90506130bb6080830187612d63565b6130c860a0830186612d63565b6130d560c0830185612d63565b81810360e08301526130e78184612cfe565b90509998505050505050505050565b60006020828403121561310c5761310b612bd9565b5b600061311a84828501612e2f565b91505092915050565b600081519050919050565b600082825260208201905092915050565b6000819050602082019050919050565b61315881612d59565b82525050565b600061316a838361314f565b60208301905092915050565b6000602082019050919050565b600061318e82613123565b613198818561312e565b93506131a38361313f565b8060005b838110156131d45781516131bb888261315e565b97506131c683613176565b9250506001810190506131a7565b5085935050505092915050565b600060208201905081810360008301526131fb8184613183565b905092915050565b6000806000806080858703121561321d5761321c612bd9565b5b600061322b87828801612e2f565b945050602061323c87828801612da4565b935050604085013567ffffffffffffffff81111561325d5761325c612bde565b5b61326987828801612f9e565b925050606085013567ffffffffffffffff81111561328a57613289612bde565b5b61329687828801612f9e565b91505092959194509250565b6132ab81612e06565b82525050565b60006020820190506132c660008301846132a2565b92915050565b600081519050919050565b600082825260208201905092915050565b6000819050602082019050919050565b600082825260208201905092915050565b600061331482612c9e565b61331e81856132f8565b935061332e818560208601612cba565b61333781612ced565b840191505092915050565b600061334e8383613309565b905092915050565b6000602082019050919050565b600061336e826132cc565b61337881856132d7565b93508360208202850161338a856132e8565b8060005b858110156133c657848403895281516133a78582613342565b94506133b283613356565b925060208a0199505060018101905061338e565b50829750879550505050505092915050565b600060208201905081810360008301526133f28184613363565b905092915050565b6000806040838503121561341157613410612bd9565b5b600083013567ffffffffffffffff81111561342f5761342e612bde565b5b61343b85828601612f9e565b925050602061344c85828601612da4565b9150509250929050565b600082825260208201905092915050565b6000613472826132cc565b61347c8185613456565b93508360208202850161348e856132e8565b8060005b858110156134ca57848403895281516134ab8582613342565b94506134b683613356565b925060208a01995050600181019050613492565b50829750879550505050505092915050565b60006101208301600083015184820360008601526134fa8282613309565b915050602083015184820360208601526135148282613309565b9150506040830151848203604086015261352e8282613309565b915050606083015184820360608601526135488282613309565b915050608083015161355d608086018261314f565b5060a083015161357060a086018261314f565b5060c083015184820360c08601526135888282613467565b91505060e083015161359d60e086018261314f565b506101008301518482036101008601526135b78282613309565b9150508091505092915050565b600060208201905081810360008301526135de81846134dc565b905092915050565b60008060008060008060c0878903121561360357613602612bd9565b5b600087013567ffffffffffffffff81111561362157613620612bde565b5b61362d89828a01612f9e565b965050602087013567ffffffffffffffff81111561364e5761364d612bde565b5b61365a89828a01612f9e565b955050604087013567ffffffffffffffff81111561367b5761367a612bde565b5b61368789828a01612f9e565b945050606087013567ffffffffffffffff8111156136a8576136a7612bde565b5b6136b489828a01612f9e565b935050608087013567ffffffffffffffff8111156136d5576136d4612bde565b5b6136e189828a01612f9e565b92505060a06136f289828a01612da4565b9150509295509295509295565b6000806040838503121561371657613715612bd9565b5b600083013567ffffffffffffffff81111561373457613733612bde565b5b61374085828601612f9e565b925050602083013567ffffffffffffffff81111561376157613760612bde565b5b61376d85828601612f9e565b9150509250929050565b7f4552433136353a20616464496e746572666163653a207468697320696e74657260008201527f6661636520697320696e76616c69640000000000000000000000000000000000602082015250565b60006137d3602f83612ca9565b91506137de82613777565b604082019050919050565b60006020820190508181036000830152613802816137c6565b9050919050565b7f4e487b7100000000000000000000000000000000000000000000000000000000600052602260045260246000fd5b6000600282049050600182168061385057607f821691505b60208210810361386357613862613809565b5b50919050565b7f4552433732313a20746f6b656e4f664f776e65724279496e6465783a2063616c60008201527f6c6572206973206e6f7420616c6c6f77656420746f206265206e756c6c000000602082015250565b60006138c5603d83612ca9565b91506138d082613869565b604082019050919050565b600060208201905081810360008301526138f4816138b8565b9050919050565b7f4e487b7100000000000000000000000000000000000000000000000000000000600052603260045260246000fd5b600081905092915050565b60008190508160005260206000209050919050565b6000815461395781613838565b613961818661392a565b9450600182166000811461397c5760018114613991576139c4565b60ff19831686528115158202860193506139c4565b61399a85613935565b60005b838110156139bc5781548189015260018201915060208101905061399d565b838801955050505b50505092915050565b60006139d9828461394a565b915081905092915050565b60006020601f8301049050919050565b600082821b905092915050565b600060088302613a317fffffffffffffffffffffffffffffffffffffffffffffffffffffffffffffffff826139f4565b613a3b86836139f4565b95508019841693508086168417925050509392505050565b6000819050919050565b6000613a78613a73613a6e84612d59565b613a53565b612d59565b9050919050565b6000819050919050565b613a9283613a5d565b613aa6613a9e82613a7f565b848454613a01565b825550505050565b600090565b613abb613aae565b613ac6818484613a89565b505050565b5b81811015613aea57613adf600082613ab3565b600181019050613acc565b5050565b601f821115613b2f57613b0081613935565b613b09846139e4565b81016020851015613b18578190505b613b2c613b24856139e4565b830182613acb565b50505b505050565b600082821c905092915050565b6000613b5260001984600802613b34565b1980831691505092915050565b6000613b6b8383613b41565b9150826002028217905092915050565b613b8482612c9e565b67ffffffffffffffff811115613b9d57613b9c612ea1565b5b613ba78254613838565b613bb2828285613aee565b600060209050601f831160018114613be55760008415613bd3578287015190505b613bdd8582613b5f565b865550613c45565b601f198416613bf386613935565b60005b82811015613c1b57848901518255600182019150602085019450602081019050613bf6565b86831015613c385784890151613c34601f891682613b41565b8355505b6001600288020188555050505b505050505050565b600081549050613c5c81613838565b9050919050565b818103613c71575050613d49565b613c7a82613c4d565b67ffffffffffffffff811115613c9357613c92612ea1565b5b613c9d8254613838565b613ca8828285613aee565b6000601f831160018114613cd75760008415613cc5578287015490505b613ccf8582613b5f565b865550613d42565b601f198416613ce587613935565b9650613cf086613935565b60005b82811015613d1857848901548255600182019150600185019450602081019050613cf3565b86831015613d355784890154613d31601f891682613b41565b8355505b6001600288020188555050505b5050505050505b565b7f4552433732313a20746f6b656e4279496e6465783a20696e646578206f75742060008201527f6f662072616e6765000000000000000000000000000000000000000000000000602082015250565b6000613da7602883612ca9565b9150613db282613d4b565b604082019050919050565b60006020820190508181036000830152613dd681613d9a565b9050919050565b7f4552433732313a206f776e65724f663a2063616c6c6572206973206e6f74206160008201527f6c6c6f77656420746f206265206e756c6c000000000000000000000000000000602082015250565b6000613e39603183612ca9565b9150613e4482613ddd565b604082019050919050565b60006020820190508181036000830152613e6881613e2c565b9050919050565b6000613e7a82612c9e565b613e84818561392a565b9350613e94818560208601612cba565b80840191505092915050565b6000613eac8284613e6f565b915081905092915050565b7f4e487b7100000000000000000000000000000000000000000000000000000000600052601160045260246000fd5b6000613ef182612d59565b9150613efc83612d59565b925082821015613f0f57613f0e613eb7565b5b828203905092915050565b6000613f2582612d59565b9150613f3083612d59565b9250827fffffffffffffffffffffffffffffffffffffffffffffffffffffffffffffffff03821115613f6557613f64613eb7565b5b828201905092915050565b6000613f7b82612d59565b91507fffffffffffffffffffffffffffffffffffffffffffffffffffffffffffffffff8203613fad57613fac613eb7565b5b600182019050919050565b7f4e487b7100000000000000000000000000000000000000000000000000000000600052603160045260246000fd5b7f4552433732313a2062616c616e63654f663a2063616c6c6572206973206e6f7460008201527f20616c6c6f77656420746f206265206e756c6c00000000000000000000000000602082015250565b6000614043603383612ca9565b915061404e82613fe7565b604082019050919050565b6000602082019050818103600083015261407281614036565b9050919050565b6000819050919050565b600061408e82614079565b91507f7fffffffffffffffffffffffffffffffffffffffffffffffffffffffffffffff82036140c0576140bf613eb7565b5b600182019050919050565b7f4572726f723a206d696e74696e67206120666c6970636172642074686174206160008201527f6c72656164792065786973747300000000000000000000000000000000000000602082015250565b6000614127602d83612ca9565b9150614132826140cb565b604082019050919050565b600060208201905081810360008301526141568161411a565b9050919050565b600061416882612d59565b915061417383612d59565b9250817fffffffffffffffffffffffffffffffffffffffffffffffffffffffffffffffff04831182151516156141ac576141ab613eb7565b5b828202905092915050565b7f4572726f723a2063616e6e6f7420616464206d6f7265207468616e203130302060008201527f7265706169727300000000000000000000000000000000000000000000000000602082015250565b6000614213602783612ca9565b915061421e826141b7565b604082019050919050565b6000602082019050818103600083015261424281614206565b9050919050565b7f4552433732313a207472616e7366657246726f6d3a2063616c6c65722069732060008201527f6e6f7420616c6c6f77656420746f206265206e756c6c00000000000000000000602082015250565b60006142a5603683612ca9565b91506142b082614249565b604082019050919050565b600060208201905081810360008301526142d481614298565b9050919050565b7f4552433732313a207472616e7366657246726f6d3a20746f206164647265737360008201527f20697320696e76616c6964000000000000000000000000000000000000000000602082015250565b6000614337602b83612ca9565b9150614342826142db565b604082019050919050565b600060208201905081810360008301526143668161432a565b9050919050565b7f4552433732313a207472616e7366657246726f6d3a20746f6b656e496420646f60008201527f6573206e6f742065786973740000000000000000000000000000000000000000602082015250565b60006143c9602c83612ca9565b91506143d48261436d565b604082019050919050565b600060208201905081810360008301526143f8816143bc565b9050919050565b7f4552433732313a207472616e7366657246726f6d3a2063616c6c65722069732060008201527f6e6f7420616c6c6f77656420746f207472616e73666572207468697320746f6b60208201527f656e000000000000000000000000000000000000000000000000000000000000604082015250565b6000614481604283612ca9565b915061448c826143ff565b606082019050919050565b600060208201905081810360008301526144b081614474565b9050919050565b60006144c282612d59565b9150600082036144d5576144d4613eb7565b5b600182039050919050565b7f4552433732313a206d696e7420746f206164647265737320697320696e76616c60008201527f6964000000000000000000000000000000000000000000000000000000000000602082015250565b600061453c602283612ca9565b9150614547826144e0565b604082019050919050565b6000602082019050818103600083015261456b8161452f565b9050919050565b7f4552433732313a206d696e74696e67206120746f6b656e207468617420616c7260008201527f6561647920657869737473000000000000000000000000000000000000000000602082015250565b60006145ce602b83612ca9565b91506145d982614572565b604082019050919050565b600060208201905081810360008301526145fd816145c1565b905091905056fea26469706673582212202a33af9718e51a8a38dc56ff1766a52b3bb0823e9d5e257ca2f21b77c13da13464736f6c634300080f0033",
  "immutableReferences": {},
  "source": "// SPDX-License-Identifier: MIT\r\npragma solidity >=0.4.22 <0.9.0;\r\nimport './ERC721Connector.sol';\r\n\r\ncontract FlipCard is ERC721Connector{\r\n     string[] public flipCards;\r\n\r\n     struct CardDetails{\r\n         string serialNumber; \r\n         string email;\r\n         string mobileNumber;\r\n         string itemName;\r\n         uint createdDate;\r\n         uint expiryDate;\r\n         string[] previousRepairs;\r\n         uint lastRepairIndex;  \r\n         string flipcard;\r\n     }\r\n\r\n     mapping(string => CardDetails) public flipcardDetails;\r\n\r\n     mapping(string => bool) public _flipcardExists;\r\n     \r\n     mapping(string => uint256) public _flipcardIds;\r\n\r\n     mapping(string => CardDetails)public serialIdData;\r\n\r\n     mapping(string => string[])public repairs;\r\n\r\n     function getFlipCardId(string memory flipCard) public view returns (uint256){\r\n         return _flipcardIds[flipCard];\r\n     }\r\n     \r\n     // minting\r\n     function mint(string memory flipcard,string memory serialNumber,string memory email,string memory mobileNumber,string memory itemName,uint expiryMonths) public {\r\n          require(!_flipcardExists[flipcard],\"Error: minting a flipcard that already exists\");\r\n          flipCards.push(flipcard);\r\n          uint _id = flipCards.length - 1;\r\n          \r\n          _mint(msg.sender, _id);\r\n          _flipcardIds[flipcard] = _id; \r\n          _flipcardExists[flipcard] = true;\r\n          string[] memory temp = new string[](100);\r\n          flipcardDetails[flipcard] = CardDetails(\r\n                                         serialNumber,\r\n                                         email,\r\n                                         mobileNumber,\r\n                                         itemName,\r\n                                         block.timestamp,\r\n                                         block.timestamp+expiryMonths*30*24*60*60,\r\n                                         temp,\r\n                                         0,\r\n                                         flipcard\r\n                                         );\r\n                                 \r\n            serialIdData[serialNumber] = flipcardDetails[flipcard];  \r\n     }\r\n\r\n     // transfer token\r\n     function _transferFrom(address to,uint256 _id,string memory email,string memory mobileNumber) public {\r\n          transferFrom(msg.sender, to, _id);\r\n          flipcardDetails[flipCards[_id]].email = email;\r\n          flipcardDetails[flipCards[_id]].mobileNumber = mobileNumber;\r\n          serialIdData[flipcardDetails[flipCards[_id]].serialNumber] = flipcardDetails[flipCards[_id]];\r\n     }\r\n\r\n     // send Data\r\n     function getData(string memory flipcard) public view returns (CardDetails memory){\r\n         return flipcardDetails[flipcard];\r\n     }\r\n\r\n     //get owner by flipcard serial number\r\n     function getOwnerBySerialNumber(string memory serialNumber) public view returns (string memory){\r\n         return serialIdData[serialNumber].email;\r\n     }\r\n\r\n     // add repair \r\n    function addRepair(string memory serialNumber,string memory repair) public {\r\n        require(serialIdData[serialNumber].lastRepairIndex < 100,\"Error: cannot add more than 100 repairs\");\r\n        flipcardDetails[serialIdData[serialNumber].flipcard].previousRepairs[serialIdData[serialNumber].lastRepairIndex] = repair;\r\n        serialIdData[serialNumber].lastRepairIndex++;\r\n    }\r\n\r\n    // get repairs\r\n    function getRepairs(string memory flipcard) public view returns (string[] memory){\r\n        string[] memory temp = new string[](flipcardDetails[flipcard].lastRepairIndex);\r\n        for(int i=0;i<int(flipcardDetails[flipcard].lastRepairIndex);i++){\r\n            temp[uint(i)] = flipcardDetails[flipcard].previousRepairs[uint(i)];\r\n        }\r\n        return temp;\r\n    }\r\n    \r\n     constructor() ERC721Connector(\"FlipCard\",\"FC\"){}\r\n}",
  "sourcePath": "C:\\Users\\pavan\\OneDrive\\Desktop\\Dapp\\nft-marketplace-starter-kit\\src\\contracts\\FlipCard.sol",
  "compiler": {
    "name": "solc",
    "version": "0.8.15+commit.e14f2714.Emscripten.clang"
  },
  "schemaVersion": "3.4.8",
  "updatedAt": "2022-07-25T06:53:13.987Z",
  "networkType": "ethereum",
  "devdoc": {
    "kind": "dev",
    "methods": {
      "supportsInterface(bytes4)": {
        "details": "Interface identification is specified in ERC-165. This function  uses less than 30,000 gas.",
        "params": {
          "interfaceID": "The interface identifier, as specified in ERC-165"
        },
        "returns": {
          "_0": "`true` if the contract implements `interfaceID` and  `interfaceID` is not 0xffffffff, `false` otherwise"
        }
      }
    },
    "version": 1
  },
  "userdoc": {
    "kind": "user",
    "methods": {
      "supportsInterface(bytes4)": {
        "notice": "Query if a contract implements an interface"
      }
    },
    "version": 1
  }
}